:100000000C9424010C9438010C9438010C943801A0
:100010000C9438010C9438010C9438010C9438017C
:100020000C9438010C9438010C9438010C9438016C
:100030000C9438010C9438010C9438010C9438015C
:100040000C9438010C9438010C9438010C9438014C
:100050000C9438010C9438010C9438010C94A101D3
:100060000C9438010C9438010C9438010C9438012C
:100070000C9438010C9438010C9438010C9438011C
:100080000C9438010C9438010C9438010C9438010C
:100090000C9438010C9438010C9438010C943801FC
:1000A0000C9438010C9438010C9438010C943801EC
:1000B0000C9438010C9438010C9438010C943801DC
:1000C0000C9438010C9438010C9438010C943801CC
:1000D0000C9438010C9438010C9438010C943801BC
:1000E0000C9438010C946D010C945E010C949301F6
:1000F0000C9458010C9473010C9481010C946601CA
:100100000C949D010C9498010C9477010C9485013A
:100110000C948F010C947D010C948B010C94620162
:100120000C9499010C946A0100002100240027001E
:100130002A002D00300033000101000004010701F6
:100140000A01000020002300260029002C002F00B7
:100150003200000100000301060109010000220035
:10016000250028002B002E00310034000201000081
:10017000050108010B010505050507050808080824
:10018000020202020A0A080804040404010101012F
:10019000010101010303030303030303040707072A
:1001A0000C0C0C0C0C0C0C0C0202020206060606CF
:1001B000060606060B0B0B0B0B0B0B0B010210209C
:1001C000200808102040102040800201020108048D
:1001D0000201010204081020408080402010080421
:1001E000020180040201804020100804020108047A
:1001F00002010102040810204080010204081020BE
:10020000408000000A0B02090C0D0E0807030401D0
:1002100000000000000000000000000000000000DE
:1002200000000000000000000000000000001211AB
:1002300010000000000000000000000000000000AE
:10024000000000000000000011241FBECFEFD1E22B
:10025000DEBFCDBF00E00CBF22E0A0E0B2E001C0F5
:100260001D92A930B207E1F70E94EB010C94F8024D
:100270000C9400008150823108F05AC0E82FF0E061
:100280008827EA5BFE4F8F4F0C94F00266016A01EB
:1002900058015E01620198016D01730177017D01D2
:1002A000810185018B018F019801930199019D01C5
:1002B000809180008F7780938000089580918000E6
:1002C0008F7DF9CF80918000877FF5CF84B58F77C0
:1002D00084BD089584B58F7DFBCF8091B0008F776A
:1002E0008093B00008958091B0008F7DF9CF809108
:1002F00090008F77809390000895809190008F7D7B
:10030000F9CF80919000877FF5CF8091A0008F7703
:100310008093A00008958091A0008F7DF9CF8091F7
:10032000A000877FF5CF809120018F7780932001F7
:100330000895809120018F7DF9CF80912001877FE2
:10034000F5CF1F920F920FB60F9211242F933F9368
:100350008F939F93AF93BF93809105029091060274
:10036000A0910702B09108023091040223E0230F0C
:100370002D3758F50196A11DB11D209304028093DD
:10038000050290930602A0930702B09308028091A1
:10039000000290910102A0910202B0910302019625
:1003A000A11DB11D8093000290930102A09302024F
:1003B000B0930302BF91AF919F918F913F912F9185
:1003C0000F900FBE0F901F90189526E8230F0296EE
:1003D000A11DB11DD2CF789484B5826084BD84B54F
:1003E000816084BD85B5826085BD85B5816085BD30
:1003F00080916E00816080936E00109281008091E8
:10040000810082608093810080918100816080936F
:100410008100809180008160809380008091B10094
:1004200084608093B1008091B00081608093B000BF
:100430008091910082608093910080919100816011
:1004400080939100809190008160809390008091D2
:10045000A10082608093A1008091A10081608093BF
:10046000A1008091A00081608093A0008091210173
:10047000826080932101809121018160809321011C
:100480008091200181608093200180917A008460B6
:1004900080937A0080917A00826080937A008091C4
:1004A0007A00816080937A0080917A0080688093DE
:1004B0007A001092C100ECEBCE2EE1E0DE2EF601C8
:1004C0002491F6E7AF2EF1E0BF2EF5018491882349
:1004D00099F090E0880F991FFC01E85DFE4FA5910F
:1004E000B491FC01E45AFE4F859194918FB7F89432
:1004F0009C91292B2C938FBF04EC11E0F8012491DF
:100500006EE7E62E61E0F62EF70184918823C1F0B4
:1005100090E0880F991FFC01E85DFE4FA591B49112
:10052000FC01E45AFE4FC591D4913FB7F8949C91D9
:10053000822F809598239C939881892388833FBF3D
:100540002AE0422E22E0522E32E0632E32E0732E59
:1005500040E0842E40E0942EF2018491F801C49191
:10056000F701D491DD2309F436C081110E943A01CC
:10057000ED2FF0E0EE0FFF1FEE5BFE4FA591B49163
:100580008C91C82391E080E009F490E0C92FD82F26
:10059000F3018491F6013490F50124902220A1F01A
:1005A00081110E943A01E22DF0E0EE0FFF1FE45AA4
:1005B000FE4FA591B4918FB7F8949C91CD2B71F417
:1005C000309439223C928FBF8114910409F4C4CF36
:1005D0000E940000C1CFD0E0C0E0DACF392AF2CFCC
:1005E000EE0FFF1F881F8BBF0790F691E02D199427
:0405F000F894FFCFAD
:00000001FF
