:100000000C9425010C9456010C9456010C94560145
:100010000C9456010C9456010C9456010C94560104
:100020000C9456010C9456010C9456010C945601F4
:100030000C9456010C9456010C9456010C945601E4
:100040000C9456010C9456010C9456010C945601D4
:100050000C9456010C9456010C9456010C94A00378
:100060000C9456010C9456010C9456010C945601B4
:100070000C9456010C9456010C9456010C945601A4
:100080000C9456010C9456010C9456010C94560194
:100090000C9456010C9456010C9456010C94560184
:1000A0000C9456010C9456010C9456010C94560174
:1000B0000C9456010C9456010C9456010C94560164
:1000C0000C9456010C9456010C9456010C94560154
:1000D0000C9456010C9456010C9456010C94560144
:1000E0000C9456010C949A030C94D9010C94D401ED
:1000F0000C94EB010C9418020C9412020C942A023A
:100100000C9455020C9420020C94EF010C9477018E
:100110000C940A020C9404020C94DD040C94260244
:100120000C9400020C9456020C941C020C945B0577
:100130000C94F3010C94F7010C94FA010C940E0248
:1001400000000A0B02090C0D0E0807030401000051
:10015000000000000000000000000000000000009F
:10016000000000000000000000000000121110005C
:10017000000000000000000000000000000000007F
:1001800000000000000000002200250028002B00D5
:100190002E003100340002010000050108010B01AE
:1001A00000002100240027002A002D003000330029
:1001B00001010000040107010A0105050505070505
:1001C00008080808020202020A0A080804040404D3
:1001D00001010101010101010303030303030303FF
:1001E000040707070C0C0C0C0C0C0C0C020202028E
:1001F00006060606060606060B0B0B0B0B0B0B0B77
:100200000102102020080810204010204080020128
:10021000020108040201010204081020408080400D
:10022000201008040201800402018040201008040C
:1002300002010804020101020408102040800102AA
:10024000040810204080DD045B0511241FBECFEFA1
:10025000D1E2DEBFCDBF00E00CBF22E0AAE1B2E0F8
:1002600001C01D92AB34B207E1F712E0A0E0B2E0AA
:10027000E8E2FFE000E00BBF02C007900D92AA3158
:10028000B107D9F711E0C4E2D1E000E006C0219740
:100290000109802FFE010E946405C332D10780E06E
:1002A0000807A9F70E94EA030C9482070C94000047
:1002B00090E0FC01E050FE4F249186549E4FFC01DB
:1002C0008491882399F090E0880F991FFC01E056F3
:1002D000FE4FA591B491FC01EA57FE4F8591949190
:1002E0008FB7F894EC91E22BEC938FBF0895AF9207
:1002F000BF92CF92DF92EF92FF920F931F93CF9313
:10030000DF936C017B018B01040F151FEB015E0174
:10031000AE18BF08C017D10759F06991D601ED9109
:10032000FC910190F081E02DC6011995892B79F798
:10033000C501DF91CF911F910F91FF90EF90DF905A
:10034000CF90BF90AF900895282F30E0F901E05C86
:10035000FE4F9491F901E050FE4F449126543E4FD8
:10036000F9012491222309F435C0992311F1915008
:100370009231F8F4E92FF0E08827EE53FE4F8F4FCB
:100380000C946405F301F701D401EB01EF01D901ED
:10039000FA01000204020A020E02120218021C02F2
:1003A000D901200226022A02809180008F77809353
:1003B0008000E22FF0E0EE0FFF1FEA57FE4FA591FD
:1003C000B4918FB7F894EC91611148C040954E23D9
:1003D0004C938FBF0895809180008F7DE8CF8091EE
:1003E0008000877FE4CF84B58F7784BDE2CF84B56A
:1003F0008F7DFBCF8091B0008F778093B000D9CFF5
:100400008091B0008F7DF9CF809190008F7780939D
:100410009000CFCF809190008F7DF9CF8091900098
:10042000877FF5CF8091A0008F778093A000C1CF08
:100430008091A0008F7DF9CF8091A000877FF5CFBC
:10044000809120018F7780932001B3CF809120018C
:100450008F7DF9CF80912001877FF5CF4E2BB8CFCC
:100460003FB7F89480911F0290912002A091210241
:10047000B091220226B5A89B05C02F3F19F0019626
:10048000A11DB11D3FBFBA2FA92F982F8827BC01EE
:10049000CD01620F711D811D911D42E0660F771F16
:1004A000881F991F4A95D1F70895089590E080E03C
:1004B0000895CF93DF93EC0160E08E810E94A40148
:1004C00061E08E810E94A40160E08E810E94A401FF
:1004D0008BE891E00197F1F7DF91CF910895CF92EA
:1004E000DF92EF92FF920F931F93CF93DF936C01F4
:1004F0007C0187E0E80EF11CD0E0C0E0062F10E0A0
:10050000B8010C2E02C0759567950A94E2F76170E8
:10051000F70181917F010E94A4012196C430D10589
:1005200079F7C601DF91CF911F910F91FF90EF9066
:10053000DF90CF900C945902CF92DF92EF92FF920E
:100540000F931F93CF93DF93EC01F62E642F8C81D2
:100550000E94A4018D818F3F19F060E00E94A401E8
:100560000F2D10E08F8584FF25C06E0187E0C80E37
:10057000D11CF12CE12CB8010E2C02C075956795A9
:100580000A94E2F76170F60181916F010E94A40163
:10059000FFEFEF1AFF0A88E0E816F10461F7CE01D9
:1005A000DF91CF911F910F91FF90EF90DF90CF904F
:1005B0000C945902B80184E0759567958A95E1F726
:1005C000CE010E946F026F2DCE01DF91CF911F915E
:1005D0000F91FF90EF90DF90CF900C946F0240E06E
:1005E000682F8FE292E00C949C0281E00E94EF025F
:1005F0008BE39FE10197F1F70895CF93DF9382306A
:1006000029F490913E02986090933E0280934202BA
:100610001092430280E48093440280E1809345027B
:1006200080E580934602809133020E9458018091B8
:1006300034028F3F11F00E945801809135020E94D0
:100640005801CFE2D2E09E012F52324080913E020B
:1006500084FD0AC084E090E02196281739073CF415
:100660008E810E945801EFCF88E090E0F5CF8BE3B8
:100670009DE00197F1F760E0809133020E94A401B0
:1006800060E0809135020E94A401809134028F3F86
:1006900019F060E00E94A40180913E0284FD34C004
:1006A00063E08FE292E00E946F02CBE4D6E4CE01D9
:1006B0000197F1F763E08FE292E00E946F022197C9
:1006C000F1F763E08FE292E00E946F0283E592E02F
:1006D0000197F1F762E08FE292E00E946F02809151
:1006E0003E0280620E94EF0284E080933F028CE031
:1006F0000E94EF020E94F50282E08093400286E0B1
:10070000DF91CF910C94EF0280620E94EF028BE4A4
:1007100096E40197F1F780913E0280620E94EF0219
:1007200083E592E00197F1F780913E0280620E949A
:10073000EF02D5CF41E00E949C0281E090E0089555
:100740001F920F920FB60F9211242F933F938F9306
:100750009F93AF93BF9380911B0290911C02A09135
:100760001D02B0911E0230911A0223E0230F2D3793
:1007700058F50196A11DB11D20931A0280931B020A
:1007800090931C02A0931D02B0931E0280911F0241
:1007900090912002A0912102B09122020196A11D08
:1007A000B11D80931F0290932002A0932102B09369
:1007B0002202BF91AF919F918F913F912F910F9006
:1007C0000FBE0F901F90189526E8230F0296A11DCB
:1007D000B11DD2CF789484B5826084BD84B5816028
:1007E00084BD85B5826085BD85B5816085BD8091FC
:1007F0006E00816080936E00109281008091810074
:10080000826080938100809181008160809381006B
:10081000809180008160809380008091B10084602D
:100820008093B1008091B00081608093B00080918E
:10083000910082608093910080919100816080930B
:100840009100809190008160809390008091A10040
:1008500082608093A1008091A10081608093A100BB
:100860008091A00081608093A0008091210182602E
:1008700080932101809121018160809321018091E9
:10088000200181608093200180917A0084608093B0
:100890007A0080917A00826080937A0080917A0059
:1008A000816080937A0080917A00806880937A00DA
:1008B0001092C10082E00E94FD020E94F502C0E099
:1008C000D0E001E010E060912D0270912E022091A5
:1008D000290230912A0240912B0250912C02460F9E
:1008E000571F413151050CF054C0243008F023E06B
:1008F00080914202281710F02FEF280FE22FF0E02E
:10090000E15DFD4F8489860F80680E94EF0240916F
:1009100027025091280260912302709124028FE2F5
:1009200092E00E9477010E9430024B015C0188EE48
:10093000C82E83E0D82EE12CF12C0E9430026819D9
:1009400079098A099B09683E734081059105A8F3DE
:1009500021E0C21AD108E108F10888EE880E83E090
:10096000981EA11CB11CC114D104E104F10429F7A3
:100970000E94F50280912D0290912E020196909393
:100980002E0280932D02209709F49DCF0E94000033
:100990009ACF2115310549F410932A0200932902B8
:1009A00010922E0210922D02EECF2130310559F710
:1009B00010922A0210922902F3CF10923202109262
:1009C00031028AE092E09093300280932F028DE012
:1009D000809333028FEF809334028CE08093350252
:1009E00088E08093360289E0809337028AE0809322
:1009F00038028BE08093390210923A0210923B0247
:100A000010923C0210923D0210923E0281E00E9440
:100A1000FD021092240210922302109226021092DC
:100A20002502109228021092270267E070E090E001
:100A300080E00E949106009709F190932402809330
:100A4000230226E030E030932602209325022091F5
:100A5000270230912802232B11F4FC01108286E03A
:100A600090E0909328028093270262E172E08091E7
:100A70002302909124020E947B0714C080912302DC
:100A800090912402009711F00E940806109224020F
:100A9000109223021092280210922702109226022E
:100AA00010922502809127029091280290932C02A7
:100AB00080932B0208958091230290912402009745
:100AC00011F00C9408060895EE0FFF1F881F8BBFCE
:100AD0000790F691E02D19940F931F93CF93DF9316
:100AE0008230910510F482E090E0E0914902F091AB
:100AF0004A0230E020E0B0E0A0E0309799F4211500
:100B0000310509F44AC0281B390B24303105D8F5CA
:100B10008A819B816115710589F1FB019383828331
:100B2000FE0111C04081518102811381481759078C
:100B3000E0F04817590799F4109761F012960C935A
:100B4000129713961C933296CF01DF91CF911F918C
:100B50000F9108950093490210934A02F4CF211592
:100B6000310551F04217530738F0A901DB019A0112
:100B7000BD01DF01F801C1CFEF01F9CF90934A0227
:100B800080934902CDCFFE01E20FF31F8193919331
:100B90002250310939832883D7CF209147023091E1
:100BA0004802232B41F4209102023091030230933A
:100BB0004802209347022091000230910102211542
:100BC000310541F42DB73EB7409104025091050222
:100BD000241B350BE0914702F0914802E217F3071E
:100BE000A0F42E1B3F0B2817390778F0AC014E5F9D
:100BF0005F4F2417350748F04E0F5F1F5093480290
:100C000040934702819391939FCFF0E0E0E09CCF27
:100C1000CF93DF930097E9F0FC01329713821282A1
:100C2000A0914902B0914A02ED0130E020E0109716
:100C3000A1F420813181820F931F209147023091CE
:100C400048022817390709F061C0F0934802E09381
:100C50004702DF91CF910895EA01CE17DF07E8F54B
:100C60004A815B819E0141155105B1F7E901FB8382
:100C7000EA8349915991C40FD51FEC17FD0761F420
:100C8000808191810296840F951FE9019983888361
:100C9000828193819B838A83F0E0E0E012968D91BC
:100CA0009C9113970097B9F52D913C911197CD0127
:100CB0000296820F931F2091470230914802281715
:100CC000390739F6309751F510924A0210924902CD
:100CD000B0934802A0934702BCCFD383C283408124
:100CE0005181840F951FC817D90761F44E5F5F4F7C
:100CF00088819981480F591F518340838A819B8144
:100D0000938382832115310509F0B0CFF0934A0215
:100D1000E09349029ECFFD01DC01C0CF1382128215
:100D2000D7CF4F925F926F927F928F929F92AF92A6
:100D3000BF92CF92DF92EF92FF920F931F93CF93C8
:100D4000DF938C01009799F4CB01DF91CF911F9134
:100D50000F91FF90EF90DF90CF90BF90AF909F905A
:100D60008F907F906F905F904F900C946C05FC017A
:100D7000E60FF71F9C0122503109E217F30708F430
:100D8000AEC0D901CD91DC911197C617D70720F1DC
:100D9000C530D10578F0CE0104978617970750F03B
:100DA000C61BD70B2297C193D1936D937C93CF0130
:100DB0000E940806C801DF91CF911F910F91FF900B
:100DC000EF90DF90CF90BF90AF909F908F907F90EB
:100DD0006F905F904F9008955B01AC1ABD0A4C0173
:100DE0008C0E9D1EA0914902B0914A02512C412CBB
:100DF000F12CE12C109731F5809147029091480237
:100E00008815990509F05CC04616570608F058C0C9
:100E10008091000290910102009741F48DB79EB736
:100E20004091040250910502841B950BE817F907C5
:100E300008F055C0F0934802E0934702F90171832E
:100E40006083B8CF8D919C91119712966C901297F8
:100E500013967C901397A815B90559F56C0142E0DB
:100E6000C40ED11CCA14DB0420F1AC014A195B0981
:100E7000DA011296159780F0628273825183408363
:100E8000D9016D937C93E114F10471F0D7011396AD
:100E9000FC93EE9312978ECF22968C0F9D1FF90133
:100EA00091838083F301EFCFF0934A02E0934902EC
:100EB00081CF4816590608F42C017D01D3019ACF41
:100EC000CB010E946C057C01009749F0AE01B8018E
:100ED0000E947207C8010E94080687016BCF10E0CC
:100EE00000E068CFFB01DC0102C001900D9241508F
:100EF0005040D8F70895FB01DC0101900D920020CD
:100F0000E1F7089511E0C4E2D1E000E006C0802FCF
:100F1000FE010E9464052196011DC532D10780E0C3
:080F20000807A9F7F894FFCFC0
:100F280000004B028000000000009A03770156027F
:0A0F380055025365706568720000F1
:00000001FF
