:100000000C9435010C9466010C9466010C94660105
:100010000C9466010C9466010C9466010C946601C4
:100020000C9466010C9466010C9466010C946601B4
:100030000C9466010C9466010C9466010C946601A4
:100040000C9466010C9466010C9466010C94660194
:100050000C9466010C9466010C9466010C94C70420
:100060000C9466010C9466010C9466010C94660174
:100070000C9466010C9466010C9466010C94660164
:100080000C9466010C9466010C9466010C94660154
:100090000C9466010C9466010C9466010C94660144
:1000A0000C9466010C9466010C9466010C94660134
:1000B0000C9466010C9466010C9466010C94660124
:1000C0000C9466010C9466010C9466010C94660114
:1000D0000C9466010C9466010C9466010C94660104
:1000E0000C9466010C9479020C944C020C947302EB
:1000F0000C9454020C9481020C94C1040C942D03B2
:100100000C9450020C948B020C94B5070C94E902E9
:100110000C9429030C946F020C9446020C948602F2
:100120000C9461020C946B020C942E030C94FB0152
:100130000C9487020C947D020C94B8020C94580223
:100140000C9465020C945B0200002100240027003F
:100150002A002D00300033000101000004010701D6
:100160000A0100002200250028002B002E0031008B
:10017000340002010000050108010B01000020000D
:100180002300260029002C002F003200000100006F
:10019000030106010901050505050705080808080A
:1001A000020202020A0A080804040404010101010F
:1001B000010101010303030303030303040707070A
:1001C0000C0C0C0C0C0C0C0C0202020206060606AF
:1001D000060606060B0B0B0B0B0B0B0B010210207C
:1001E000200808102040102040800201020108046D
:1001F0000201010204081020408080402010080401
:100200000201800402018040201008040201080459
:10021000020101020408102040800102040810209D
:10022000408000000A0B02090C0D0E0807030401B0
:1002300000000000000000000000000000000000BE
:10024000000000000000000000000000000012118B
:10025000100000000000000000000000000000008E
:100260000000000000000000B50711241FBECFEF02
:10027000D1E2DEBFCDBF00E00CBF12E0A0E0B2E0F3
:10028000EEE7F1E100E00BBF02C007900D92AE3245
:10029000B107D9F722E0AEE2B2E001C01D92A33F60
:1002A000B207E1F711E0C5E3D1E000E006C0219715
:1002B0000109802FFE010E948808C433D10780E025
:1002C0000807A9F70E9411050C94BD080C940000C2
:1002D00096E0899FD0011124A459BD4F90967C933C
:1002E0006E935F9791E091969C939197E091D902DC
:1002F000F091DA029091D802992339F0309751F0B9
:10030000811108C0809188021994309719F05C9689
:100310008C91FACF0895CF92DF92EF92FF920F93D4
:100320001F9396E0899FF0011124E459FD4F11A21B
:10033000278D30A12130310551F178F0223031057F
:1003400009F451C02330310509F452C01F910F91B7
:10035000FF90EF90DF90CF9008956623B9F361E0AE
:1003600070E00E9468012FB7F89480916802909124
:100370006902A0916A02B0916B022FBF8093C40200
:100380009093C502A093C602B093C702DFCF9FB778
:10039000F894C0906802D0906902E0906A02F090F0
:1003A0006B029FBF0091C4021091C5022091C6024A
:1003B0003091C702C01AD10AE20AF30A0091D602AC
:1003C0001091D70230E020E00C151D052E053F05E9
:1003D00050F462E070E01F910F91FF90EF90DF907A
:1003E000CF900C9468016111B1CF63E070E0F3CF5E
:1003F00070E060E0F0CFAF92BF92CF92DF92EF92C9
:10040000FF920F931F93CF93DF936C017B018B01BE
:10041000040F151FEB015E01AE18BF08C017D1070E
:1004200059F06991D601ED91FC910190F081E02D98
:10043000C6011995892B79F7C501DF91CF911F91DD
:100440000F91FF90EF90DF90CF90BF90AF90089505
:100450008150823108F05AC0E82FF0E08827EC5C28
:10046000FD4F8F4F0C9488085402580246024C02EC
:10047000500286025B02610265026B026F02730228
:1004800079027D028602810287028B0280918000C0
:100490008F77809380000895809180008F7DF9CFC1
:1004A00080918000877FF5CF84B58F7784BD0895D4
:1004B00084B58F7DFBCF8091B0008F778093B000A3
:1004C00008958091B0008F7DF9CF809190008F7753
:1004D000809390000895809190008F7DF9CF809156
:1004E0009000877FF5CF8091A0008F778093A00048
:1004F00008958091A0008F7DF9CF8091A000877F23
:10050000F5CF809120018F7780932001089580910D
:1005100020018F7DF9CF80912001877FF5CFCF9388
:10052000DF93282F30E0F901EE5DFD4F8491F90152
:10053000E452FE4FD491F901EA56FE4FC491CC2308
:10054000A1F081110E942802EC2FF0E0EE0FFF1FB6
:10055000E458FE4FA591B491EC91ED2381E090E039
:1005600009F480E0DF91CF91089580E090E0FACF28
:10057000862F0C948F021F93CF93DF93282F30E0A8
:10058000F901EE5DFD4F8491F901E452FE4FD491E3
:10059000F901EA56FE4FC491CC23A9F0162F811120
:1005A0000E942802EC2FF0E0EE0FFF1FEE59FE4FE5
:1005B000A591B4918FB7F894EC91111108C0D09522
:1005C000DE23DC938FBFDF91CF911F910895DE2B47
:1005D000F8CF862F642F0C94BB02CF93DF9390E06B
:1005E000FC01E452FE4F24918A569E4FFC018491F7
:1005F0008823C9F090E0880F991FFC01E85BFE4F4B
:10060000A591B491FC01EE59FE4FC591D4916111B1
:100610000DC09FB7F8948C91209582238C9388818C
:10062000282328839FBFDF91CF910895623051F432
:100630009FB7F8943C91822F809583238C93E88117
:100640002E2BEFCF8FB7F894EC912E2B2C938FBFDE
:10065000EACF862F642F0C94ED02089590E080E09D
:1006600008958F929F92AF92BF920F931F93CF9353
:10067000DF93CDB7DEB7A1970FB6F894DEBF0FBEFC
:10068000CDBF19A2423008F44AE08E010F5D1F4F22
:10069000842E912CB12CA12CA50194010E946608F6
:1006A000E62FB901CA01EA3044F5E05DD801EE93C6
:1006B0008D01232B242B252B79F790E080E01097D8
:1006C00069F0FD0101900020E9F73197AF014A1B65
:1006D0005B0BBD018BED92E00E94FB01A1960FB672
:1006E000F894DEBF0FBECDBFDF91CF911F910F9168
:1006F000BF90AF909F908F900895E95CD7CFCF9334
:10070000DF93EC0160E08E810E94BB0261E08E818C
:100710000E94BB0260E08E810E94BB028BE891E0E8
:100720000197F1F7DF91CF910895CF92DF92EF9289
:10073000FF920F931F93CF93DF936C017C0187E0AF
:10074000E80EF11CD0E0C0E0062F10E0B8010C2E3E
:1007500002C0759567950A94E2F76170F70181917F
:100760007F010E94BB022196C430D10579F7C601F2
:10077000DF91CF911F910F91FF90EF90DF90CF907D
:100780000C947F03CF92DF92EF92FF920F931F930F
:10079000CF93DF93EC01F62E642F8C810E94BB0275
:1007A0008D818F3F19F060E00E94BB020F2D10E099
:1007B0008F8584FF25C06E0187E0C80ED11CF12C07
:1007C000E12CB8010E2C02C0759567950A94E2F7EA
:1007D0006170F60181916F010E94BB02FFEFEF1A79
:1007E000FF0A88E0E816F10461F7CE01DF91CF91AE
:1007F0001F910F91FF90EF90DF90CF900C947F03AB
:10080000B80184E0759567958A95E1F7CE010E945D
:1008100095036F2DCE01DF91CF911F910F91FF9026
:10082000EF90DF90CF900C94950340E0682F8BED14
:1008300092E00C94C203CF93DF93823029F490911D
:10084000EA0298609093EA028093EE021092EF021F
:1008500080E48093F00280E18093F10280E5809350
:10086000F20261E08091DF020E94ED028091E002DD
:100870008F3F19F061E00E94ED0261E08091E1029A
:100880000E94ED02CBEDD2E09E012B5D32408091C3
:10089000EA0284FD0BC084E090E021962817390716
:1008A00044F461E08E810E94ED02EECF88E090E09A
:1008B000F4CF8BE39DE00197F1F760E08091DF02D8
:1008C0000E94BB0260E08091E1020E94BB02809125
:1008D000E0028F3F19F060E00E94BB028091EA02C3
:1008E00084FD39C063E08BED92E00E949503CBE478
:1008F000D6E4CE010197F1F763E08BED92E00E9420
:1009000095032197F1F763E08BED92E00E94950348
:1009100083E592E00197F1F762E08BED92E00E94AF
:1009200095038091EA0280620E94150484E080931E
:10093000EB028CE00E94150481E00E9415048BE319
:100940009FE10197F1F782E08093EC0286E0DF916E
:10095000CF910C94150480620E9415048BE496E4F8
:100960000197F1F78091EA0280620E94150483E505
:1009700092E00197F1F78091EA0280620E941504EB
:10098000D0CF41E00E94C20381E090E008951F9221
:100990000F920FB60F9211242F933F938F939F9333
:1009A000AF93BF938091680290916902A0916A020F
:1009B000B0916B023091320223E0230F2D3758F5AE
:1009C0000196A11DB11D209332028093680290937D
:1009D0006902A0936A02B0936B0280912E029091FB
:1009E0002F02A0913002B09131020196A11DB11DDC
:1009F00080932E0290932F02A0933002B093310285
:100A0000BF91AF919F918F913F912F910F900FBE0A
:100A10000F901F90189526E8230F0296A11DB11D77
:100A2000D2CFCF93DF931F92CDB7DEB7789484B542
:100A3000826084BD84B5816084BD85B5826085BDDA
:100A400085B5816085BD80916E00816080936E0068
:100A5000109281008091810082608093810080915A
:100A6000810081608093810080918000816080930B
:100A700080008091B10084608093B1008091B000CB
:100A800081608093B000809191008260809391009A
:100A900080919100816080939100809190008160AD
:100AA000809390008091A10082608093A10080914A
:100AB000A10081608093A1008091A000816080935B
:100AC000A000809121018260809321018091210109
:100AD00081608093210180912001816080932001B9
:100AE00080917A00846080937A0080917A0082609D
:100AF00080937A0080917A00816080937A0080915F
:100B00007A00806880937A001092C10082E00E948F
:100B10001B0481E00E9415048BE39FE10197F1F72C
:100B2000412C512C3201439440E0A42E40E0B42EDD
:100B300051E05093D8028FB7F894409168025091D9
:100B4000690260916A0270916B028FBF8091C80246
:100B50009091C902A091CA02B091CB02481B590BD7
:100B60006A0B7B0B8091D4029091D502B0E0A0E09B
:100B700084179507A607B70708F012C110E0809107
:100B8000D202181760F4E091CE02F091CF02E10F8B
:100B9000F11D62E080810E94ED021F5FF0CF312CD9
:100BA0008091D302381608F061C0E32CF12CE0915B
:100BB000D002F091D102EE0DFF1D61E080810E9414
:100BC000ED02E091D002F091D102EE0DFF1D60E048
:100BD00080810E94BB02D301C201032C04C0880F94
:100BE000991FAA1FBB1F0A94D2F74C016C01C09435
:100BF000D094212C8091D202281608F5022D10E005
:100C0000E091CE02F091CF02E00FF11F80810E94AF
:100C10008F020C5F1F4F000F111FF801E459FD4FA9
:100C2000892B41F48081918188299929918380833E
:100C30002394E0CF808191818C219D21F7CFE09199
:100C4000D002F091D102EE0DFF1D61E080810E9483
:100C5000BB028091D0029091D102E80EF91E60E0B3
:100C6000F70180810E94ED0233949ACF0CE612E0E6
:100C70007801F701878D90A1892B31F4148E8FEFC5
:100C80009FEF968F858F11A296E0E90EF11CE8EA9E
:100C9000F2E0EE15FF0569F7D12C8091D202D8164B
:100CA00008F053C0C12C8D2C912C880C991CC401C8
:100CB0008C589D4F4C012091D302C21608F043C0BE
:100CC000F401608171810C2C02C0769567950A94BD
:100CD000E2F7D29E900111242C0D311DECE6F2E0DA
:100CE00080E0458D568D2417350709F43CC18F5F90
:100CF00036968A30B1F760FF24C0ECE6F2E090E06F
:100D000080E0448D411118C0E091CC02F091CD02F9
:100D1000E20FF31F408156E0589FF001599FF00DFC
:100D20001124E459FD4F448F368F258F10A2178E62
:100D300061E00E948B0105C0019636968A309105CC
:100D400001F7C394B8CFD394A8CF80E0F80191A164
:100D50009111892F0A5F1F4FE016F106B9F79FB76F
:100D6000F894409168025091690260916A02709112
:100D70006B029FBF4093C8025093C9026093CA029E
:100D80007093CB02882361F080918D02882341F01B
:100D900080918B0290918C0210918802019719F03A
:100DA0001092D80210E01983E1E08091EE028111E7
:100DB000E0E0E195F0E0E552FD4F848980680E9413
:100DC000150470E060E088E592E00E94A408892B99
:100DD00049F410935802A114B10409F4A9CE0E9459
:100DE0000000A6CE1D3309F457C041E050E0BE011B
:100DF0006F5F7F4F88E592E00E94AD0848E552E0C2
:100E0000FA0101900020E9F7AF014955524068E529
:100E100072E08BED92E00E94FB0190915702812FCE
:100E20008D7F8D3221F086ED810F823068F4911133
:100E3000D2CF1093570287E492E00E942C0890933F
:100E4000460280934502C7CF70E060E0911113C065
:100E500087E492E00E94A408892B19F410934702BA
:100E6000BACF41E050E0BE016F5F7F4F87E492E070
:100E70000E94AD08B0CF85E392E00E94A408892BC0
:100E800019F410933502A7CF41E050E0BE016F5F27
:100E90007F4F85E392E0ECCF85E392E00E942C083F
:100EA000BC01809157028B32D1F174F58A3209F47A
:100EB0004CC0E091EE02E23008F053C0E150F0E0A7
:100EC000E552FD4F848980680E941504C09033026A
:100ED000D09034020D2C000CEE08FF084AE0C70148
:100EE000B601F7FE0EC041E06DE28BED92E00E948C
:100EF000C20366277727CB016C197D098E099F09EC
:100F00004AE00E94310367CF8D32A1F08F3289F61B
:100F100080914502909146020E94520806C080913D
:100F2000450290914602680F791F709334026093D6
:100F30003302BFCF8091450290914602861B970BEA
:100F40009093340280933302B4CF209145023091C4
:100F50004602269FC001279F900D369F900D1124B9
:100F6000EFCFE1E0ACCF6170E4CE1092DE021092E0
:100F7000DD0286E292E09093DC028093DB028DE05A
:100F80008093DF028FEF8093E0028CE08093E10298
:100F900088E08093E20289E08093E3028AE0809314
:100FA000E4028BE08093E5021092E6021092E702E1
:100FB0001092E8021092E9021092EA0281E00E9487
:100FC0001B0410926E021092720210927102109223
:100FD00073028CE192E090936D0280936C02E8E8DA
:100FE000F2E01082148213821582369682E0E43C8D
:100FF000F807B9F784E092E09093CF028093CE0295
:1010000080E092E09093D1028093D00284E08093BC
:10101000D2028093D30288E092E09093CD02809335
:10102000CC028AE090E09093D5028093D40284EFC2
:1010300091E09093D7028093D6021092DA02109238
:10104000D9021092C8021092C9021092CA021092DC
:10105000CB021092D8020895FC0188279927E894C2
:1010600021912032E9F3293010F02E30C8F32B32D1
:1010700041F02D3239F4689404C00E944A08820F6E
:10108000911D219120532A30C0F31EF49095819533
:101090009F4F08957AE0979F902D879F802D910D07
:1010A0001124089597FB072E16F4009407D077FDBE
:1010B00009D00E94900807FC05D03EF490958195D8
:1010C0009F4F0895709561957F4F0895A1E21A2E64
:1010D000AA1BBB1BFD010DC0AA1FBB1FEE1FFF1FDC
:1010E000A217B307E407F50720F0A21BB30BE40B2C
:1010F000F50B661F771F881F991F1A9469F7609573
:101100007095809590959B01AC01BD01CF0108952C
:10111000EE0FFF1F881F8BBF0790F691E02D1994EB
:10112000AA1BBB1B51E107C0AA1FBB1FA617B7070D
:1011300010F0A61BB70B881F991F5A95A9F7809529
:101140009095BC01CD010895FB01DC018D910190CA
:1011500080190110D9F3990B0895FB01DC010D9062
:101160000020E9F711974150504028F001900020ED
:0E1170000D92C9F708951C920895F894FFCFD0
:10117E001F21232517191B1D3738392F3435362AD1
:10118E003132332D4F303D2B000000002903E90290
:0E119E00B80200000000C104FB012E032D0367
:00000001FF
