:020000040040BA
:1000000000040020C1004000C9004000CB004000B7
:10001000CD004000CF004000D100400000000000B3
:10002000000000000000000000000000D3004000BD
:10003000D500400000000000D7004000D90040007B
:10004000DB004000DB004000DB004000DB00400044
:10005000DB004000DB004000DB004000000000004F
:10006000DB004000DB00400000000000DB0040003F
:10007000DB004000DB004000DB004000DB00400014
:10008000000000000000000000000000DB00400055
:10009000DB004000DB00400000000000DB0040000F
:1000A000DB004000DB004000DB004000DB004000E4
:1000B000DB004000DB004000DB004000DB004000D4
:1000C0000948804709480047FEE7FEE7FEE7FEE7EC
:1000D000FEE7FEE7FEE7FEE7FEE7FEE70448054928
:1000E000054A064B70470000090140008D014000A1
:1000F0000000002000040020000200200002002078
:10010000704770477047000040F26840C4F20E002C
:100110004FF4007244F20031C0F8982540F2011209
:10012000C5F24D01C0F23712C16740F8482C00BF3C
:100130000268D207FCD048F20162C2F20F0240F816
:10014000402C00BF02689207FCD550F8382C0223DF
:1001500063F3061240F8382C02681207FCD52222FD
:1001600040F8382C02681207FCD5002240F8682CB1
:100170004FF4E052013140F8582CC16741F254402D
:10018000C4F20E004FF40041016070474FF0010CC3
:100190004FF47844514D2C60514D2C60514D2A68DC
:1001A0004FF4E06302EA03024FEA42124E4D2A6026
:1001B0006FEA02024FF4604302EA03024B4D2A60E9
:1001C000484D2A684FF0FF0302EA0302482A51D043
:1001D000842A54D0442A57D0242A5AD0822A5DD067
:1001E000422A60D0222A63D0812A66D0412A69D06F
:1001F000212A6CD0B9F1000F23D0B9F1060F06D136
:100200004FF48052384D2A60A9F1010919E0B9F183
:10021000010F06D14FF48052344D2A60A9F1010933
:100220000FE04FEA610106D24FF480522F4D2A6051
:10023000A9F1010905E04FF480522B4D2A60A9F184
:100240000109BCF1010F06D14FF40062264D2A606E
:100250004FF0000C05E04FF40062244D2A604FF08F
:10026000010C4FF000044FF4406504F10104AC426E
:10027000FBD193E74FF000014FF00609BAE74FF0CA
:1002800001014FF00609B5E74FF002014FF00609F2
:10029000B0E74FF003014FF00609ABE74FF0040160
:1002A0004FF00609A6E74FF005014FF00609A1E758
:1002B0004FF006014FF006099CE74FF007014FF0A1
:1002C000060997E74FF008014FF0060992E74FF053
:1002D00009014FF006098DE7FEE70000000E0E4011
:1002E000100E0E404C0E0E40300E0E40340E0E40DE
:040000050040018D29
:00000001FF
