:100000000C942B010C945C010C945C010C945C012D
:100010000C945C010C945C010C945C010C945C01EC
:100020000C945C010C945C010C945C010C945C01DC
:100030000C945C010C945C010C945C010C945C01CC
:100040000C945C010C941A060C945C010C945C01F9
:100050000C945C010C945C010C945C010C94E6041F
:100060000C945C010C945A050C9430050C945C01C2
:100070000C945C010C945C010C945C010C945C018C
:100080000C94EC050C945C010C945C010C945C01E8
:100090000C945C010C945C010C945C010C945C016C
:1000A0000C945C010C945C010C94BE050C945C01F6
:1000B0000C945C010C945C010C945C010C94900514
:1000C0000C945C010C945C010C945C010C945C013C
:1000D0000C945C010C945C010C945C010C945C012C
:1000E0000C945C010C948C010C945E090C944703F5
:1000F0000C9448060C9441030C9429030C940303BC
:100100000C9455030C941A030C9435020C9433038D
:100110000C944B030C945F010C9422030C94260363
:100120000C943D030C949B010C941E030C944F0300
:100130000C942F030C9482020C94FD010C94080380
:100140000C9439030C94EF010C94590300000A0B32
:1001500002090C0D0E080703040100000000000056
:10016000000000000000000000000000000000008F
:10017000000000000000000012111000000000004C
:10018000000000000000000000000000000000006F
:10019000000000002200250028002B002E00310066
:1001A000340002010000050108010B0100002100DC
:1001B000240027002A002D00300033000101000038
:1001C000040107010A0105050505070508080808D7
:1001D000020202020A0A08080404040401010101DF
:1001E00001010101030303030303030304070707DA
:1001F0000C0C0C0C0C0C0C0C02020202060606067F
:10020000060606060B0B0B0B0B0B0B0B010210204B
:10021000200808102040102040800201020108043C
:1002200002010102040810204080804020100804D0
:100230000201800402018040201008040201080429
:10024000020101020408102040800102040810206D
:10025000408048065E0911241FBECFEFD1E2DEBF09
:10026000CDBF00E00CBF12E0A0E0B2E0E2E8F8E1B0
:1002700000E00BBF02C007900D92AC31B107D9F777
:1002800023E0ACE1B2E001C01D92AC36B207E1F769
:1002900011E0CAE2D1E000E006C021970109802FF9
:1002A000FE010E94110AC932D10780E00807A9F7B0
:1002B0000E94C8060C942F0C0C9400000895AF9275
:1002C000BF92CF92DF92EF92FF920F931F93CF9343
:1002D000DF936C017B018B01040F151FEB015E01A5
:1002E000AE18BF08C017D10759F06991D601ED913A
:1002F000FC910190F081E02DC6011995892B79F7C9
:10030000C501DF91CF911F910F91FF90EF90DF908A
:10031000CF90BF90AF900895FC01538D448D252F51
:1003200030E0842F90E0821B930B541710F0CF968F
:10033000089501970895FC01918D828D981761F0C1
:10034000A28DAE0FBF2FB11D5D968C91928D9F5FD8
:100350009F73928F90E008958FEF9FEF08952FB7CE
:10036000F8948091270290912802A0912902B091DF
:100370002A022FBF8093330290933402A093350258
:10038000B09336028BE292E00E949B0197FF26C059
:100390002FB7F8948091270290912802A09129020A
:1003A000B0912A022FBF40913302509134026091E4
:1003B000350270913602841B950BA60BB70B40914A
:1003C0002F025091300260913102709132028417F5
:1003D0009507A607B707B0F28FEF9FEF0895FC01CE
:1003E000918D828D981731F0828DE80FF11D858DEA
:1003F00090E008958FEF9FEF0895FC01918D228D7D
:10040000892F90E0805C9F4F821B91098F73992701
:1004100008958BE292E00E94FD0121E0892B09F40E
:1004200020E0822F0895FC01A48DA80FB92FB11DE3
:10043000A35ABF4F2C91848D90E001968F7399271A
:10044000848FA689B7892C93A089B1898C918370F8
:1004500080648C93938D848D981306C00288F389F1
:10046000E02D80818F7D80830895EF92FF920F931E
:100470001F93CF93DF93EC0181E0888F9B8D8C8D50
:1004800098131AC0E889F989808185FF15C09FB744
:10049000F894EE89FF896083E889F9898081837007
:1004A000806480839FBF81E090E0DF91CF911F91B6
:1004B0000F91FF90EF900895F62E0B8D10E00F5FD7
:1004C0001F4F0F731127E02E8C8D8E110CC00FB6AD
:1004D00007FCFACFE889F989808185FFF5CFCE0145
:1004E0000E941302F1CFEB8DEC0FFD2FF11DE35AAB
:1004F000FF4FF0829FB7F8940B8FEA89FB898081C8
:100500008062CFCFCF93DF93EC01888D8823B9F041
:10051000AA89BB89E889F9898C9185FD03C080810E
:1005200086FD0DC00FB607FCF7CF8C9185FFF2CF8B
:10053000808185FFEDCFCE010E941302E9CFDF91CC
:10054000CF91089580E090E0892B29F00E94090264
:1005500081110E94000080E090E0892B49F080E04A
:1005600090E0892B29F00E94000081110E94000078
:1005700080E090E0892B49F080E090E0892B29F021
:100580000E94000081110E94000080E090E0892B11
:1005900049F080E090E0892B29F00E940000811151
:1005A0000C9400000895282F30E0F901E45BFE4F21
:1005B0009491F901E45FFD4F44912A533E4FF901B4
:1005C0002491222309F435C0992311F191509231DD
:1005D000F8F4E92FF0E08827EF50FD4F8F4F0C948F
:1005E000110A2203260303031A031E030803290327
:1005F0002F03330339033D03410347034B03080330
:100600004F0355035903809180008F7780938000BA
:10061000E22FF0E0EE0FFF1FEE56FE4FA591B491D2
:100620008FB7F894EC91611148C040954E234C93DC
:100630008FBF0895809180008F7DE8CF80918000EA
:10064000877FE4CF84B58F7784BDE2CF84B58F7D7B
:10065000FBCF8091B0008F778093B000D9CF80918D
:10066000B0008F7DF9CF809190008F7780939000BC
:10067000CFCF809190008F7DF9CF80919000877FC0
:10068000F5CF8091A0008F778093A000C1CF80919B
:10069000A0008F7DF9CF8091A000877FF5CF80915A
:1006A00020018F7780932001B3CF809120018F7D2F
:1006B000F9CF80912001877FF5CF4E2BB8CFAF9235
:1006C000BF92CF92DF92EF92FF920F931F93CF933F
:1006D000DF936B017A01EC01C45EDD4F28813CE0C1
:1006E000389F8001399F100D1124A0905803B12C20
:1006F00027FF1FC0FB011182108288818F5F8883D2
:1007000088819801280F311D87FD3A95F6012A1539
:100710003B051CF488818C30C4F180819181049662
:1007200080349C4908F473C0F6018081918104965D
:1007300070C088819801280F311D87FD3A952A15D0
:100740003B05DCF68881A801480F511D87FD5A95AD
:10075000FA01EE0FFF1FE40FF51FE853FD4F8081F4
:1007600086FFCBCF8881F801E80FF11D87FDFA9550
:10077000CF01EE0FFF1FE80FF91FE853FD4F8081F7
:1007800060E08F730E94D302B8CF8081918128816D
:10079000A801420F511D27FD5A959A01FA01EE0F4B
:1007A000FF1FE20FF31FE853FD4F21813281820FBB
:1007B000931FF7019183808388819801280F311D51
:1007C00087FD3A95F901EE0FFF1FE20FF31FE85383
:1007D000FD4F808186FF22C08881080F111D87FD93
:1007E0001A95F801EE0FFF1FE00FF11FE853FD4FC0
:1007F000808161E08F73DF91CF911F910F91FF9006
:10080000EF90DF90CF90BF90AF900C94D30280E434
:100810009CE9F701918380838FEF8883DF91CF91EB
:100820001F910F91FF90EF90DF90CF90BF90AF900E
:1008300008958F929F92AF92BF920F931F93CF9381
:10084000DF93CDB7DEB7A1970FB6F894DEBF0FBE2A
:10085000CDBF19A2423008F44AE08E010F5D1F4F50
:10086000842E912CB12CA12CA50194010E94D409B5
:10087000E62FB901CA01EA3044F5E05DD801EE93F4
:100880008D01232B242B252B79F790E080E0109706
:1008900069F0FD0101900020E9F73197AF014A1B93
:1008A0005B0BBD018BE292E00E945F01A1960FB647
:1008B000F894DEBF0FBECDBFDF91CF911F910F9196
:1008C000BF90AF909F908F900895E95CD7CFCF9263
:1008D000DF92EF92FF92CF93DF936B017C016DE289
:1008E0008BE292E00E943502EC0166277727CB016C
:1008F0006C197D098E099F094AE00E9419048C0F2A
:100900009D1FDF91CF91FF90EF90DF90CF900895E2
:1009100042E050E068E172E08BE292E00C945F010B
:10092000FC0180819181009711F00C94B50A089523
:100930000F931F93CF93DF93EC01888199810097E8
:1009400059F02A813B812617370730F081E0DF918B
:10095000CF911F910F9108958B016F5F7F4F0E9480
:100960003E0B009759F0998388831B830A832C815F
:100970003D81232B59F7FC011082E8CF80E0E7CFBF
:100980000F931F93CF93DF93EC018B010E94980488
:1009900028813981811112C02115310519F0C90151
:1009A0000E94B50A198218821D821C821B821A823B
:1009B000CE01DF91CF911F910F9108951D830C837C
:1009C0006AE172E0C9010E94280CF2CF1F920F92D7
:1009D0000FB60F9211242F933F938F939F93AF9352
:1009E000BF938091270290912802A0912902B09193
:1009F0002A023091260223E0230F2D3758F5019665
:100A0000A11DB11D209326028093270290932802F6
:100A1000A0932902B0932A0280912202909123028E
:100A2000A0912402B09125020196A11DB11D8093D1
:100A3000220290932302A0932402B0932502BF9137
:100A4000AF919F918F913F912F910F900FBE0F907B
:100A50001F90189526E8230F0296A11DB11DD2CF35
:100A60001F920F920FB60F9211240BB60F922F9375
:100A70003F934F935F936F937F938F939F93AF9326
:100A8000BF93EF93FF938BE292E00E941302FF91DA
:100A9000EF91BF91AF919F918F917F916F915F91F6
:100AA0004F913F912F910F900BBE0F900FBE0F9063
:100AB0001F9018951F920F920FB60F9211240BB62C
:100AC0000F922F938F939F93EF93FF93E0913B02AD
:100AD000F0913C028081E0914102F091420282FD5E
:100AE0001DC09081809144028F5F8F7320914502D9
:100AF000821741F0E0914402F0E0E55DFD4F958FF3
:100B000080934402FF91EF919F918F912F910F90CD
:100B10000BBE0F900FBE0F901F9018958081F2CFE3
:100B20001F920F920FB60F9211240BB60F922F93B4
:100B30003F934F935F936F937F938F939F93AF9365
:100B4000BF93EF93FF9348E251E064E271E090E0DD
:100B500080E00E945F03FF91EF91BF91AF919F9161
:100B60008F917F916F915F914F913F912F910F9056
:100B70000BBE0F900FBE0F901F9018951F920F92F3
:100B80000FB60F9211240BB60F922F933F934F93F2
:100B90005F936F937F938F939F93AF93BF93EF93E5
:100BA000FF9348EA50E064EA70E083E090E00E943E
:100BB0005F03FF91EF91BF91AF919F918F917F91D3
:100BC0006F915F914F913F912F910F900BBE0F90BE
:100BD0000FBE0F901F9018951F920F920FB60F9295
:100BE00011240BB60F922F933F934F935F936F9304
:100BF0007F938F939F93AF93BF93EF93FF9348E9B6
:100C000050E064E970E082E090E00E945F03FF91B1
:100C1000EF91BF91AF919F918F917F916F915F9174
:100C20004F913F912F910F900BBE0F900FBE0F90E1
:100C30001F9018951F920F920FB60F9211240BB6AA
:100C40000F922F933F934F935F936F937F938F9365
:100C50009F93AF93BF93EF93FF9348E850E064E80E
:100C600070E081E090E00E945F03FF91EF91BF91FF
:100C7000AF919F918F917F916F915F914F913F9134
:100C80002F910F900BBE0F900FBE0F901F901895D5
:100C900010922E0210922D0288EE93E0A0E0B0E0B8
:100CA00080932F0290933002A0933102B0933202CE
:100CB0008AE092E090932C0280932B0285EC90E0E6
:100CC000909338028093370284EC90E090933A023C
:100CD0008093390280EC90E090933C0280933B0239
:100CE00081EC90E090933E0280933D0282EC90E094
:100CF0009093400280933F0286EC90E090934202F2
:100D000080934102109244021092450210924602D2
:100D100010924702809158038033B0F591E0980F0C
:100D2000909358038093650390E0FC01EE0FFF1F42
:100D3000E80FF91FE853FD4F88EB9BE09283818316
:100D40001092600310925F0310926203109261038D
:100D5000109264031092630370E060E08FE593E00B
:100D60000E94C00410925A031092590310925C031F
:100D700010925B0310925E0310925D0370E060E0DE
:100D800089E593E00C94C0048FEF80936503D8CF7E
:100D9000CF93DF9300D000D01F921F92CDB7DEB764
:100DA000789484B5826084BD84B5816084BD85B546
:100DB000826085BD85B5816085BD80916E00816052
:100DC00080936E00109281008091810082608093F8
:100DD00081008091810081608093810080918000FA
:100DE0008160809380008091B10084608093B10025
:100DF0008091B00081608093B0008091910082600A
:100E00008093910080919100816080939100809106
:100E100090008160809390008091A1008260809317
:100E2000A1008091A10081608093A1008091A00029
:100E300081608093A00080912101826080932101D4
:100E40008091210181608093210180912001816046
:100E50008093200180917A00846080937A00809151
:100E60007A00826080937A0080917A00816080931A
:100E70007A0080917A00806880937A001092C10095
:100E800080916503803308F06BC0E5E1F2E02491C6
:100E9000EFECF1E08491882399F090E0880F991F9E
:100EA000FC01E455FE4FA591B491FC01EE56FE4FB6
:100EB000859194918FB7F894EC91E22BEC938FBFCE
:100EC00080916503282F30E0F901EE0FFF1FE20F3C
:100ED000F31FE853FD4F9081907C996090839EE8CA
:100EE0009093660394E6909367032CE0622F0E9430
:100EF000050A829FB001112430E020E0AB01420FCF
:100F0000531FFA01EE0FFF1FE40FF51FE853FD4FCB
:100F1000908196FD17C02F5F3F4F2C30310571F740
:100F2000813009F097C01092800082E080938100A8
:100F30001092850010928400B19A80916F008260B7
:100F400080936F00E09165038E2F90E0FC01EE0F1F
:100F5000FF1FE80FF91FE853FD4F808180648083F5
:100F6000E0913B02F0913C0282E08083E091370205
:100F7000F09138021082E0913902F0913A028FEC40
:100F8000808310924302E0913F02F091400286E09C
:100F90008083E0913D02F0913E02808180618083F8
:100FA000E0913D02F0913E02808188608083E09173
:100FB0003D02F0913E02808180688083E0913D0295
:100FC000F0913E0280818F7D808370E060E08FE54C
:100FD00093E00E94C004A4EBCA2ED12CE12CF12C8A
:100FE000B8E88B2E912C18E5A12E12E0B12E8BE2E1
:100FF00092E00E94FD01181619060CF0C4C01A8276
:1010000019821C821B821E821D8270E060E0CE016C
:1010100001960E94C0040E94AF0197FD47C08F83D4
:1010200018860D811E810F5F1F4FB801CE010196FA
:101030000E949804882379F329813A818D819E81C9
:10104000BE01695F7F4F820F931F0E94280C1E8391
:101050000D83E1CF823061F4109290008093910073
:10106000109295001092940088BB809371006ACF13
:10107000833069F41092A00082E08093A100109266
:10108000A5001092A40089BB809372005BCF8111F0
:1010900059CF1092200182E0809321011092250106
:1010A000109224018ABB809373004CCF8091590326
:1010B00090915A03009709F4DCC069817A81611527
:1010C000710509F4D4C040915B0350915C032D81FC
:1010D0003E814217530708F4CAC00E94280C8D8134
:1010E0009E8190935E0380935D031E821D82CE01DC
:1010F00001960E9490048091590390915A030097A1
:1011000009F4CEC00E94660997FFCDC00E94670413
:101110000E9488040091590310915A0360E070E026
:10112000CB010115110519F0C8010E946609A7013C
:101130009601261B370B480B590BCA01B90122E057
:1011400030E040E050E00E94A20930932102209359
:1011500020020115110509F4AAC0C8010E94660900
:101160008B019C0166277727CB01601B710B820BDB
:10117000930B10161106120613060CF09BC00E946A
:1011800067040E948804A0912002B0912102A0323D
:1011900032E0B307B4F5809166039401281B31094E
:1011A00087FD3395220F331F220F331F2901330F81
:1011B00066087708809167039501281B310987FD30
:1011C0003395220F331F220F331F032E000C440BC5
:1011D000550B2419350946095709A53BB10514F0EB
:1011E000A4EBB0E0B7FF02C0B0E0A0E00E94CC09E1
:1011F000A70196010E94A209240D351D461D571D09
:10120000D90120916503203378F580916603A4010C
:10121000481B510987FD5395CA01880F991F880FF4
:10122000991FA817B90784F080916703A501481B8F
:10123000510987FD5395CA01880F991F880F991F7F
:10124000A817B9070CF4CD010297880F991F4FB763
:10125000F89430E0F901EE0FFF1FE20FF31FE8539F
:10126000FD4F928381834FBF0E94A202C0CE0E9495
:10127000B50A89819A8190935A03809359038B818F
:101280009C8190935C0380935B038D819E819093FE
:101290005E0380935D031A8219821C821B8225CF14
:1012A00060E070E0CB014AE00E94190431CF60E0B9
:1012B00070E0CB014AE00E94190463CF89E593E016
:1012C0000E9490048FE593E00C9490041F93FC011E
:1012D00099278827BC01E89411911032E9F319305D
:1012E00010F01E30C8F31B3251F01D3249F46894DF
:1012F00006C00E948D09610F711D811D911D119104
:1013000010531A30B0F33EF4909580957095619526
:101310007F4F8F4F9F4F1F910895592F482F372F81
:10132000262F660F771F881F991F660F771F881F4C
:10133000991F620F731F841F951F660F771F881FE9
:10134000991F0895052E97FB1EF400940E94B90979
:1013500057FD07D00E94D40907FC03D04EF40C942B
:10136000B90950954095309521953F4F4F4F5F4FAC
:10137000089590958095709561957F4F8F4F9F4F01
:1013800008950E94F609A59F900DB49F900DA49F0B
:10139000800D911D11240895B7FF0C94C1090E947E
:1013A000C109821B930B0895A1E21A2EAA1BBB1B35
:1013B000FD010DC0AA1FBB1FEE1FFF1FA217B30721
:1013C000E407F50720F0A21BB30BE40BF50B661F37
:1013D000771F881F991F1A9469F7609570958095FB
:1013E00090959B01AC01BD01CF010895A29FB00172
:1013F000B39FC001A39F700D811D1124911DB29F49
:10140000700D811D1124911D0895991B79E004C070
:10141000991F961708F0961B881F7A95C9F7809533
:101420000895EE0FFF1F881F8BBF0790F691E02DE8
:1014300019940F931F93CF93DF938230910510F48B
:1014400082E090E0E0916A03F0916B0330E020E0ED
:10145000B0E0A0E0309799F42115310509F44AC0B5
:10146000281B390B24303105D8F58A819B81611501
:10147000710589F1FB0193838283FE0111C04081D4
:1014800051810281138148175907E0F04817590725
:1014900099F4109761F012960C93129713961C937F
:1014A0003296CF01DF91CF911F910F910895009354
:1014B0006A0310936B03F4CF2115310551F04217E5
:1014C000530738F0A901DB019A01BD01DF01F801E2
:1014D000C1CFEF01F9CF90936B0380936A03CDCF17
:1014E000FE01E20FF31F819391932250310939835A
:1014F0002883D7CF2091680330916903232B41F4CF
:101500002091020230910302309369032093680313
:1015100020910002309101022115310541F42DB7CF
:101520003EB74091040250910502241B350BE09117
:101530006803F0916903E217F307A0F42E1B3F0B39
:101540002817390778F0AC014E5F5F4F2417350735
:1015500048F04E0F5F1F50936903409368038193D7
:1015600091939FCFF0E0E0E09CCFCF93DF93009783
:10157000E9F0FC01329713821282A0916A03B091C4
:101580006B03ED0130E020E01097A1F42081318160
:10159000820F931F20916803309169032817390740
:1015A00009F061C0F0936903E0936803DF91CF9184
:1015B0000895EA01CE17DF07E8F54A815B819E01B5
:1015C00041155105B1F7E901FB83EA83499159912E
:1015D000C40FD51FEC17FD0761F48081918102963D
:1015E000840F951FE90199838883828193819B836E
:1015F0008A83F0E0E0E012968D919C91139700971A
:10160000B9F52D913C911197CD010296820F931F50
:1016100020916803309169032817390739F630970C
:1016200051F510926B0310926A03B0936903A09373
:101630006803BCCFD383C28340815181840F951F3F
:10164000C817D90761F44E5F5F4F88819981480FB1
:10165000591F518340838A819B8193838283211503
:10166000310509F0B0CFF0936B03E0936A039ECF8E
:10167000FD01DC01C0CF13821282D7CF4F925F925F
:101680006F927F928F929F92AF92BF92CF92DF9292
:10169000EF92FF920F931F93CF93DF938C010097EC
:1016A00099F4CB01DF91CF911F910F91FF90EF90B3
:1016B000DF90CF90BF90AF909F908F907F906F9072
:1016C0005F904F900C94190AFC01E60FF71F9C01E4
:1016D00022503109E217F30708F4AEC0D901CD91C9
:1016E000DC911197C617D70720F1C530D10578F0E6
:1016F000CE0104978617970750F0C61BD70B229789
:10170000C193D1936D937C93CF010E94B50AC80118
:10171000DF91CF911F910F91FF90EF90DF90CF90CD
:10172000BF90AF909F908F907F906F905F904F9001
:1017300008955B01AC1ABD0A4C018C0E9D1EA09150
:101740006A03B0916B03512C412CF12CE12C1097C2
:1017500031F580916803909169038815990509F026
:101760005CC04616570608F058C080910002909160
:101770000102009741F48DB79EB740910402509149
:101780000502841B950BE817F90708F055C0F09384
:101790006903E0936803F90171836083B8CF8D9189
:1017A0009C91119712966C90129713967C901397B8
:1017B000A815B90559F56C0142E0C40ED11CCA1434
:1017C000DB0420F1AC014A195B09DA011296159786
:1017D00080F06282738251834083D9016D937C9340
:1017E000E114F10471F0D7011396FC93EE93129774
:1017F0008ECF22968C0F9D1FF90191838083F30178
:10180000EFCFF0936B03E0936A0381CF481659063C
:1018100008F42C017D01D3019ACFCB010E94190A53
:101820007C01009749F0AE01B8010E941F0CC8016D
:101830000E94B50A87016BCF10E000E068CFFB0182
:10184000DC0102C001900D9241505040D8F708953C
:10185000FB01DC0101900D920020E1F7089511E0F9
:10186000CAE2D1E000E006C0802FFE010E94110A0A
:101870002196011DCB32D10780E00807A9F7F89423
:02188000FFCF98
:1018820000006C0380000000000035025F018C0143
:0C1892008202FD019B01EF010D0A000025
:00000001FF
