:100000000C94C1010C94F2010C94F2010C94F201D5
:100010000C94F2010C94F2010C94F2010C94F20194
:100020000C94F2010C94F2010C94F2010C94F20184
:100030000C94F2010C94F2010C94F2010C94F20174
:100040000C94F2010C94C8090C94F2010C94F20186
:100050000C94F2010C94F2010C94F2010C94F4084B
:100060000C94F2010C94BE080C9494080C94F201C8
:100070000C94F2010C94F2010C94F2010C94F20134
:100080000C949A090C94F2010C94F2010C94F20174
:100090000C94F2010C94F2010C94F2010C94F20114
:1000A0000C94F2010C94F2010C946C090C94F20182
:1000B0000C94F2010C94F2010C94F2010C943E09A0
:1000C0000C94F2010C94F2010C94F2010C94F201E4
:1000D0000C94F2010C94F2010C94F2010C94F201D4
:1000E0000C94F2010C94E6030C9482050C94F10339
:1000F0000C9405040C9417040C94DA020C941C0460
:100100000C941D040C940F040C9483050C940904A6
:100110000C9401040C947F040C948A020C94A207A2
:100120000C94F6090C94B7020C9421040C94C602AA
:100130000C94DC030C94EA030C94E8020C946D0319
:100140000C94BF040C94380F0C944E040C942003B0
:100150000C94E2030C94FB030C94EE030C94130434
:100160000C94F70300407A10F35A00A0724E18095D
:100170000010A5D4E80000E87648170000E40B540E
:10018000020000CA9A3B000000E1F50500008096DD
:100190009800000040420F000000A086010000000F
:1001A000102700000000E8030000000064000000C9
:1001B00000000A00000000000100000000002C7692
:1001C000D888DC674F0823DFC1DFAE59E1B1B796AD
:1001D000E5E3E453C63AE651997696E8E6C284260A
:1001E000EB898C9B62ED407C6FFCEFBC9C9F40F2E6
:1001F000BAA56FA5F490055A2AF75C936B6CF96762
:100200006DC11BFCE0E40D47FEF520E6B500D0ED26
:10021000902E0300943577050080841E080000208E
:100220004E0A000000C80C333333330F986E12832C
:100230001141EF8D2114893BE65516CFFEE6DB1800
:10024000D1844B381BF77C1D901DA4BBE4242032C5
:1002500084725E228100C9F124ECA1E53D270000F3
:100260002100240027002A002D0030003300010166
:100270000000040107010A010000220025002800F7
:100280002B002E003100340002010000050108019E
:100290000B01000020002300260029002C002F0065
:1002A00032000001000003010601090105050505F2
:1002B000070508080808020202020A0A08080404DE
:1002C000040401010101010101010303030303030C
:1002D0000303040707070C0C0C0C0C0C0C0C02029B
:1002E000020206060606060606060B0B0B0B0B0B98
:1002F0000B0B010210202008081020401020408025
:1003000002010201080402010102040810204080D9
:100310008040201008040201800402018040201067
:1003200008040201080402010102040810204080B0
:10033000010204081020408000000A0B02090C0D85
:100340000E08070304010000000000000000000088
:10035000000000000000000000000000000000009D
:10036000000000001211100000000000000000005A
:100370000000000000000000000000000000F6097E
:10038000380F11241FBECFEFD1E2DEBFCDBF00E09A
:100390000CBF12E0A0E0B2E0EAE7FCE200E00BBF35
:1003A00002C007900D92AC3BB107D9F724E0ACEB4B
:1003B000B2E001C01D92A53BB207E1F711E0C0EC2D
:1003C000D1E000E006C021970109802FFE010E94C4
:1003D0000414CF3BD10780E00807A9F70E94FF0A69
:1003E0000C942B160C9400008F929F92AF92BF92A8
:1003F000FF920F931F93CF93DF93F09027042FE288
:100400002F1508F44CC02091290408E512E0021BC6
:10041000110927FD1395000F111F000F111F2091C7
:100420002804C8E8D0E0C21BD10927FDD395CC0F22
:10043000DD1FCC0FDD1F4E010D2E000CAA08BB08DE
:100440009801012E000C440B550B281939094A0953
:100450005B09DC010E94E01224EB30E040E050E058
:100460000E94B612820E931EA41EB51E8C169D0607
:100470002CF0E801801691060CF4E4012297CC0FD1
:10048000DD1F2FB7F8948F2D90E0FC01EE0FFF1FBA
:10049000E80FF91FE859FC4FD283C1832FBFDF91CA
:1004A000CF911F910F91FF90BF90AF909F908F9031
:1004B000089596E0899FD0011124AE5BBB4F9096C2
:1004C0007C936E935F9791E091969C939197E091C6
:1004D000AF04F091B0049091AE04992339F03097B5
:1004E00051F0811108C080915E041994309719F081
:1004F0005C968C91FACF0895DB0114964D915C9136
:1005000015976D917C91DC01ED91FC910280F38156
:10051000E02D1994AF92BF92CF92DF92EF92FF92AB
:100520000F931F93CF93DF936C017B018B01040F1B
:10053000151FEB015E01AE18BF08C017D10759F0B7
:100540006991D601ED91FC910190F081E02DC601F9
:100550001995892B79F7C501DF91CF911F910F91E3
:10056000FF90EF90DF90CF90BF90AF900895FC0187
:10057000538D448D252F30E0842F90E0821B930B08
:10058000541710F0CF96089501970895FC01918DAE
:10059000828D981761F0A28DAE0FBF2FB11D5D96B1
:1005A0008C91928D9F5F9F73928F90E008958FEF53
:1005B0009FEF0895FC01918D828D981731F0828D07
:1005C000E80FF11D858D90E008958FEF9FEF08955E
:1005D000FC01918D228D892F90E0805C9F4F821BC2
:1005E00091098F73992708958BEC92E00E94E8029D
:1005F00021E0892B09F420E0822F0895FC01A48DCD
:10060000A80FB92FB11DA35ABF4F2C91848D90E034
:1006100001968F739927848FA689B7892C93A08917
:10062000B1898C91837080648C93938D848D9813A1
:1006300006C00288F389E02D80818F7D8083089534
:10064000EF92FF920F931F93CF93DF93EC0181E022
:10065000888F9B8D8C8D98131AC0E889F9898081C9
:1006600085FF15C09FB7F894EE89FF896083E889FC
:10067000F98980818370806480839FBF81E090E0EE
:10068000DF91CF911F910F91FF90EF900895F62E7B
:100690000B8D10E00F5F1F4F0F731127E02E8C8D15
:1006A0008E110CC00FB607FCFACFE889F98980815A
:1006B00085FFF5CFCE010E94FE02F1CFEB8DEC0F4E
:1006C000FD2FF11DE35AFF4FF0829FB7F8940B8F77
:1006D000EA89FB8980818062CFCFCF93DF93EC01E1
:1006E000888D8823B9F0AA89BB89E889F9898C911A
:1006F00085FD03C0808186FD0DC00FB607FCF7CFD6
:100700008C9185FFF2CF808185FFEDCFCE010E94D5
:10071000FE02E9CFDF91CF91089580E090E0892B30
:1007200029F00E94F40281110E94000080E090E014
:10073000892B49F080E090E0892B29F00E9400008D
:1007400081110E94000080E090E0892B49F080E058
:1007500090E0892B29F00E94000081110E94000086
:1007600080E090E0892B49F080E090E0892B29F02F
:100770000E94000081110C94000008958150823184
:1007800008F05AC0E82FF0E08827E653FC4F8F4F5F
:100790000C940414EA03EE03DC03E203E6031C04F6
:1007A000F103F703FB030104050409040F04130418
:1007B0001C0417041D042104809180008F7780930E
:1007C00080000895809180008F7DF9CF8091800016
:1007D000877FF5CF84B58F7784BD089584B58F7DED
:1007E000FBCF8091B0008F778093B0000895809107
:1007F000B0008F7DF9CF809190008F77809390002B
:100800000895809190008F7DF9CF80919000877F2F
:10081000F5CF8091A0008F778093A00008958091FC
:10082000A0008F7DF9CF8091A000877FF5CF8091C8
:1008300020018F77809320010895809120018F7D82
:10084000F9CF80912001877FF5CFCF93DF93282FB9
:1008500030E0F901E85CFC4F8491F901EE50FD4F66
:10086000D491F901E455FD4FC491CC23A1F081113D
:100870000E94BE03EC2FF0E0EE0FFF1FEE56FD4F7F
:10088000A591B491EC91ED2381E090E009F480E032
:10089000DF91CF91089580E090E0FACF862F0C94FD
:1008A00025041F93CF93DF93282F30E0F901E85CF4
:1008B000FC4F8491F901EE50FD4FD491F901E455BC
:1008C000FD4FC491CC23A9F0162F81110E94BE03C5
:1008D000EC2FF0E0EE0FFF1FE858FD4FA591B4910B
:1008E0008FB7F894EC91111108C0D095DE23DC93FA
:1008F0008FBFDF91CF911F910895DE2BF8CF862F08
:10090000642F0C945104CF93DF9390E0FC01EE50E0
:10091000FD4F249184559D4FFC0184918823C9F09B
:1009200090E0880F991FFC01E25AFD4FA591B49108
:10093000FC01E858FD4FC591D49161110DC09FB7DE
:10094000F8948C91209582238C9388812823288386
:100950009FBFDF91CF910895623051F49FB7F89413
:100960003C91822F809583238C93E8812E2BEFCFAF
:100970008FB7F894EC912E2B2C938FBFEACF862F54
:10098000642F0C9483043FB7F8948091C502909132
:10099000C602A091C702B091C80226B5A89B05C0A7
:1009A0002F3F19F00196A11DB11D3FBFBA2FA92FEE
:1009B000982F8827BC01CD01620F711D811D911DEB
:1009C00042E0660F771F881F991F4A95D1F7089557
:1009D0008F929F92AF92BF92CF92DF92EF92FF924F
:1009E0004B015C010E94C3046B017C010E94C304A3
:1009F0006C197D098E099F09683E73408105910538
:100A0000A8F321E0821A9108A108B10888EEC80E67
:100A100083E0D81EE11CF11C81149104A104B104EF
:100A200029F7FF90EF90DF90CF90BF90AF909F900D
:100A30008F9008952FB7F8946091C1027091C2020F
:100A40008091C3029091C4022FBF08950F931F930A
:100A5000CF93DF93C82FD62F86E0C89FF0011124D3
:100A6000EE5BFB4F11A2878D90A181309105F1F0D3
:100A700058F082309105F1F1039709F440C0DF91FD
:100A8000CF911F910F9108956623C9F361E070E043
:100A90008C2F0E9459020E941A0560939A04709349
:100AA0009B0480939C0490939D04E9CF0E941A05B7
:100AB00000919A0410919B0420919C0430919D0414
:100AC000AB01BC01401B510B620B730B8091AC045A
:100AD0009091AD04B0E0A0E084179507A607B70792
:100AE00048F462E070E08C2FDF91CF911F910F915D
:100AF0000C94590263E070E0D111C1CFF4CF70E0E3
:100B000060E0F1CF089590E080E00895AF92BF9249
:100B1000CF92DF92EF92FF920F931F93CF93DF93C9
:100B20006B017A01EC01C454DD4F28813CE0389F11
:100B30008001399F100D1124A090F803B12C27FFDC
:100B40001FC0FB011182108288818F5F888388819A
:100B50009801280F311D87FD3A95F6012A153B05AE
:100B60001CF488818C30C4F180819181049680349A
:100B70009C4908F473C0F60180819181049670C08D
:100B800088819801280F311D87FD3A952A153B056C
:100B9000DCF68881A801480F511D87FD5A95FA019E
:100BA000EE0FFF1FE40FF51FE859FC4F808186FF11
:100BB000CBCF8881F801E80FF11D87FDFA95CF01B1
:100BC000EE0FFF1FE80FF91FE859FC4F808160E02E
:100BD0008F730E945104B8CF808191812881A80130
:100BE000420F511D27FD5A959A01FA01EE0FFF1F82
:100BF000E20FF31FE859FC4F21813281820F931FCE
:100C0000F7019183808388819801280F311D87FD2A
:100C10003A95F901EE0FFF1FE20FF31FE859FC4F61
:100C2000808186FF22C08881080F111D87FD1A95DB
:100C3000F801EE0FFF1FE00FF11FE859FC4F808114
:100C400061E08F73DF91CF911F910F91FF90EF9033
:100C5000DF90CF90BF90AF900C94510480E49CE95A
:100C6000F701918380838FEF8883DF91CF911F916C
:100C70000F91FF90EF90DF90CF90BF90AF900895CD
:100C800061E085E30E94510468EC70E080E090E050
:100C90000E94E80460E085E30C945104CF93DF9355
:100CA000EC0160E08E810E94510461E08E810E941F
:100CB000510460E08E810E9451048BE891E001971D
:100CC000F1F7DF91CF910895CF92DF92EF92FF92EB
:100CD0000F931F93CF93DF936C017C0187E0E80EA5
:100CE000F11CD0E0C0E0062F10E0B8010C2E02C0CD
:100CF000759567950A94E2F76170F70181917F011C
:100D00000E9451042196C430D10579F7C601DF91C4
:100D1000CF911F910F91FF90EF90DF90CF900C94A7
:100D20004E06CF92DF92EF92FF920F931F93CF93D5
:100D3000DF93EC01F62E642F8C810E9451048D818B
:100D40008F3F19F060E00E9451040F2D10E08F8555
:100D500084FF25C06E0187E0C80ED11CF12CE12C68
:100D6000B8010E2C02C0759567950A94E2F7617080
:100D7000F60181916F010E945104FFEFEF1AFF0A03
:100D800088E0E816F10461F7CE01DF91CF911F9161
:100D90000F91FF90EF90DF90CF900C944E06B8012A
:100DA00084E0759567958A95E1F7CE010E94640607
:100DB0006F2DCE01DF91CF911F910F91FF90EF909A
:100DC000DF90CF900C94640640E0682F8AE294E0B4
:100DD0000C94910681E00E94E4068BE39FE1019769
:100DE000F1F70895CF93DF93823029F4909139047D
:100DF00098609093390480933D0410923E0480E4FF
:100E000080933F0480E18093400480E58093410417
:100E100061E080912E040E94830480912F048F3F13
:100E200019F061E00E94830461E0809130040E9427
:100E30008304CAE2D4E09E012A52344080913904EE
:100E400084FD0BC084E090E021962817390744F414
:100E500061E08E810E948304EECF88E090E0F4CFC1
:100E60008BE39DE00197F1F760E080912E040E94F2
:100E7000510460E0809130040E94510480912F045D
:100E80008F3F19F060E00E9451048091390484FD85
:100E900034C063E08AE294E00E946406CBE4D6E4C6
:100EA000CE010197F1F763E08AE294E00E946406C4
:100EB0002197F1F763E08AE294E00E94640683E5FB
:100EC00092E00197F1F762E08AE294E00E94640602
:100ED0008091390480620E94E40684E080933A04A1
:100EE0008CE00E94E4060E94EA0682E080933B04C4
:100EF00086E0DF91CF910C94E40680620E94E406C4
:100F00008BE496E40197F1F78091390480620E94A6
:100F1000E40683E592E00197F1F78091390480625D
:100F20000E94E406D5CF90913D04691710F06FEF51
:100F3000690FE62FF0E0E65DFB4F9489890F80682A
:100F40000C94E40641E00E94910681E090E008954F
:100F5000FB0101900020E9F73197AF01461B570BC9
:100F6000DC01ED91FC910280F381E02D1994CF9387
:100F7000DF93BC018BEC92E00E94A807EC0168E4CF
:100F800072E08BEC92E00E94A8078C0F9D1FDF910E
:100F9000CF9108950F931F93CF93DF93EC01888136
:100FA0009981009759F02A813B812617370730F045
:100FB00081E0DF91CF911F910F9108958B016F5FB9
:100FC0007F4F0E943115009759F0998388831B83C6
:100FD0000A832C813D81232B59F7FC011082E8CF35
:100FE00080E0E7CFEF92FF920F931F93CF93DF93B1
:100FF0006115710541F480E0DF91CF911F910F9150
:10100000FF90EF90089541155105B1F07B01EC017F
:101010000C811D81040F151FB8010E94CA07882387
:1010200051F3288139818C819D81B701820F931FF3
:101030000E9424161D830C8381E0DECFCF93DF93C3
:10104000EC0188819981009711F00E94A8141982FF
:1010500018821D821C821B821A82DF91CF91089513
:10106000EF92FF920F931F93CF93DF93EC017B01DD
:101070008A01BA010E94CA0781110BC0CE010E94E9
:101080001E08CE01DF91CF911F910F91FF90EF903D
:1010900008951D830C83B701888199810E942416CD
:1010A000F0CFFC0111821082138212821582148209
:1010B000FB0101900020E9F73197AF01461B570B68
:1010C0000C9430080E94EA0660E080E00E949307DA
:1010D0006091CA0286E0689FB0011124675F7B4F70
:1010E0008AE294E00E947C0250E040E06AE472E010
:1010F00083E094E00C94300890E080E00E94F401DA
:1011000060E082E30E9451041092C9021092CA0268
:101110000E9462080C944006FC0180819181009736
:1011200011F00C94A81408951F920F920FB60F920D
:1011300011240BB60F922F933F934F935F936F93AE
:101140007F938F939F93AF93BF93EF93FF938BEC1A
:1011500092E00E94FE02FF91EF91BF91AF919F91AB
:101160008F917F916F915F914F913F912F910F9050
:101170000BBE0F900FBE0F901F9018951F920F92ED
:101180000FB60F9211240BB60F922F938F939F934C
:10119000EF93FF93E091DB02F091DC028081E0911C
:1011A000E102F091E20282FD1DC090818091E40293
:1011B0008F5F8F732091E502821741F0E091E40286
:1011C000F0E0E553FD4F958F8093E402FF91EF919E
:1011D0009F918F912F910F900BBE0F900FBE0F908C
:1011E0001F9018958081F2CF1F920F920FB60F9229
:1011F00011242F933F938F939F93AF93BF9380912D
:10120000C1029091C202A091C302B091C402309178
:10121000C00223E0230F2D3758F50196A11DB11D03
:101220002093C0028093C1029093C202A093C30294
:10123000B093C4028091C5029091C602A091C702EA
:10124000B091C8020196A11DB11D8093C502909373
:10125000C602A093C702B093C802BF91AF919F91FD
:101260008F913F912F910F900FBE0F901F90189567
:1012700026E8230F0296A11DB11DD2CF1F920F9217
:101280000FB60F9211240BB60F922F933F934F93EB
:101290005F936F937F938F939F93AF93BF93EF93DE
:1012A000FF9348E251E064E271E090E080E00E9448
:1012B0008605FF91EF91BF91AF919F918F917F91A3
:1012C0006F915F914F913F912F910F900BBE0F90B7
:1012D0000FBE0F901F9018951F920F920FB60F928E
:1012E00011240BB60F922F933F934F935F936F93FD
:1012F0007F938F939F93AF93BF93EF93FF9348EAAE
:1013000050E064EA70E083E090E00E948605FF917F
:10131000EF91BF91AF919F918F917F916F915F916D
:101320004F913F912F910F900BBE0F900FBE0F90DA
:101330001F9018951F920F920FB60F9211240BB6A3
:101340000F922F933F934F935F936F937F938F935E
:101350009F93AF93BF93EF93FF9348E950E064E905
:1013600070E082E090E00E948605FF91EF91BF91CE
:10137000AF919F918F917F916F915F914F913F912D
:101380002F910F900BBE0F900FBE0F901F901895CE
:101390001F920F920FB60F9211240BB60F922F933C
:1013A0003F934F935F936F937F938F939F93AF93ED
:1013B000BF93EF93FF9348E850E064E870E081E06A
:1013C00090E00E948605FF91EF91BF91AF919F91B0
:1013D0008F917F916F915F914F913F912F910F90DE
:1013E0000BBE0F900FBE0F901F901895CF931092C9
:1013F000CE021092CD0288EE93E0A0E0B0E08093A0
:10140000CF029093D002A093D102B093D20284E293
:1014100092E09093CC028093CB0285EC90E0909385
:10142000D8028093D70284EC90E09093DA02809304
:10143000D90280EC90E09093DC028093DB0281EC97
:1014400090E09093DE028093DD0282EC90E0909336
:10145000E0028093DF0286EC90E09093E2028093BA
:10146000E1021092E4021092E5021092E60210925C
:10147000E70210924404109248041092470410921C
:10148000490482E492E09093430480934204EEE5A1
:10149000F4E01082148213821582369684E0EA39D1
:1014A000F807B9F786E092E09093A5048093A4042E
:1014B00082E092E09093A7048093A60484E0809356
:1014C000A8048093A9048AE092E09093A3048093F7
:1014D000A2048AE090E09093AB048093AA0484EF86
:1014E00091E09093AD048093AC041092B0041092FC
:1014F000AF0410929E0410929F041092A0041092C8
:10150000A1041092AE0410922D0410922C0486E3D4
:1015100092E090932B0480932A048DE080932E0414
:10152000CFEFC0932F048CE08093300488E0809349
:10153000310489E0809332048AE0809333048BE0A5
:1015400080933404109235041092360410923704BC
:10155000109238041092390481E00E94F2068091C2
:10156000F803803308F048C091E0980F9093F80397
:101570008093270490E0FC01EE0FFF1FE80FF91F96
:10158000E859FC4F88EB9BE09283818367E572E02A
:1015900089E094E00E9451086BE472E08FE094E0EF
:1015A0000E94510865E572E085E194E00E945108CF
:1015B0006EE572E08BE194E00E94510867E672E00C
:1015C00081E294E00E9451086AE472E083E094E0D2
:1015D0000E94510861E772E08DEF93E00E9451088C
:1015E0000E941A056093F9037093FA038093FB033A
:1015F0009093FC03CF910895C0932704C7CFCF9356
:10160000DF93CDB7DEB7A7970FB6F894DEBF0FBE56
:10161000CDBF789484B5826084BD84B5816084BD7B
:1016200085B5826085BD85B5816085BD80916E0080
:10163000816080936E0010928100809181008260B1
:1016400080938100809181008160809381008091EE
:1016500080008160809380008091B10084608093DD
:10166000B1008091B00081608093B00080919100C2
:1016700082608093910080919100816080939100BD
:10168000809190008160809390008091A1008260A1
:101690008093A1008091A10081608093A10080913E
:1016A000A00081608093A0008091210182608093DE
:1016B000210180912101816080932101809120018D
:1016C00081608093200180917A00846080937A0009
:1016D00080917A00826080937A0080917A008160A4
:1016E00080937A0080917A00806880937A001092CB
:1016F000C100E091DB02F091DC0282E08083E091A6
:10170000D702F091D8021082E091D902F091DA026A
:101710008FEC80831092E302E091DF02F091E0020F
:1017200086E08083E091DD02F091DE0280818061BD
:101730008083E091DD02F091DE0280818860808309
:10174000E091DD02F091DE02808180688083E0918B
:10175000DD02F091DE0280818F7D808380912704FD
:10176000803308F052C061E087E00E9483048091DA
:101770002704282F30E0F901EE0FFF1FE20FF31FBF
:10178000E859FC4F9081907C9760908310922804D8
:10179000109229042CE0622F0E94F813829FB0015E
:1017A000112430E020E0AB01420F531FFA01EE0F8D
:1017B000FF1FE40FF51FE859FC4F908196FD17C0FD
:1017C0002F5F3F4F2C30310571F7813009F02BC16D
:1017D0001092800082E08093810010928500109228
:1017E0008400B19A80916F00826080936F00E091D5
:1017F00027048E2F90E0FC01EE0FFF1FE80FF91F6A
:10180000E859FC4F80818064808390E080E00E94F2
:10181000F40182E00E94F2060E94EA0660E080E0A5
:101820000E94930766E772E08AE294E00E94A807AC
:1018300086E792E00E94B7071092CA020E946208EF
:101840000E94EA0660E080E00E9493076091CA026D
:1018500016E0619FB0011124675F7B4F8AE294E03C
:101860000E947C026091CA02619FB0011124675FEF
:101870007B4F8BEC92E00E947C0268E472E08BEC80
:1018800092E00E94A80761E082E30E94830461E085
:1018900085E30E948304412C512C320143948091B2
:1018A000C9028823C9F10E941A056B017C0160916D
:1018B000000270910102072E000C880B990B0E9408
:1018C00006124B015C018091F9039091FA03A091FB
:1018D000FB03B091FC03A7019601281B390B4A0BAF
:1018E0005B0BCA01B9010E94061220E030E04AE712
:1018F00054E40E9486139B01AC01C501B4010E940F
:1019000019136B017C0120E030E0A9010E94FF1156
:1019100018162CF00E947C08C12CD12C760161E0B5
:1019200080E00E9493071BA21AA21DA21CA21FA264
:101930001EA28E010F5F1F4F22E044E0C701B601D7
:101940000E94540F009709F49AC0FC0101900020F6
:10195000E9F73197AF01481B590BBC01CE018296C4
:101960000E94300861E872E0CE0101960E945108A1
:101970004EA15FA16AA17BA1CE0101960E94F20750
:10198000811104C0CE0101960E941E0842E050E081
:1019900069E872E0CE0101960E94F207811104C04D
:1019A000CE0101960E941E08BE016F5F7F4F8AE242
:1019B00094E00E947C02CE0101960E948C08CE0128
:1019C00082960E948C0881E08093AE040E941A05E2
:1019D00000919E0410919F042091A0043091A104D5
:1019E000AB01BC01401B510B620B730B8091AA042D
:1019F0009091AB04B0E0A0E084179507A607B70765
:101A000008F046C110E08091A8041817E8F5E091AD
:101A1000A404F091A504E10FF11D62E080810E9411
:101A200083041F5FF0CF823061F4109290008093A6
:101A30009100109295001092940088BB80937100E1
:101A4000D6CE833069F41092A00082E08093A1008A
:101A50001092A5001092A40089BB80937200C7CE9B
:101A60008111C5CE1092200182E080932101109255
:101A70002501109224018ABB80937300B8CECE0159
:101A800082960E941E086ECF312C8091A9043816D0
:101A900008F061C0E32CF12CE091A604F091A704BA
:101AA000EE0DFF1D61E080810E948304E091A60499
:101AB000F091A704EE0DFF1D60E080810E945104AB
:101AC000D301C201032C04C0880F991FAA1FBB1F9A
:101AD0000A94D2F75C016C01C094D094212C8091BF
:101AE000A804281608F5022D10E0E091A404F09156
:101AF000A504E00FF11F80810E9425040C5F1F4F99
:101B0000000F111FF801EE5BFB4F892B41F4808120
:101B100091818A299B29918380832394E0CF8081BE
:101B200091818C219D21F7CFE091A604F091A7042B
:101B3000EE0DFF1D61E080810E9451048091A6049A
:101B40009091A704E80EF91E60E0F70180810E94E1
:101B5000830433949ACF92E4E92E94E0F92E67013E
:101B6000F601878D90A1892B31F4148E2FEF3FEF72
:101B7000368F258F11A236E0C30ED11C4EE7C41656
:101B800044E0D40669F7B12C8091A804B81608F097
:101B900051C0A12C0B2D10E0000F111F065B1B4F35
:101BA0002091A904A21608F043C0F8016081718158
:101BB0000A2C02C0769567950A94E2F7B29E9001CE
:101BC00011242A0D311DE2E4F4E080E0458D568DAC
:101BD0002417350709F410C18F5F36968A30B1F7A4
:101BE00060FF24C0E2E4F4E090E080E0448D411125
:101BF00018C0E091A204F091A304E20FF31F40810A
:101C000056E0589FF001599FF00D1124EE5BFB4FF9
:101C1000448F368F258F10A2178E61E00E94260513
:101C200005C0019636968A30910501F7A394B8CF86
:101C3000B394AACF10E0F70181A18111182FF6E02B
:101C4000EF0EF11CCE14DF04B1F70E941A05609369
:101C50009E0470939F048093A0049093A104112389
:101C6000B9F080916304882399F080916104909188
:101C70006204019769F410915E0411110CC064E1D3
:101C800070E080E090E00E94E8040E948D0307CE9F
:101C90001092AE04F4CFE091CA0226E0E29FF00178
:101CA0001124E75FFB4F94818091070460E0890F66
:101CB0000E94930741E0612F8AE294E00E9491061E
:101CC000612F8BEC92E00E94200368E472E08BECC1
:101CD00092E00E94A8071D3309F067C08091C902F5
:101CE000811133C060E00E94930740910704509136
:101CF0000804209101043091020442175307C1F4F3
:101D000080910304909104046091FD037091FE039F
:101D1000009709F473C06115710539F4452B09F476
:101D20007BC0FC01808190E074C00E941B1671C0D2
:101D30001092CA026DE972E08AE294E00E94A8075C
:101D40008CEA92E00E94B7078AC08091CA02823072
:101D5000C1F460910304709104046115710561F090
:101D600040910704509108048DEF93E00E943008E1
:101D700081E08093CA0279C08DEF93E00E941E0833
:101D8000F7CF833009F071C080910304909104046F
:101D9000009739F00E94720F709301026093000265
:101DA000E7CF60E070E0CB01F7CF1A3231F48091D9
:101DB000C9028823A9F082E0DCCF1D3241F4809172
:101DC000C902882369F0F3E0F093CA024EC01F36BF
:101DD00039F48091C902882319F00E947C084FCF02
:101DE00019831A8241E050E0BE016F5F7F4F83E0AC
:101DF00094E00E94F20743CF617010CF6115710526
:101E000059F0232B49F0FB01808190E09195819559
:101E10009109892B09F08CCF6CE872E08AE294E09A
:101E20000E94A8078CE892E00E94B70711E0109387
:101E3000CA020E941A056093F9037093FA03809313
:101E4000FB039093FC031093C90261E082E30E94BC
:101E500051040E94400684EB90E00E94F40162E38A
:101E600070E080E090E00E94E8040E94620807CFE2
:101E70008DEF93E00E948C0883E094E00E948C0830
:101E800081E294E00E948C088BE194E00E948C082F
:101E900085E194E00E948C088FE094E00E948C0819
:101EA00089E094E00C948C08EF920F931F93CF93EA
:101EB000DF93E80134E047FD34E1042E000C550BBC
:101EC00057FF03C0519541955109E32E022F242F4E
:101ED000AE010E94AE0FCE01DF91CF911F910F9105
:101EE000EF9008951F93FC0199278827BC01E8947F
:101EF00011911032E9F3193010F01E30C8F31B3283
:101F000051F01D3249F4689406C00E94990F610F88
:101F1000711D811D911D119110531A30B0F33EF4C3
:101F200090958095709561957F4F8F4F9F4F1F9132
:101F30000895592F482F372F262F660F771F881F98
:101F4000991F660F771F881F991F620F731F841FC9
:101F5000951F660F771F881F991F08958F929F9274
:101F6000AF92BF92CF92DF92EF92FF920F931F93A7
:101F7000CF93DF9300D000D000D0CDB7DEB76A0199
:101F8000F22EB02E102FFBE3AF2EA01608F41BE3A9
:101F90001F5F012F27E0AE014F5F5F4F0E942711A7
:101FA000BC018981982F9970913009F44EC09BE251
:101FB000E1FC04C09E2D9170E0FC49C05E2D507183
:101FC000E82FE87083FF55C084E0911101C083E0E1
:101FD000EF2DE81B8F1508F0E0E0D6018E2F20E2F0
:101FE0005523C9F1992329F0D6019C93C601019686
:101FF0006C0196012D5F3F4FE2FE33C08EE4D601A7
:102000008C9391E411969C93119712968C93D9011D
:102010008E2F90E281112AC0E20FF32FF11D108262
:102020008EEF9FEF29960FB6F894DEBF0FBECDBF9F
:10203000DF91CF911F910F91FF90EF90DF90CF90A4
:10204000BF90AF909F908F9008959DE2B7CF90E2A0
:10205000B5CF2D9381508111FCCFCE0ED11CE0E085
:10206000C1CF8EE6D6018C9391E6CCCF9D93815063
:10207000D1CF482F447082FF3DC084E0911101C050
:1020800083E08F1510F4EF2DE81BD6018E2F20E290
:10209000552309F1992329F0D6019C93C601019695
:1020A0006C0196012D5F3F4FE2FE1BC089E4D60113
:1020B0008C938EE411968C93119786E412968C93F0
:1020C000D9018E2F90E2882309F4A6CF9D938150E9
:1020D000FACF2D9381508111FCCFCE0ED11CE0E0C0
:1020E000D9CF89E6D6018C938EE611968C93119701
:1020F00086E6E4CF9B0177FF02C030E020E0A1E05C
:10210000B0E0911102C0B0E0A0E0F9013196AE0F4D
:10211000BF1F8B2C912CBB2009F461C05401EFEF41
:10212000AE1ABE0AAA0DBB1DFA161B0619F014F052
:102130004F2D4A1B511188C0E3FC59C07601A42FD2
:10214000B0E2A1114FC0C40ED11C992309F45BC0A9
:1021500040E0D6011196F60190836D01552309F4F4
:1021600048C0012F060F9A81582F507184FF03C079
:10217000913309F4015010160CF047C0093008F0F3
:1021800008E0EEE2FE2E5B01A01AB10885019194F1
:10219000819491082F3F320729F4D601FC92F60171
:1021A00031966F016217730794F1021713077CF5DC
:1021B000DB01A21BB30BAA24A394B12CAC0EBD1E51
:1021C000AA0DBB1D11968C9121503109D601119693
:1021D00028153905F4F0F60180836D01DBCFB12CB1
:1021E000A12CA0CFF701B1937F01A150AACF9111EB
:1021F000B0CFD601942F50E302C05D93915091115E
:10220000FCCFC40ED11C40E0ACCF01E0BACF80E3DC
:10221000DBCF6217730731F4963388F4953311F4EA
:10222000552369F0F6018083FD01842F90E281112E
:1022300008C0A40FB11D1C9290E080E0F3CE81E3B2
:10224000F1CF91938150F3CF911183CF8ACF283072
:1022500008F027E03327DA01990F311D87FD9160DF
:1022600000966105710539F432602E5F3D9330E3CD
:102270002A95E1F708959F3F30F080387105610598
:1022800009F03C5F3C5F3D93913008F08068911D00
:10229000DF93CF931F930F93FF92EF92192F987FA5
:1022A0009695E92F96959695E90FFF27E254FE4FF4
:1022B00099273327EE24FF24A701E701059008940E
:1022C000079428F4360FE71EF81E491F511D660FAC
:1022D000771F881F991F0694A1F70590079428F48B
:1022E000E70EF81E491F561FC11D770F881F991F43
:1022F000661F0694A1F70590079428F4F80E491F6D
:10230000561FC71FD11D880F991F661F771F069480
:10231000A1F70590079420F4490F561FC71FD81F37
:10232000990F661F771F881F0694A9F7849110954F
:10233000177041F0D695C79557954795F794E79450
:102340001A95C1F7E4E6F1E068941590159135917E
:102350006591959105907FE27395E118F10A430B21
:10236000560BC90BD009C0F7E10CF11E431F561FD5
:10237000C91FD01D7EF4703311F48A95E6CFE8941E
:10238000015030F0080F0AF40027021708F4202F3C
:102390002395022F7A3328F079E37D932A95E9F784
:1023A00010C07D932A9589F6069497956795379581
:1023B00017951794E118F10A430B560BC90BD00976
:1023C00098F023957E9173957A3308F070E37C93AF
:1023D0002013B8F77E9170617D9330F0839571E39F
:1023E0007D9370E32A95E1F71124EF90FF900F9110
:1023F0001F91CF91DF91992787FD909508950E94B5
:10240000411208F481E00895E89409C097FB3EF476
:1024100090958095709561957F4F8F4F9F4F992331
:10242000A9F0F92F96E9BB279395F69587957795AF
:102430006795B795F111F8CFFAF4BB0F11F460FF6F
:102440001BC06F5F7F4F8F4F9F4F16C0882311F0C7
:1024500096E911C0772321F09EE8872F762F05C0DB
:10246000662371F096E8862F70E060E02AF09A9576
:10247000660F771F881FDAF7880F9695879597F96B
:102480000895990F0008550FAA0BE0E8FEEF161605
:102490001706E807F907C0F012161306E407F50758
:1024A00098F0621B730B840B950B39F40A2661F0CC
:1024B000232B242B252B21F408950A2609F4A1406F
:1024C000A6958FEF811D811D089597F99F6780E87C
:1024D00070E060E008959FEF80EC089500240A9476
:1024E0001616170618060906089500240A941216EF
:1024F0001306140605060895092E0394000C11F422
:10250000882352F0BB0F40F4BF2B11F460FF04C0CE
:102510006F5F7F4F8F4F9F4F089557FD9058440F27
:10252000551F59F05F3F71F04795880F97FB991F32
:1025300061F09F3F79F087950895121613061406EF
:10254000551FF2CF4695F1DF08C01616170618067C
:10255000991FF1CF86957105610508940895E89457
:10256000BB2766277727CB0197F90895052E97FBA0
:102570001EF400940E94CD1257FD07D00E94E8126D
:1025800007FC03D04EF40C94CD1250954095309535
:1025900021953F4F4F4F5F4F0895909580957095CF
:1025A00061957F4F8F4F9F4F08950E940A13A59FFB
:1025B000900DB49F900DA49F800D911D112408953E
:1025C000B7FF0C94D5120E94D512821B930B08956D
:1025D000A1E21A2EAA1BBB1BFD010DC0AA1FBB1F27
:1025E000EE1FFF1FA217B307E407F50720F0A21B99
:1025F000B30BE40BF50B661F771F881F991F1A9406
:1026000069F760957095809590959B01AC01BD012F
:10261000CF010895A29FB001B39FC001A39F700D89
:10262000811D1124911DB29F700D811D1124911DDA
:1026300008955058BB27AA270E9431130C947C128E
:102640000E946E1238F00E94751220F039F49F3FFC
:1026500019F426F40C946B120EF4E095E7FB0C943D
:102660006512E92F0E948D1258F3BA17620773079B
:102670008407950720F079F4A6F50C94AF120EF4B8
:10268000E0950B2EBA2FA02D0B01B90190010C0182
:10269000CA01A0011124FF27591B99F0593F50F49A
:1026A000503E68F11A16F040A22F232F342F4427F2
:1026B000585FF3CF469537952795A795F0405395EA
:1026C000C9F77EF41F16BA0B620B730B840BBAF0BA
:1026D0009150A1F0FF0FBB1F661F771F881FC2F725
:1026E0000EC0BA0F621F731F841F48F48795779539
:1026F0006795B795F7959E3F08F0B0CF9395880FF3
:1027000008F09927EE0F9795879508950E949A13E0
:102710000C947C120E94751258F00E946E1240F0C8
:1027200029F45F3F29F00C94651251110C94B012FA
:102730000C946B120E948D1268F39923B1F3552308
:1027400091F3951B550BBB27AA27621773078407C4
:1027500038F09F5F5F4F220F331F441FAA1FA9F35A
:1027600035D00E2E3AF0E0E832D091505040E69548
:10277000001CCAF72BD0FE2F29D0660F771F881FA9
:10278000BB1F261737074807AB07B0E809F0BB0B9C
:10279000802DBF01FF2793585F4F3AF09E3F5105B0
:1027A00078F00C9465120C94B0125F3FE4F3983EFD
:1027B000D4F3869577956795B795F7959F5FC9F799
:1027C000880F911D9695879597F90895E1E0660F1A
:1027D000771F881FBB1F621773078407BA0720F093
:1027E000621B730B840BBA0BEE1F88F7E0950895FC
:1027F000991B79E004C0991F961708F0961B881F53
:102800007A95C9F780950895EE0FFF1F881F8BBF3B
:102810000790F691E02D19940F931F93CF93DF93B8
:102820008230910510F482E090E0E091B304F091E1
:10283000B40430E020E0B0E0A0E0309799F4211536
:10284000310509F44AC0281B390B24303105D8F56D
:102850008A819B816115710589F1FB0193838283D4
:10286000FE0111C04081518102811381481759072F
:10287000E0F04817590799F4109761F012960C93FD
:10288000129713961C933296CF01DF91CF911F912F
:102890000F9108950093B3041093B404F4CF21155D
:1028A000310551F04217530738F0A901DB019A01B5
:1028B000BD01DF01F801C1CFEF01F9CF9093B4045E
:1028C0008093B304CDCFFE01E20FF31F8193919368
:1028D0002250310939832883D7CF2091B104309118
:1028E000B204232B41F420911C0230911D0230933D
:1028F000B2042093B10420911A0230911B022115D9
:10290000310541F42DB73EB740911E0250911F0290
:10291000241B350BE091B104F091B204E217F307E8
:10292000A0F42E1B3F0B2817390778F0AC014E5F3F
:102930005F4F2417350748F04E0F5F1F5093B204C6
:102940004093B104819391939FCFF0E0E0E09CCF5E
:10295000CF93DF930097E9F0FC0132971382128244
:10296000A091B304B091B404ED0130E020E01097E1
:10297000A1F420813181820F931F2091B104309105
:10298000B2042817390709F061C0F093B204E0934C
:10299000B104DF91CF910895EA01CE17DF07E8F582
:1029A0004A815B819E0141155105B1F7E901FB8325
:1029B000EA8349915991C40FD51FEC17FD0761F4C3
:1029C000808191810296840F951FE9019983888304
:1029D000828193819B838A83F0E0E0E012968D915F
:1029E0009C9113970097B9F52D913C911197CD01CA
:1029F0000296820F931F2091B1043091B2042817E0
:102A0000390739F6309751F51092B4041092B30497
:102A1000B093B204A093B104BCCFD383C2834081EE
:102A20005181840F951FC817D90761F44E5F5F4F1E
:102A300088819981480F591F518340838A819B81E6
:102A4000938382832115310509F0B0CFF093B4044C
:102A5000E093B3049ECFFD01DC01C0CF138212824C
:102A6000D7CF4F925F926F927F928F929F92AF9249
:102A7000BF92CF92DF92EF92FF920F931F93CF936B
:102A8000DF938C01009799F4CB01DF91CF911F91D7
:102A90000F91FF90EF90DF90CF90BF90AF909F90FD
:102AA0008F907F906F905F904F900C940C14FC016E
:102AB000E60FF71F9C0122503109E217F30708F4D3
:102AC000AEC0D901CD91DC911197C617D70720F17F
:102AD000C530D10578F0CE0104978617970750F0DE
:102AE000C61BD70B2297C193D1936D937C93CF01D3
:102AF0000E94A814C801DF91CF911F910F91FF9000
:102B0000EF90DF90CF90BF90AF909F908F907F908D
:102B10006F905F904F9008955B01AC1ABD0A4C0115
:102B20008C0E9D1EA091B304B091B404512C412C85
:102B3000F12CE12C109731F58091B1049091B20401
:102B40008815990509F05CC04616570608F058C06C
:102B500080911A0290911B02009741F48DB79EB7A5
:102B600040911E0250911F02841B950BE817F90734
:102B700008F055C0F093B204E093B104F9017183F9
:102B80006083B8CF8D919C91119712966C9012979B
:102B900013967C901397A815B90559F56C0142E07E
:102BA000C40ED11CCA14DB0420F1AC014A195B0924
:102BB000DA011296159780F0628273825183408306
:102BC000D9016D937C93E114F10471F0D701139650
:102BD000FC93EE9312978ECF22968C0F9D1FF901D6
:102BE00091838083F301EFCFF093B404E093B304B7
:102BF00081CF4816590608F42C017D01D3019ACFE4
:102C0000CB010E940C147C01009749F0AE01B80181
:102C10000E941216C8010E94A81487016BCF10E011
:102C200000E068CFFB01DC0102C001900D92415031
:102C30005040D8F70895FB01DC018D910190801977
:102C40000110D9F3990B0895FB01DC0101900D925D
:102C50000020E1F7089511E0C0ECD1E000E006C0EB
:102C6000802FFE010E9404142196011DC13CD10752
:0A2C700080E00807A9F7F894FFCFF1
:102C7A000A0017191B1D1F2123253738392F343510
:102C8A00362A3132332D6F303D2B0000B5048000D7
:102C9A000000000020038A02B7026D03E802C602A0
:102CAA00DA0200000000A2078A02830582050000FA
:102CBA000000BF047F044E040D0A00446F6F7220A7
:102CCA004F70656E004368506173733A2000436821
:102CDA0054696D653A200075736572204D6F64659D
:102CEA0000313233340061646D696E206D6F646542
:102CFA000054696D65723A2000202000436F727299
:102D0A006563742070617373776F72640057726FB2
:102D1A006E672070617373776F72640077726F6E7B
:0C2D2A00672070617373776F72640000A3
:00000001FF
