:100000000C942B010C945C010C945C010C945C012D
:100010000C945C010C945C010C945C010C945C01EC
:100020000C945C010C945C010C945C010C945C01DC
:100030000C945C010C945C010C945C010C945C01CC
:100040000C945C010C947E050C945C010C945C0196
:100050000C945C010C945C010C945C010C94AA045B
:100060000C945C010C9474040C944A040C945C0190
:100070000C945C010C945C010C945C010C945C018C
:100080000C9450050C945C010C945C010C945C0184
:100090000C945C010C945C010C945C010C945C016C
:1000A0000C945C010C945C010C9422050C945C0192
:1000B0000C945C010C945C010C945C010C94F404B1
:1000C0000C945C010C945C010C945C010C945C013C
:1000D0000C945C010C945C010C945C010C945C012C
:1000E0000C945C010C94E8020C9427080C94060311
:1000F0000C94EE020C9441020C94AE010C940A0391
:100100000C94D9020C94BC010C94C7020C945E01AF
:100110000C94F4010C948B010C9418030C94AC0512
:100120000C9400030C94E1020C94C2020C9414038E
:100130000C949A010C94F8020C94DD020C94F202D7
:100140000C940E030C94FC020C94E50200000A0BC4
:1001500002090C0D0E080703040100000000000056
:10016000000000000000000000000000000000008F
:10017000000000000000000012111000000000004C
:10018000000000000000000000000000000000006F
:10019000000000002200250028002B002E00310066
:1001A000340002010000050108010B0100002100DC
:1001B000240027002A002D00300033000101000038
:1001C000040107010A0105050505070508080808D7
:1001D000020202020A0A08080404040401010101DF
:1001E00001010101030303030303030304070707DA
:1001F0000C0C0C0C0C0C0C0C02020202060606067F
:10020000060606060B0B0B0B0B0B0B0B010210204B
:10021000200808102040102040800201020108043C
:1002200002010102040810204080804020100804D0
:100230000201800402018040201008040201080429
:10024000020101020408102040800102040810206D
:100250004080AC05270811241FBECFEFD1E2DEBFDE
:10026000CDBF00E00CBF12E0A0E0B2E0EEE9F5E1A6
:1002700000E00BBF02C007900D92AC31B107D9F777
:1002800023E0ACE1B2E001C01D92A636B207E1F76F
:1002900011E0CAE2D1E000E006C021970109802FF9
:1002A000FE010E949F08C932D10780E00807A9F724
:1002B0000E9418060C94BD0A0C940000AF92BF92E5
:1002C000CF92DF92EF92FF920F931F93CF93DF9322
:1002D0006C017B018B01040F151FEB015E01AE1851
:1002E000BF08C017D10759F06991D601ED91FC9173
:1002F0000190F081E02DC6011995892B79F7C50190
:10030000DF91CF911F910F91FF90EF90DF90CF90F1
:10031000BF90AF900895FC01538D448D252F30E0A0
:10032000842F90E0821B930B541710F0CF96089502
:1003300001970895FC01918D828D981761F0A28D2F
:10034000AE0FBF2FB11D5D968C91928D9F5F9F73F5
:10035000928F90E008958FEF9FEF0895FC01918DAB
:10036000828D981731F0828DE80FF11D858D90E018
:1003700008958FEF9FEF0895FC01918D228D892FB5
:1003800090E0805C9F4F821B91098F73992708959D
:100390008BE292E00E94BC0121E0892B09F420E06D
:1003A000822F0895FC01A48DA80FB92FB11DA35A67
:1003B000BF4F2C91848D90E001968F739927848F85
:1003C000A689B7892C93A089B1898C9183708064A8
:1003D0008C93938D848D981306C00288F389E02D49
:1003E00080818F7D80830895EF92FF920F931F93FA
:1003F000CF93DF93EC0181E0888F9B8D8C8D9813D8
:100400001AC0E889F989808185FF15C09FB7F894E3
:10041000EE89FF896083E889F9898081837080642F
:1004200080839FBF81E090E0DF91CF911F910F917A
:10043000FF90EF900895F62E0B8D10E00F5F1F4F89
:100440000F731127E02E8C8D8E110CC00FB607FC98
:10045000FACFE889F989808185FFF5CFCE010E9426
:10046000D201F1CFEB8DEC0FFD2FF11DE35AFF4FC1
:10047000F0829FB7F8940B8FEA89FB8980818062B4
:10048000CFCFCF93DF93EC01888D8823B9F0AA8971
:10049000BB89E889F9898C9185FD03C0808186FD3F
:1004A0000DC00FB607FCF7CF8C9185FFF2CF80818E
:1004B00085FFEDCFCE010E94D201E9CFDF91CF9130
:1004C000089580E090E0892B29F00E94C8018111F5
:1004D0000E94000080E090E0892B49F080E090E0ED
:1004E000892B29F00E94000081110E94000080E009
:1004F00090E0892B49F080E090E0892B29F00E9460
:10050000000081110E94000080E090E0892B49F0FA
:1005100080E090E0892B29F00E94000081110C946A
:1005200000000895282F30E0F901E45BFE4F94911C
:10053000F901E45FFD4F44912A533E4FF9012491A4
:10054000222309F435C0992311F191509231F8F426
:10055000E92FF0E08827E055FD4F8F4F0C949F085E
:10056000E102E502C202D902DD02C702E802EE02A0
:10057000F202F802FC02000306030A03C7020E039C
:1005800014031803809180008F7780938000E22FFE
:10059000F0E0EE0FFF1FEE56FE4FA591B4918FB71E
:1005A000F894EC91611148C040954E234C938FBF55
:1005B0000895809180008F7DE8CF80918000877FB3
:1005C000E4CF84B58F7784BDE2CF84B58F7DFBCF38
:1005D0008091B0008F778093B000D9CF8091B00028
:1005E0008F7DF9CF809190008F7780939000CFCF4F
:1005F000809190008F7DF9CF80919000877FF5CF1B
:100600008091A0008F778093A000C1CF8091A0003F
:100610008F7DF9CF8091A000877FF5CF8091200159
:100620008F7780932001B3CF809120018F7DF9CF08
:1006300080912001877FF5CF4E2BB8CF3FB7F8943C
:100640008091250290912602A0912702B091280264
:1006500026B5A89B05C02F3F19F00196A11DB11D1D
:100660003FBFBA2FA92F982F8827BC01CD01620F59
:10067000711D811D911D42E0660F771F881F991F14
:100680004A95D1F70895AF92BF92CF92DF92EF9241
:10069000FF920F931F93CF93DF936B017A01EC01CD
:1006A000C45EDD4F28813CE0389F8001399F100DEA
:1006B0001124A0905803B12C27FF1FC0FB01118209
:1006C000108288818F5F888388819801280F311D6F
:1006D00087FD3A95F6012A153B051CF488818C307C
:1006E000C4F180819181049680349C4908F473C0E0
:1006F000F60180819181049670C088819801280F4D
:10070000311D87FD3A952A153B05DCF68881A80145
:10071000480F511D87FD5A95FA01EE0FFF1FE40F98
:10072000F51FE853FD4F808186FFCBCF8881F8010C
:10073000E80FF11D87FDFA95CF01EE0FFF1FE80FBF
:10074000F91FE853FD4F808160E08F730E94920291
:10075000B8CF808191812881A801420F511D27FDCA
:100760005A959A01FA01EE0FFF1FE20FF31FE853AB
:10077000FD4F21813281820F931FF7019183808386
:1007800088819801280F311D87FD3A95F901EE0FF8
:10079000FF1FE20FF31FE853FD4F808186FF22C049
:1007A0008881080F111D87FD1A95F801EE0FFF1FB4
:1007B000E00FF11FE853FD4F808161E08F73DF91FF
:1007C000CF911F910F91FF90EF90DF90CF90BF904E
:1007D000AF900C94920280E49CE9F70191838083AE
:1007E0008FEF8883DF91CF911F910F91FF90EF9052
:1007F000DF90CF90BF90AF900895CF93DF93EC013F
:100800008091590390915A03009739F020915B032E
:1008100030915C032C173D07B8F4BE016F5F7F4F2A
:100820000E94CC090097E9F090935A0380935903F2
:10083000D0935C03C0935B0320915D0330915E0312
:10084000232B11F4FC011082D0935E03C0935D034F
:100850006AE172E08091590390915A030E94B60AAE
:1008600014C08091590390915A03009711F00E948F
:10087000430910925A031092590310925E0310928A
:100880005D0310925C0310925B0389E593E0DF91B6
:10089000CF9108951F920F920FB60F9211240BB6AD
:1008A0000F922F933F934F935F936F937F938F9309
:1008B0009F93AF93BF93EF93FF938BE292E00E94DD
:1008C000D201FF91EF91BF91AF919F918F917F9155
:1008D0006F915F914F913F912F910F900BBE0F90B1
:1008E0000FBE0F901F9018951F920F920FB60F9288
:1008F00011240BB60F922F938F939F93EF93FF9337
:10090000E0913B02F0913C028081E0914102F09144
:10091000420282FD1DC09081809144028F5F8F73DF
:1009200020914502821741F0E0914402F0E0E55D3C
:10093000FD4F958F80934402FF91EF919F918F918E
:100940002F910F900BBE0F900FBE0F901F90189518
:100950008081F2CF1F920F920FB60F9211242F9326
:100960003F938F939F93AF93BF9380912102909178
:100970002202A0912302B09124023091200223E0B0
:10098000230F2D3758F50196A11DB11D209320028C
:100990008093210290932202A0932302B093240219
:1009A0008091250290912602A0912702B091280201
:1009B0000196A11DB11D8093250290932602A0935C
:1009C0002702B0932802BF91AF919F918F913F91E1
:1009D0002F910F900FBE0F901F90189526E8230FB0
:1009E0000296A11DB11DD2CF1F920F920FB60F928A
:1009F00011240BB60F922F933F934F935F936F93F6
:100A00007F938F939F93AF93BF93EF93FF9348E2AE
:100A100051E064E271E090E080E00E944303FF91C6
:100A2000EF91BF91AF919F918F917F916F915F9166
:100A30004F913F912F910F900BBE0F900FBE0F90D3
:100A40001F9018951F920F920FB60F9211240BB69C
:100A50000F922F933F934F935F936F937F938F9357
:100A60009F93AF93BF93EF93FF9348EA50E064EAFC
:100A700070E083E090E00E944303FF91EF91BF910B
:100A8000AF919F918F917F916F915F914F913F9126
:100A90002F910F900BBE0F900FBE0F901F901895C7
:100AA0001F920F920FB60F9211240BB60F922F9335
:100AB0003F934F935F936F937F938F939F93AF93E6
:100AC000BF93EF93FF9348E950E064E970E082E060
:100AD00090E00E944303FF91EF91BF91AF919F91EE
:100AE0008F917F916F915F914F913F912F910F90D7
:100AF0000BBE0F900FBE0F901F9018951F920F9274
:100B00000FB60F9211240BB60F922F933F934F9372
:100B10005F936F937F938F939F93AF93BF93EF9365
:100B2000FF9348E850E064E870E081E090E00E94C4
:100B30004303FF91EF91BF91AF919F918F917F916F
:100B40006F915F914F913F912F910F900BBE0F903E
:100B50000FBE0F901F90189510922E0210922D022A
:100B600088EE93E0A0E0B0E080932F0290933002F3
:100B7000A0933102B09332028CE092E090932C0269
:100B800080932B0285EC90E090933802809337029B
:100B900084EC90E090933A028093390280EC90E0EC
:100BA00090933C0280933B0281EC90E090933E0254
:100BB00080933D0282EC90E09093400280933F024C
:100BC00086EC90E09093420280934102109244029E
:100BD00010924502109246021092470280915803EB
:100BE000803310F591E0980F9093580380935F0342
:100BF00090E0FC01EE0FFF1FE80FF91FE853FD4FD7
:100C000088EB9BE09283818310925A0310925903E0
:100C100010925C0310925B0310925E0310925D03CE
:100C200090E080E00C94FD038FEF80935F03ECCFA6
:100C3000789484B5826084BD84B5816084BD85B5B7
:100C4000826085BD85B5816085BD80916E008160C3
:100C500080936E0010928100809181008260809369
:100C6000810080918100816080938100809180006B
:100C70008160809380008091B10084608093B10096
:100C80008091B00081608093B0008091910082607B
:100C90008093910080919100816080939100809178
:100CA00090008160809390008091A1008260809389
:100CB000A1008091A10081608093A1008091A0009B
:100CC00081608093A0008091210182608093210146
:100CD00080912101816080932101809120018160B8
:100CE0008093200180917A00846080937A008091C3
:100CF0007A00826080937A0080917A00816080938C
:100D00007A0080917A00806880937A001092C10006
:100D100080915F03803308F06BC0E5E1F2E024913D
:100D2000EFECF1E08491882399F090E0880F991F0F
:100D3000FC01E455FE4FA591B491FC01EE56FE4F27
:100D4000859194918FB7F894EC91E22BEC938FBF3F
:100D500080915F03282F30E0F901EE0FFF1FE20FB3
:100D6000F31FE853FD4F9081907C996090839EE83B
:100D70009093600394E6909361032CE0622F0E94AD
:100D80009308829FB001112430E020E0AB01420FB4
:100D9000531FFA01EE0FFF1FE40FF51FE853FD4F3D
:100DA000908196FD17C02F5F3F4F2C30310571F7B2
:100DB000813009F016C11092800082E0809381009A
:100DC0001092850010928400B19A80916F00826029
:100DD00080936F00E0915F038E2F90E0FC01EE0F97
:100DE000FF1FE80FF91FE853FD4F80818064808367
:100DF000E0913B02F0913C0282E08083E091370277
:100E0000F09138021082E0913902F0913A028FECB1
:100E1000808310924302E0913F02F091400286E00D
:100E20008083E0913D02F0913E0280818061808369
:100E3000E0913D02F0913E02808188608083E091E4
:100E40003D02F0913E02808180688083E0913D0206
:100E5000F0913E0280818F7D808310922A02109251
:100E6000290290E080E00E94FD0308E810E0C8E558
:100E7000D2E0A4EB4A2E512C612C712C22242A940E
:100E8000322CA0912902B0912A02A03222E0B207AE
:100E9000BCF5209160036801C21AD10827FDD394E4
:100EA000CC0CDD1CCC0CDD1C0D2C000CEE08FF085E
:100EB00020916103CE01821B910927FD93959C012E
:100EC000220F331F220F331F032E000C440B550B30
:100ED0002C193D094E095F09A53BB10514F0A4EB9F
:100EE000B0E0B7FF02C0B0E0A0E00E945A08A30142
:100EF00092010E943008C20ED31EE41EF51ED601D8
:100F0000E0915F03E03388F520916003C801821B04
:100F1000910927FD93959C01220F331F220F331F48
:100F2000A217B30784F020916103CE01821B9109BF
:100F300027FD93959C01220F331F220F331FA21709
:100F4000B3070CF49D0122503109220F331F4FB714
:100F5000F8948E2F90E0FC01EE0FFF1FE80FF91FB1
:100F6000E853FD4F328321834FBF0E941E034B0184
:100F70005C018EE1C82ED12CE12CF12C0E941E03C5
:100F8000681979098A099B09683E734081059105B2
:100F9000A8F391E0C91AD108E108F10828EE820E01
:100FA00023E0921EA11CB11CC114D104E104F10480
:100FB00029F72091290230912A022A353105E9F5D5
:100FC0003092010220920002809100029091010271
:100FD000820F931F90932A02809329020E9461023C
:100FE00050CF823061F41092900080939100109263
:100FF00095001092940088BB80937100EBCE8330F3
:1010000069F41092A00082E08093A1001092A500E4
:101010001092A40089BB80937200DCCE8111DACEDD
:101020001092200182E080932101109225011092FC
:1010300024018ABB80937300CDCE2115310521F6A2
:1010400081E090E09093010280930002BDCF8091F7
:10105000590390915A03009711F00C944309089595
:10106000052E97FB1EF400940E94470857FD07D0F9
:101070000E94620807FC03D04EF40C944708509578
:101080004095309521953F4F4F4F5F4F0895909574
:101090008095709561957F4F8F4F9F4F08950E9467
:1010A0008408A59F900DB49F900DA49F800D911D65
:1010B00011240895B7FF0C944F080E944F08821B1B
:1010C000930B0895A1E21A2EAA1BBB1BFD010DC0B4
:1010D000AA1FBB1FEE1FFF1FA217B307E407F507E8
:1010E00020F0A21BB30BE40BF50B661F771F881FC4
:1010F000991F1A9469F760957095809590959B015A
:10110000AC01BD01CF010895A29FB001B39FC00102
:10111000A39F700D811D1124911DB29F700D811D23
:101120001124911D0895991B79E004C0991F961709
:1011300008F0961B881F7A95C9F780950895EE0FE1
:10114000FF1F881F8BBF0790F691E02D19940F9316
:101150001F93CF93DF938230910510F482E090E0EB
:10116000E0916403F091650330E020E0B0E0A0E09E
:10117000309799F42115310509F44AC0281B390B21
:1011800024303105D8F58A819B816115710589F17B
:10119000FB0193838283FE0111C040815181028152
:1011A000138148175907E0F04817590799F4109729
:1011B00061F012960C93129713961C933296CF01FE
:1011C000DF91CF911F910F910895009364031093C5
:1011D0006503F4CF2115310551F04217530738F05C
:1011E000A901DB019A01BD01DF01F801C1CFEF01C7
:1011F000F9CF9093650380936403CDCFFE01E20F96
:10120000F31F819391932250310939832883D7CFDB
:101210002091620330916303232B41F42091040257
:101220003091050230936303209362032091020200
:10123000309103022115310541F42DB73EB740919D
:10124000060250910702241B350BE0916203F091D6
:101250006303E217F307A0F42E1B3F0B281739078F
:1012600078F0AC014E5F5F4F2417350748F04E0F02
:101270005F1F5093630340936203819391939FCFC9
:10128000F0E0E0E09CCFCF93DF930097E9F0FC0122
:10129000329713821282A0916403B0916503ED012D
:1012A00030E020E01097A1F420813181820F931F5C
:1012B00020916203309163032817390709F061C058
:1012C000F0936303E0936203DF91CF910895EA0105
:1012D000CE17DF07E8F54A815B819E014115510574
:1012E000B1F7E901FB83EA8349915991C40FD51FF6
:1012F000EC17FD0761F4808191810296840F951FA0
:10130000E90199838883828193819B838A83F0E0BA
:10131000E0E012968D919C9113970097B9F52D916D
:101320003C911197CD010296820F931F2091620389
:10133000309163032817390739F6309751F5109229
:10134000650310926403B0936303A0936203BCCF60
:10135000D383C28340815181840F951FC817D90759
:1013600061F44E5F5F4F88819981480F591F518307
:1013700040838A819B81938382832115310509F003
:10138000B0CFF0936503E09364039ECFFD01DC01D1
:10139000C0CF13821282D7CF4F925F926F927F920B
:1013A0008F929F92AF92BF92CF92DF92EF92FF9275
:1013B0000F931F93CF93DF938C01009799F4CB0188
:1013C000DF91CF911F910F91FF90EF90DF90CF9021
:1013D000BF90AF909F908F907F906F905F904F9055
:1013E0000C94A708FC01E60FF71F9C01225031095D
:1013F000E217F30708F4AEC0D901CD91DC91119743
:10140000C617D70720F1C530D10578F0CE01049773
:101410008617970750F0C61BD70B2297C193D1931D
:101420006D937C93CF010E944309C801DF91CF9156
:101430001F910F91FF90EF90DF90CF90BF90AF90F2
:101440009F908F907F906F905F904F9008955B0179
:10145000AC1ABD0A4C018C0E9D1EA0916403B09184
:101460006503512C412CF12CE12C109731F5809122
:101470006203909163038815990509F05CC04616D4
:10148000570608F058C0809102029091030200971D
:1014900041F48DB79EB74091060250910702841B1C
:1014A000950BE817F90708F055C0F0936303E09334
:1014B0006203F90171836083B8CF8D919C9111977C
:1014C00012966C90129713967C901397A815B905F5
:1014D00059F56C0142E0C40ED11CCA14DB0420F1A2
:1014E000AC014A195B09DA011296159780F0628205
:1014F000738251834083D9016D937C93E114F1048D
:1015000071F0D7011396FC93EE9312978ECF22962B
:101510008C0F9D1FF90191838083F301EFCFF0932E
:101520006503E093640381CF4816590608F42C0143
:101530007D01D3019ACFCB010E94A7087C010097BF
:1015400049F0AE01B8010E94AD0AC8010E944309EA
:1015500087016BCF10E000E068CFFB01DC0102C027
:1015600001900D9241505040D8F70895FB01DC01E5
:1015700001900D920020E1F7089511E0CAE2D1E058
:1015800000E006C0802FFE010E949F082196011DE9
:0E159000CB32D10780E00807A9F7F894FFCF0F
:10159E00010000006603800000000000F4015E01FF
:0C15AE008B014102BC019A01AE0100005B
:00000001FF
