:020000040000FA
:100000000C9454010C9485010C9485010C94850189
:100010000C9485010C9485010C9485010C94850148
:100020000C9485010C9485010C9485010C94850138
:100030000C9485010C9485010C9485010C94850128
:100040000C9485010C9485010C9485010C94850118
:100050000C9485010C9485010C9485010C94910BF2
:100060000C9485010C945B0B0C94310B0C94850162
:100070000C9485010C9485010C9485010C948501E8
:100080000C9485010C9485010C9485010C948501D8
:100090000C9485010C9485010C9485010C94DB0B68
:1000A0000C9485010C9485010C9485010C948501B8
:1000B0000C9485010C9485010C9485010C948501A8
:1000C0000C9485010C9485010C9485010C94850198
:1000D0000C9485010C9485010C9485010C94850188
:1000E0000C9485010C943E030C9443030C94FE0283
:1000F0000C948F020C9404030C94C9050C94F30522
:100100000C9423030C9470030C9442020C9420066C
:100110000C941D030C94FF0C0C944F060C943F039D
:100120000C94EC050C9408030C940C030C9435030C
:100130000C94E1030C9410030C9427030C94AB0172
:100140000C94A1030C94D9050C94E8010C94AC0117
:100150000C9419030C94FC010C94D0070C94D90155
:100160000C94CA050C94AA110C9413030C940A0263
:100170000C94AA010C9439030C942B030C94720474
:100180000C94310300002100240027002A002D00D8
:100190003000330001010000040107010A010000E2
:1001A0002200250028002B002E003100340002011F
:1001B0000000050108010B010000200023002600BB
:1001C00029002C002F00320000010000030106016D
:1001D00009010505050507050808080802020202CD
:1001E0000A0A0808040404040101010101010101D3
:1001F0000303030303030303040707070C0C0C0C9E
:100200000C0C0C0C02020202060606060606060686
:100210000B0B0B0B0B0B0B0B010210202008081013
:100220002040102040800201020108040201010266
:10023000040810204080804020100804020180043F
:10024000020180402010080402010804020101029A
:1002500004081020408001020408102040800000A3
:100260000A0B02090C0D0E08070304010000000030
:10027000000000000000000000000000000000007E
:10028000000000000000000000001211100000003B
:10029000000000000000000000000000000000005E
:1002A00000000000FF0CAA1111241FBECFEFD1E205
:1002B000DEBFCDBF00E00CBF25E0ACEFB2E001C077
:1002C0001D92AB31B207E1F712E0A0E0B2E0EAED37
:1002D000F8E200E00BBF02C007900D92AC3FB107FF
:1002E000D9F711E0C3E5D1E000E006C0219701098C
:1002F000802FFE010E942912C235D10780E0080735
:10030000A9F70E94F20D0C945B140C94000096E087
:10031000899FD0011124AE58BB4F90967C936E9369
:100320005F9791E091969C939197E091DF04F09113
:10033000E0049091DE04992339F0309751F0811157
:1003400008C080918E041994309719F05C968C91B6
:10035000FACF089508950895AF92BF92CF92DF9299
:10036000EF92FF920F931F93CF93DF936C017B016A
:100370008B01040F151FEB015E01AE18BF08C017FB
:10038000D10759F06991D601ED91FC910190F0816E
:10039000E02DC6011995892B79F7C501DF91CF9121
:1003A0001F910F91FF90EF90DF90CF90BF90AF9093
:1003B0000895FC01538D448D252F30E0842F90E06B
:1003C000821B930B541710F0CF9608950197089550
:1003D000FC01918D828D981761F0A28DAE0FBF2F19
:1003E000B11D5D968C91928D9F5F9F73928F90E06F
:1003F00008958FEF9FEF0895FC01918D828D9817DE
:1004000031F0828DE80FF11D858D90E008958FEF1A
:100410009FEF0895FC01918D228D892F90E0805CE3
:100420009F4F821B91098F739927089585EC93E064
:100430000E940A0221E0892B09F420E0822F08950E
:10044000FC01A48DA80FB92FB11DA35ABF4F2C9149
:10045000848D90E001968F739927848FA689B78940
:100460002C93A089B1898C91837080648C93938D37
:10047000848D981306C00288F389E02D80818F7DDA
:1004800080830895EF92FF920F931F93CF93DF9392
:10049000EC0181E0888F9B8D8C8D98131AC0E889C0
:1004A000F989808185FF15C09FB7F894EE89FF898F
:1004B0006083E889F98980818370806480839FBF2D
:1004C00081E090E0DF91CF911F910F91FF90EF902D
:1004D0000895F62E0B8D10E00F5F1F4F0F7311273D
:1004E000E02E8C8D8E110CC00FB607FCFACFE88978
:1004F000F989808185FFF5CFCE010E942002F1CFDE
:10050000EB8DEC0FFD2FF11DE35AFF4FF0829FB7EB
:10051000F8940B8FEA89FB8980818062CFCFCF93DB
:10052000DF93EC01888D8823B9F0AA89BB89E8891B
:10053000F9898C9185FD03C0808186FD0DC00FB6C1
:1005400007FCF7CF8C9185FFF2CF808185FFEDCF3F
:10055000CE010E942002E9CFDF91CF91089580E083
:1005600090E0892B29F00E94160281110E94000060
:1005700080E090E0892B49F080E090E0892B29F021
:100580000E94000081110E94000080E090E0892B11
:1005900049F080E090E0892B29F00E940000811151
:1005A0000E94000080E090E0892B49F080E090E01C
:1005B000892B29F00E94000081110C9400000895FD
:1005C0008150823108F05AC0E82FF0E08827E451CA
:1005D000FD4F8F4F0C9429120C031003FE020403ED
:1005E00008033E03130319031D03230327032B03EF
:1005F000310335033E0339033F03430380918000F9
:100600008F77809380000895809180008F7DF9CF4F
:1006100080918000877FF5CF84B58F7784BD089562
:1006200084B58F7DFBCF8091B0008F778093B00031
:1006300008958091B0008F7DF9CF809190008F77E1
:10064000809390000895809190008F7DF9CF8091E4
:100650009000877FF5CF8091A0008F778093A000D6
:1006600008958091A0008F7DF9CF8091A000877FB1
:10067000F5CF809120018F7780932001089580919C
:1006800020018F7DF9CF80912001877FF5CFCF9317
:10069000DF93282F30E0F901E25AFD4F8491F901F0
:1006A000E85EFD4FD491F901EE52FE4FC491CC2388
:1006B000A1F081110E94E002EC2FF0E0EE0FFF1F8D
:1006C000E854FE4FA591B491EC91ED2381E090E0C8
:1006D00009F480E0DF91CF91089580E090E0FACFB7
:1006E000862F0C9447031F93CF93DF93282F30E07E
:1006F000F901E25AFD4F8491F901E85EFD4FD49172
:10070000F901EE52FE4FC491CC23A9F0162F8111AE
:100710000E94E002EC2FF0E0EE0FFF1FE256FE4FCA
:10072000A591B4918FB7F894EC91111108C0D095B0
:10073000DE23DC938FBFDF91CF911F910895DE2BD5
:10074000F8CF862F642F0C947303CF93DF9390E040
:10075000FC01E85EFD4F24918E529E4FFC01849176
:100760008823C9F090E0880F991FFC01EC57FE4FD9
:10077000A591B491FC01E256FE4FC591D49161114F
:100780000DC09FB7F8948C91209582238C9388811B
:10079000282328839FBFDF91CF910895623051F4C1
:1007A0009FB7F8943C91822F809583238C93E881A6
:1007B0002E2BEFCF8FB7F894EC912E2B2C938FBF6D
:1007C000EACF862F642F0C94A5033FB7F89480914D
:1007D000650390916603A0916703B091680326B505
:1007E000A89B05C02F3F19F00196A11DB11D3FBF69
:1007F000BA2FA92F982F8827BC01CD01620F711D38
:10080000811D911D42E0660F771F881F991F4A9531
:10081000D1F708952FB7F894609161037091620346
:1008200080916303909164032FBF08950F931F93EA
:10083000CF93DF93C82FD62F86E0C89FF0011124F5
:10084000EE58FB4F11A2878D90A181309105F1F0F8
:1008500058F082309105F1F1039709F440C0DF911F
:10086000CF911F910F9108956623C9F361E070E065
:100870008C2F0E9487010E940A046093CA0470931F
:10088000CB048093CC049093CD04E9CF0E940A045A
:100890000091CA041091CB042091CC043091CD0476
:1008A000AB01BC01401B510B620B730B8091DC044C
:1008B0009091DD04B0E0A0E084179507A607B70784
:1008C00048F462E070E08C2FDF91CF911F910F917F
:1008D0000C94870163E070E0D111C1CFF4CF70E0D8
:1008E00060E0F1CF089520913D03260F3327331F99
:1008F00021323105ECF420919B03FC0190E080E073
:10090000243069F082E00895A0913D032191AC016B
:10091000435E5C4FA40FB52FB11D2C930196861733
:1009200098F380913D03680F60933D0380E0089544
:1009300081E0089510929B0381E080939A031092C6
:10094000750361E084E10E94730361E085E10E9428
:100950007303E9EBF0E080818E7F808380818D7F5F
:10096000808388E48093B80085E48093BC00089578
:10097000CF93DF9391E090931C038823B9F0C0914B
:10098000B800D091BA008091BC008A7B8093BC00F3
:1009900060E084E10E94730360E085E10E947303DC
:1009A0000E949A04D093BA00C093B800DF91CF910F
:1009B00008958F929F92AF92BF92CF92DF92EF9263
:1009C000FF920F931F93CF93DF93D091C403D13243
:1009D00008F0D7C0182FC091C3030E94E5036B0134
:1009E0007C0180919B0381116BC082E080939B030B
:1009F00010939A038FEF8093990310929803D093EA
:100A00009703A3EAB3E0E7E7F3E080E0D81391C0EF
:100A10001092760380917603CC0FC82BC093760397
:100A200080917503813009F088C0109275030E948F
:100A3000E5036B017C01809176038093BB0080917C
:100A40009D0390919E03A0919F03B091A003892BD9
:100A50008A2B8B2BA1F00E94E50300919D0310913E
:100A60009E0320919F033091A0036C197D098E098C
:100A70009F09061717072807390708F442C0809115
:100A8000BC0083FDD8CF85EC8093BC000E94E503B9
:100A90006B017C0180919B03823009F450C08091EE
:100AA00099038F3F09F46FC080919903803209F454
:100AB0006CC080919903803309F469C084E026C03A
:100AC00080919D0390919E03A0919F03B091A003FC
:100AD000892B8A2B8B2B09F484CF0E94E50380900D
:100AE0009D0390909E03A0909F03B090A0036C196B
:100AF0007D098E099F0986169706A806B90608F093
:100B000070CF80919C030E94B80485E01092A203EC
:100B10001092C4031092A103DF91CF911F910F9106
:100B2000FF90EF90DF90CF90BF90AF909F908F900D
:100B300008959D9191938F5F69CF85EEA5CF8091A8
:100B40009D0390919E03A0919F03B091A003892BD8
:100B50008A2B8B2B09F49ECF0E94E50300919D0305
:100B600010919E0320919F033091A0036C197D0981
:100B70008E099F09061717072807390708F08ACF3B
:100B8000C0CF81E0C3CF80E0C1CF82E0BFCF83E0A0
:100B9000BDCF0895E0916E0380916D03E81730F4A6
:100BA000F0E0E450FD4F808190E008958FEF9FEFDB
:100BB000089590916E0380916D032FEF3FEF98178A
:100BC00048F4E92FF0E0E450FD4F208130E09F5FD2
:100BD00090936E03C901089580916D0390916E0307
:100BE000891B990B0895CF92DF92EF92FF920F939A
:100BF0001F93CF93DF937C01CB018A012091A10346
:100C0000222389F0EB016B01C40ED51ECC15DD0546
:100C100069F06991D701ED91FC910190F081E02D8F
:100C2000C7011995F3CF642F0E947304C801DF91A7
:100C3000CF911F910F91FF90EF90DF90CF9008958B
:100C4000CF93DF931F92CDB7DEB769832091A103C5
:100C50002223F9F02091C403203258F021E030E043
:100C6000FC013383228390E080E00F90DF91CF91ED
:100C700008958091A203E82FF0E0ED55FC4F998193
:100C800090838F5F8093A2038093C40381E090E000
:100C9000ECCF61E0CE0101960E947304F7CF90E0A3
:100CA00080E00895CF93DF93EC010497D1F060E0EA
:100CB00085E00E94730360E084E00E94730360E0BB
:100CC00083E00E94730360E082E00E947303CC0F14
:100CD000DD1FCC5DDD4F61E08881DF91CF910C9409
:100CE000730361E085E00E94730361E084E00E9489
:100CF000730361E083E00E94730361E082E0EDCF63
:100D0000CF93DF93EC0160E08E810E94730361E07A
:100D10008E810E94730360E08E810E9473038BE8D2
:100D200091E00197F1F7DF91CF910895CF92DF9293
:100D3000EF92FF920F931F93CF93DF936C017C018F
:100D400087E0E80EF11CD0E0C0E0062F10E0B8010B
:100D50000C2E02C0759567950A94E2F76170F70151
:100D600081917F010E9473032196C430D10579F7E8
:100D7000C601DF91CF911F910F91FF90EF90DF900F
:100D8000CF900C948006CF92DF92EF92FF920F9358
:100D90001F93CF93DF93EC01F62E642F8C810E947A
:100DA00073038D818F3F19F060E00E9473030F2D54
:100DB00010E08F8584FF25C06E0187E0C80ED11C2E
:100DC000F12CE12CB8010E2C02C0759567950A94A0
:100DD000E2F76170F60181916F010E947303FFEFEA
:100DE000EF1AFF0A88E0E816F10461F7CE01DF91FF
:100DF000CF911F910F91FF90EF90DF90CF900C94C7
:100E00008006B80184E0759567958A95E1F7CE0173
:100E10000E9496066F2DCE01DF91CF911F910F9109
:100E2000FF90EF90DF90CF900C94960640E0682FF3
:100E300081EE94E00C94C306CF93DF93823029F4C3
:100E40009091F00498609093F0048093F4041092D1
:100E5000F50480E48093F60480E18093F70480E554
:100E60008093F80461E08091E5040E94A5038091DD
:100E7000E6048F3F19F061E00E94A50361E08091D4
:100E8000E7040E94A503C1EED4E09E01215E344038
:100E90008091F00484FD0BC084E090E02196281737
:100EA000390744F461E08E810E94A503EECF88E00B
:100EB00090E0F4CF8BE39DE00197F1F760E0809143
:100EC000E5040E94730360E08091E7040E947303CD
:100ED0008091E6048F3F19F060E00E9473038091D7
:100EE000F00484FD39C063E081EE94E00E94960630
:100EF000CBE4D6E4CE010197F1F763E081EE94E014
:100F00000E9496062197F1F763E081EE94E00E943B
:100F1000960683E592E00197F1F762E081EE94E0B6
:100F20000E9496068091F00480620E94160784E079
:100F30008093F1048CE00E94160781E00E9416075E
:100F40008BE39FE10197F1F782E08093F20486E062
:100F5000DF91CF910C94160780620E9416078BE4F4
:100F600096E40197F1F78091F00480620E941607E1
:100F700083E592E00197F1F78091F00480620E948E
:100F80001607D0CF9091F404891710F08FEF890FD6
:100F9000E82FF0E0EF51FB4F848980680C9416072E
:100FA00041E00E94C30681E090E00895FB010190BA
:100FB0000020E9F73197AF01461B570BDC01ED919B
:100FC000FC910280F381E02D1994CF93DF93FC0113
:100FD000448155816081718185EC93E00E94AC0170
:100FE000EC0166E672E085EC93E00E94D6078C0F78
:100FF0009D1FDF91CF910895CF93DF93EC0180E0A7
:101000000E94C20769E672E081EE94E00E94D60772
:1010100080E00E94C20786E08C9FF0018D9FF00D5A
:101020001124E750FB4F448155816081718181EE2D
:1010300094E0DF91CF910C94AC01CF93DF93EC015E
:1010400088819981009711F00E94E112198218821B
:101050001D821C821B821A82DF91CF910895FC01B0
:1010600080819181009711F00C94E11208950F9303
:101070001F93CF93DF93EC0188819981009759F0FA
:101080002A813B812617370730F081E0DF91CF912D
:101090001F910F9108958B016F5F7F4F0E946A131C
:1010A000009759F0998388831B830A832C813D81A3
:1010B000232B59F7FC011082E8CF80E0E7CFEF92B5
:1010C000FF920F931F93CF93DF936115710541F446
:1010D00080E0DF91CF911F910F91FF90EF900895E5
:1010E00041155105B1F07B01EC010C811D81040F0C
:1010F000151FB8010E943708882351F328813981D0
:101100008C819D81B701820F931F0E9454141D830F
:101110000C8381E0DECFCF93DF93EC01FB010190E4
:101120000020E9F73197AF01461B570B0E945F087B
:10113000811103C0CE010E941D08CE01DF91CF9125
:101140000895EF92FF920F931F93CF93DF93EC01DB
:101150007B018A01BA010E94370881110BC0CE01C0
:101160000E941D08CE01DF91CF911F910F91FF903A
:10117000EF9008951D830C83B701888199810E94A7
:101180005414F0CFFC011182108213821282158256
:101190001482FB0101900020E9F73197AF01461B53
:1011A000570B0C94A108CF92DF92FF920F931F93DD
:1011B000CF93DF93CDB7DEB72F970FB6F894DEBF8E
:1011C0000FBECDBFF82E6B011B861A861D861C86AE
:1011D0001F861E864AE08E010F5F1F4FB80190E008
:1011E0000E94C911F80101900020E9F73197AF0181
:1011F000401B510BB801CE010A960E94A1086AE774
:1012000072E0C8010E94C2084E855F856A857B85B1
:10121000C8010E945F08811103C0C8010E941D0817
:10122000C8010E94E507C8010E942F08CE010A9656
:101230000E942F0881E08093A10380E58093C3037F
:101240001092A2031092C4036F2D82E694E00E94D4
:101250002006F601608182E694E00E94200681E08B
:101260000E94D9042F960FB6F894DEBF0FBECDBFF3
:10127000DF91CF911F910F91FF90DF90CF90089554
:101280009F92AF92BF92CF92DF92EF92FF920F9315
:101290001F93CF93DF93CDB7DEB72F970FB6F89498
:1012A000DEBF0FBECDBF6AE872E085EC93E00E941E
:1012B000D60766E672E085EC93E00E94D60781E0EF
:1012C0008093A10380E58093C3031092A203109240
:1012D000C40364E682E694E00E94200681E00E9456
:1012E000D9040E94E5036B017C0180919B0381116D
:1012F00065C081E080939B0380939A039FEF909356
:1013000099031092980394E0909397038093760347
:1013100080917603806A8093760380917503813093
:1013200009F041C1109275030E94E5036B017C0135
:10133000809176038093BB0080919D0390919E03E2
:10134000A0919F03B091A003892B8A2B8B2BA1F036
:101350000E94E50300919D0310919E0320919F033D
:101360003091A0036C197D098E099F090617170794
:101370002807390708F443C08091BC0083FDD8CF0B
:1013800085EC8093BC000E94E5036B017C01809199
:101390009B03813009F409C180919803853008F0DE
:1013A00026C180919803A7E7B3E0ECEFF2E090E06C
:1013B000981751F12D9121939F5FFACF80919D0352
:1013C00090919E03A0919F03B091A003892B8A2B3B
:1013D0008B2B09F48ACF0E94E50300919D031091A5
:1013E0009E0320919F033091A0036C197D098E0903
:1013F0009F09061717072807390708F076CF80914D
:101400009C030E94B80480E010926E0380936D03E9
:101410007E0187E0E80EF11C8E01045F1F4F82E61B
:1014200094E00E94D905F70181937F01E017F1074D
:10143000B1F78F8190ED980F953030F48053990B70
:10144000909373038093720380917203909173035E
:1014500097FF0E94FC07FE01389690E0C92E92E0AB
:10146000D92ED6018191813314F080538C9311963B
:10147000EE16FF06B9F7E0907203F0907303C70110
:101480000E94520667EB72E0CE0101960E94C208EC
:1014900086E08E9DF0018F9DF00D1124E750FB4FEB
:1014A0004481558160817181CE0101960E945F085F
:1014B000811104C0CE0101960E941D0869EC72E002
:1014C000CE0101960E948B080E94E507CE0101968D
:1014D0000E942F086BEC72E085EC93E00E94D60727
:1014E00066E672E085EC93E00E94D60789EFE82E6D
:1014F00084E0F82EF60191906F011A8219821C8205
:101500001B821E821D82F701608171816115710548
:1015100031F044815581CE0101960E94A10867EC0B
:1015200072E0CE0101960E948B085C014AE0B8018E
:10153000892D90E00E94BE11F80101900020E9F78A
:101540003197AF01401B510BB801C5010E945F08E4
:10155000811103C0C5010E941D0869EC72E0C5013C
:101560000E948B080E94E507CE0101960E942F0879
:10157000F6E0EF0EF11C84E0C81682E0D80609F010
:10158000B9CF2F960FB6F894DEBF0FBECDBFDF9157
:10159000CF911F910F91FF90EF90DF90CF90BF9070
:1015A000AF909F90089585EEECCE80919D03909131
:1015B0009E03A0919F03B091A003892B8A2B8B2BB4
:1015C00009F4E5CE0E94E50300919D0310919E036E
:1015D00020919F033091A0036C197D098E099F090A
:1015E000061717072807390708F0D1CE08CF85E07E
:1015F000DACE85ED8093BC0080919D0390919E038F
:10160000A0919F03B091A0030796A11DB11D23E0F7
:10161000B695A795979587952A95D1F72091BC0007
:1016200024FD03C010929B03089540919D035091A7
:101630009E0360919F037091A003452B462B472B7F
:1016400069F30097A105B10541F025E32A95F1F76B
:1016500000000197A109B109E1CF80919C030C948E
:10166000B8041F920F920FB60F9211240BB60F926F
:101670002F933F934F935F936F937F938F939F939A
:10168000AF93BF93EF93FF9385EC93E00E9420020A
:10169000FF91EF91BF91AF919F918F917F916F914A
:1016A0005F914F913F912F910F900BBE0F900FBE06
:1016B0000F901F9018951F920F920FB60F92112442
:1016C0000BB60F922F938F939F93EF93FF93E0911D
:1016D000D503F091D6038081E091DB03F091DC0328
:1016E00082FD1DC090818091DE038F5F8F732091FA
:1016F000DF03821741F0E091DE03F0E0EB53FC4F93
:10170000958F8093DE03FF91EF919F918F912F91A1
:101710000F900BBE0F900FBE0F901F9018958081F9
:10172000F2CF1F920F920FB60F9211242F933F9377
:101730008F939F93AF93BF938091610390916203C6
:10174000A0916303B09164033091600323E0230F01
:101750002D3758F50196A11DB11D2093600380938C
:10176000610390936203A0936303B0936403809139
:10177000650390916603A0916703B0916803019699
:10178000A11DB11D8093650390936603A093670329
:10179000B0936803BF91AF919F918F913F912F912B
:1017A0000F900FBE0F901F90189526E8230F0296FA
:1017B000A11DB11DD2CF1F920F920FB60F9211240F
:1017C0000BB60F922F933F934F935F936F937F933B
:1017D0008F939F93AF93BF93EF93FF938091B90043
:1017E000887F803609F44DC008F040C0883209F483
:1017F000A9C028F5803109F49DC0C8F4882309F4F4
:10180000FBC0883009F496C0FF91EF91BF91AF9172
:101810009F918F917F916F915F914F913F912F9108
:101820000F900BBE0F900FBE0F901F901895883130
:1018300009F488C0803241F78093990314C0803442
:1018400009F49DC040F48033B9F38833E9F68093FE
:10185000990385ECB0C0803509F485C0883509F45A
:1018600096C0883489F60E94F90ACECF883909F4E7
:101870008CC038F5883729F050F4883611F080375D
:1018800019F683E080939B0310925F0357C088385A
:1018900009F47BC0803919F0803809F0B5CF809108
:1018A0005F03803208F071C0E0915F0381E08E0F2A
:1018B00080935F038091BB00F0E0E15CFC4F80838C
:1018C0003DC0803B39F0E0F4803A09F479C0883AB1
:1018D00009F09ACF84E080939B0310923E0310920C
:1018E0003D03E0916B03F0916C03199580913D03EA
:1018F00081110FC081E080933D0310921D0309C048
:10190000803C09F4A6CF883C09F4A3CF883B09F0BA
:101910007BCFE0913E0381E08E0F80933E03F0E0A9
:10192000E35EFC4F80818093BB0090913E038091E9
:101930003D0329C0809176038093BB0085EC8093A2
:10194000BC0062CF9091980380919703981758F547
:10195000E091980381E08E0F80939803F0E0E958BE
:10196000FC4F8081E9CFE091980381E08E0F809356
:1019700098038091BB00F0E0E958FC4F8083909180
:101980009803809197039817C8F285E8D8CFE09123
:10199000980381E08E0F809398038091BB00F0E064
:1019A000E958FC4F808380919A0381115CCF81E0DC
:1019B0008093750384EA8093BC0010929B0324CF2C
:1019C00085EC8093BC0010929B0380915F03803272
:1019D00030F4E0915F03F0E0E15CFC4F1082609135
:1019E0005F0370E0E0916903F0916A038FE393E095
:1019F000199510925F0308CF1092990334CF10927B
:101A0000C8031092C70388EE93E0A0E0B0E0809393
:101A1000C9039093CA03A093CB03B093CC0320E3F4
:101A200032E03093C6032093C50325EC30E03093B9
:101A3000D2032093D10324EC30E03093D4032093DD
:101A4000D30320EC30E03093D6032093D50321EC70
:101A500030E03093D8032093D70322EC30E030936A
:101A6000DA032093D90326EC30E03093DC03209393
:101A7000DB031092DE031092DF031092E00310925A
:101A8000E1031092650410926404809366049093BD
:101A90006704A0936804B093690482E492E0909391
:101AA00063048093620467ED72E089EF94E00E9422
:101AB000C2086BED72E08FEF94E00E94C20865EE01
:101AC00072E085E095E00E94C2086BEE72E08BE068
:101AD00095E00E94C20862EF72E081E195E00E9409
:101AE000C2081092E4041092E3048EE592E0909311
:101AF000E2048093E1048DE08093E5048FEF80930E
:101B0000E6048CE08093E70488E08093E80489E0B1
:101B10008093E9048AE08093EA048BE08093EB04ED
:101B20001092EC041092ED041092EE041092EF0467
:101B30001092F00481E00E941C071092740410922D
:101B40007804109277041092790484E592E09093DF
:101B5000730480937204EEE8F4E01082148213821E
:101B60001582369684E0EA3CF807B9F78AE092E0FD
:101B70009093D5048093D40486E092E09093D704A8
:101B80008093D60484E08093D8048093D9048EE0B7
:101B900092E09093D3048093D2048AE090E09093F3
:101BA000DB048093DA0484EF91E09093DD0480936A
:101BB000DC041092E0041092DF041092CE04109224
:101BC000CF041092D0041092D1041092DE040E942F
:101BD0000A0460936E0470936F0480937004909372
:101BE00071040895CF93DF93CDB7DEB768970FB632
:101BF000F894DEBF0FBECDBF789484B5826084BDFB
:101C000084B5816084BD85B5826085BD85B5816000
:101C100085BD80916E00816080936E00109281007E
:101C20008091810082608093810080918100816039
:101C300080938100809180008160809380008091FA
:101C4000B10084608093B1008091B0008160809386
:101C5000B00080919100826080939100809191000A
:101C600081608093910080919000816080939000CA
:101C70008091A10082608093A1008091A100816089
:101C80008093A1008091A00081608093A00080914A
:101C900021018260809321018091210181608093E4
:101CA00021018091200181608093200180917A0040
:101CB000846080937A0080917A00826080937A00B9
:101CC00080917A00816080937A0080917A008068A8
:101CD00080937A001092C100E091D503F091D60371
:101CE00082E08083E091D103F091D2031082E091F1
:101CF000D303F091D4038FEC80831092DD03E09145
:101D0000D903F091DA0386E08083E091D703F09164
:101D1000D803808180618083E091D703F091D8035C
:101D2000808188608083E091D703F091D80380811F
:101D300080688083E091D703F091D80380818F7D04
:101D4000808361E085E00E94A50361E084E00E9459
:101D5000A50361E083E00E94A50361E082E00E94A8
:101D6000A50310926E0310926D031092A2031092BD
:101D7000C4030E949A048AEA91E090936C038093D2
:101D80006B038BEA91E090936A038093690382E08E
:101D90000E941C0781E00E9416078BE39FE10197D8
:101DA000F1F70E944009CE0101967C0138EE232E06
:101DB00033E0332E91E09093DE040E940A040091F8
:101DC000CE041091CF042091D0043091D104AB0106
:101DD000BC01401B510B620B730B8091DA04909194
:101DE000DB04B0E0A0E084179507A607B70708F06A
:101DF0001FC110E08091D804181760F4E091D4045A
:101E0000F091D504E10FF11D62E080810E94A503ED
:101E10001F5FF0CF712C8091D904781608F063C051
:101E2000C72CD12CE091D604F091D704EC0DFD1D08
:101E300061E080810E94A503E091D604F091D7046F
:101E4000EC0DFD1D60E080810E94730381E090E055
:101E5000A0E0B0E0072C04C0880F991FAA1FBB1F89
:101E60000A94D2F74C015C01A094B094612C80914B
:101E7000D804681608F5062D10E0E091D404F0911E
:101E8000D504E00FF11F80810E9447030C5F1F4FB4
:101E9000000F111FF801EE58FB4F892B41F4808190
:101EA000918188299929918380836394E0CF8081EF
:101EB00091818A219B21F7CFE091D604F091D7043C
:101EC000EC0DFD1D61E080810E9473038091D604BA
:101ED0009091D704C80ED91E60E0F60180810E945F
:101EE000A503739498CF92E7C92E94E0D92E86016A
:101EF000F801878D90A1892B31F4148E8FEF9FEF1D
:101F0000968F858F11A20A5F1F4F94E00E3A190732
:101F100079F7B12C8091D804B81608F053C0A12CE1
:101F20008B2C912C880C991CF401E658FB4F4F0127
:101F30002091D904A21608F043C0F4016081718198
:101F40000A2C02C0769567950A94E2F7B29E90013A
:101F500011242A0D311DE2E7F4E080E0458D568D15
:101F60002417350709F4F4C18F5F36968A30B1F72C
:101F700060FF24C0E2E7F4E090E080E0448D41118E
:101F800018C0E091D204F091D304E20FF31F408116
:101F900056E0589FF001599FF00D1124EE58FB4F69
:101FA000448F368F258F10A2178E61E00E94160491
:101FB00005C0019636968A30910501F7A394B8CFF3
:101FC000B394A8CFB12CF60181A18111B82EF6E00F
:101FD000CF0ED11C0C151D05B1F70E940A046093A9
:101FE000CE047093CF048093D0049093D104BB208F
:101FF000F9F0809193048823D9F080919104909115
:1020000092040197A9F410918E04111114C08091CB
:102010007403811194C00E940A0460936E0470934B
:102020006F0480937004909371040E94AF02C2CE3B
:102030001092DE04ECCF612F85EC93E00E94420207
:1020400066E672E085EC93E00E94D607812F012EB0
:10205000000C990BC0970A9718F410936F03D7CF11
:102060001D3329F510916F0315338CF6812F012E46
:10207000000C990BC09790937303809372030E9496
:1020800052061983B70184E60E94D3088091720337
:102090009091730397FF0E94FC0781E00E94C207A2
:1020A00069E672E081EE94E00E94D607B0CF133467
:1020B000B1F440916F038091720390917303FC011E
:1020C000E050FE4F242F042E000C330B2053310917
:1020D00020834983B7018B590E94D30898CF1F32C0
:1020E00029F50E940A0400916E0410916F0420915A
:1020F000700430917104AB01BC01401B510B620BA9
:10210000730B8091700390917103841B950B9093D6
:1021100071038093700380917403811104C051E0B6
:102120005093740374CF1092740371CF1A3209F074
:102130006ECF0E94400981E08093740368CF0091C4
:10214000720310917303809104029091050280172D
:102150009107E1F010930502009304020E940A0423
:1021600060936E0470936F04809370049093710475
:10217000F801E050FE4F2081229DC001239D900D6B
:10218000112490937103809370034FCF049759F4F7
:10219000EFEFFFEFF0930502E09304021092740357
:1021A0000E94400942CF0E940A0440906E04509061
:1021B0006F04609070047090710464197509860949
:1021C000970928EE33E040E050E00E9407126B5080
:1021D0007109633D734008F463C00E940A044B0117
:1021E0005C0181E00E94C20769E672E081EE94E042
:1021F0000E94D60781E00E94C207809170039091EF
:102200007103B1010E94F3118B01C501B40164197E
:1022100075098609970928EE33E040E050E00E94F6
:102220000712C801821B930B1C8A1B8A1E8A1D8AF7
:10223000188E1F8A4AE0B7010E94BE11F701019073
:102240000020E9F73197AF014E195F09B701CE01C0
:1022500043960E94A1081A8219821C821B821E8248
:102260001D826B897C896115710529F04F89588D14
:10227000C7010E94A10869EF72E0C7010E948B08A4
:10228000FC01448155816081718181EE94E00E945E
:10229000AC01C7010E942F08CE0143960E942F086F
:1022A0008091700390917103B1010E94F3114B0171
:1022B000770FAA08BB080E940A0400916E041091CF
:1022C0006F042091700430917104601B710B820BBC
:1022D000930B28EE33E040E050E00E940712821694
:1022E0009306A406B50609F0A0CE809172039091E2
:1022F0007303019665E070E00E94F311809372030E
:1023000090937303805D8983B70184E60E94D308AC
:10231000809172039091730397FF0E94FC07809154
:102320007203909173030E94520681E00E94C207DB
:1023300069E672E081EE94E00E94D6078091720314
:1023400090917303049709F070CE109274036DCED0
:1023500061702CCE81E195E00E942F088BE095E022
:102360000E942F0885E095E00E942F088FEF94E0EF
:102370000E942F0889EF94E00C942F08BB274A3065
:1023800031F4992322F4BDE2909581959F4F0C94EE
:10239000CA11BB27FB015527AA27880F991FAA1F1F
:1023A000A41710F0A41B83955051B9F7A05DAA3370
:1023B00008F0A95DA193009779F7B111B19311923B
:1023C000CB010C94E311DC01FC01672F71917723A1
:1023D000E1F7329704C07C916D9370836291AE17E0
:1023E000BF07C8F3089597FB072E16F4009407D093
:1023F00077FD09D00E94311207FC05D03EF490957C
:1024000081959F4F0895709561957F4F0895A1E242
:102410001A2EAA1BBB1BFD010DC0AA1FBB1FEE1F5E
:10242000FF1FA217B307E407F50720F0A21BB30BA9
:10243000E40BF50B661F771F881F991F1A9469F725
:1024400060957095809590959B01AC01BD01CF0181
:102450000895EE0FFF1F881F8BBF0790F691E02DA8
:102460001994AA1BBB1B51E107C0AA1FBB1FA617CB
:10247000B70710F0A61BB70B881F991F5A95A9F72D
:1024800080959095BC01CD0108950F931F93CF9334
:10249000DF938230910510F482E090E0E09119051D
:1024A000F0911A0530E020E0B0E0A0E0309799F418
:1024B0002115310509F44AC0281B390B2430310598
:1024C000D8F58A819B816115710589F1FB019383A0
:1024D0008283FE0111C0408151810281138148171E
:1024E0005907E0F04817590799F4109761F01296D0
:1024F0000C93129713961C933296CF01DF91CF91D4
:102500001F910F9108950093190510931A05F4CFA8
:102510002115310551F04217530738F0A901DB01AD
:102520009A01BD01DF01F801C1CFEF01F9CF90930E
:102530001A0580931905CDCFFE01E20FF31F819399
:1025400091932250310939832883D7CF20911705E1
:1025500030911805232B41F4209120023091210263
:10256000309318052093170520911E0230911F0209
:102570002115310541F42DB73EB74091220250910B
:102580002302241B350BE0911705F0911805E21783
:10259000F307A0F42E1B3F0B2817390778F0AC0186
:1025A0004E5F5F4F2417350748F04E0F5F1F509363
:1025B000180540931705819391939FCFF0E0E0E0D9
:1025C0009CCFCF93DF930097E9F0FC013297138201
:1025D0001282A0911905B0911A05ED0130E020E0BA
:1025E0001097A1F420813181820F931F209117054C
:1025F000309118052817390709F061C0F0931805C4
:10260000E0931705DF91CF910895EA01CE17DF0718
:10261000E8F54A815B819E0141155105B1F7E90159
:10262000FB83EA8349915991C40FD51FEC17FD072D
:1026300061F4808191810296840F951FE90199834D
:102640008883828193819B838A83F0E0E0E0129605
:102650008D919C9113970097B9F52D913C9111970D
:10266000CD010296820F931F209117053091180516
:102670002817390739F6309751F510921A0510923C
:102680001905B0931805A0931705BCCFD383C28357
:1026900040815181840F951FC817D90761F44E5F9F
:1026A0005F4F88819981480F591F518340838A81E8
:1026B0009B81938382832115310509F0B0CFF0937C
:1026C0001A05E09319059ECFFD01DC01C0CF1382EE
:1026D0001282D7CF4F925F926F927F928F929F928A
:1026E000AF92BF92CF92DF92EF92FF920F931F9320
:1026F000CF93DF938C01009799F4CB01DF91CF91B9
:102700001F910F91FF90EF90DF90CF90BF90AF900F
:102710009F908F907F906F905F904F900C94451298
:10272000FC01E60FF71F9C0122503109E217F30765
:1027300008F4AEC0D901CD91DC911197C617D70727
:1027400020F1C530D10578F0CE01049786179707A0
:1027500050F0C61BD70B2297C193D1936D937C93F6
:10276000CF010E94E112C801DF91CF911F910F911B
:10277000FF90EF90DF90CF90BF90AF909F908F90A1
:102780007F906F905F904F9008955B01AC1ABD0AE7
:102790004C018C0E9D1EA0911905B0911A05512C6B
:1027A000412CF12CE12C109731F580911705909177
:1027B00018058815990509F05CC04616570608F0FB
:1027C00058C080911E0290911F02009741F48DB76E
:1027D0009EB74091220250912302841B950BE8176B
:1027E000F90708F055C0F0931805E0931705F901B3
:1027F00071836083B8CF8D919C91119712966C90E4
:10280000129713967C901397A815B90559F56C018A
:1028100042E0C40ED11CCA14DB0420F1AC014A19F9
:102820005B09DA011296159780F0628273825183F8
:102830004083D9016D937C93E114F10471F0D701C9
:102840001396FC93EE9312978ECF22968C0F9D1FBA
:10285000F90191838083F301EFCFF0931A05E093A0
:10286000190581CF4816590608F42C017D01D301C2
:102870009ACFCB010E9445127C01009749F0AE012E
:10288000B8010E944B14C8010E94E11287016BCF6E
:1028900010E000E068CFFB01DC0102C001900D9266
:1028A00041505040D8F70895FB01DC0101900D9292
:1028B0000020E1F7089511E0C3E5D1E000E006C093
:1028C000802FFE010E9429122196011DC435D107D7
:1028D00080E00807A9F7F894FFCF04040404FFFF81
:1028E0001F21232517191B1D3738392F3435362A58
:1028F0003132332D43303D2B00001B058000050095
:10290000040003000200000000004202AC01D901F3
:102910008F020A02E801FC01000000002006F30516
:102920004F06C905EC05D905CA0500000000E10302
:10293000A103700300000000D007AC014F06720431
:102940000D0A0020202020202020202020202020D0
:10295000202020002D2D2D2057726974696E67206C
:102960002D2D2D002323232323232323232323233C
:10297000204C6F6164696E67205361766564204402
:10298000617461202323232323232323232323234D
:102990000043757272656E74204D6F6465206973B3
:1029A000207B007D004D6F64652054696D65733A2E
:1029B0000050524500444554455247454E54005737
:1029C0004154455200445259494E470046494E49E8
:0629D000534800730000F3
:020000040003F7
:10E000000D9489F10D94B2F10D94B2F10D94B2F129
:10E010000D94B2F10D94B2F10D94B2F10D94B2F1F0
:10E020000D94B2F10D94B2F10D94B2F10D94B2F1E0
:10E030000D94B2F10D94B2F10D94B2F10D94B2F1D0
:10E040000D94B2F10D94B2F10D94B2F10D94B2F1C0
:10E050000D94B2F10D94B2F10D94B2F10D94B2F1B0
:10E060000D94B2F10D94B2F10D94B2F10D94B2F1A0
:10E070000D94B2F10D94B2F10D94B2F10D94B2F190
:10E080000D94B2F10D94B2F10D94B2F10D94B2F180
:10E090000D94B2F10D94B2F10D94B2F10D94B2F170
:10E0A0000D94B2F10D94B2F10D94B2F10D94B2F160
:10E0B0000D94B2F10D94B2F10D94B2F10D94B2F150
:10E0C0000D94B2F10D94B2F10D94B2F10D94B2F140
:10E0D0000D94B2F10D94B2F10D94B2F10D94B2F130
:10E0E0000D94B2F141546D656761323536300041AF
:10E0F000726475696E6F206578706C6F72657220DE
:10E1000073746B3530305632206279204D4C530099
:10E11000426F6F746C6F616465723E004875683F52
:10E1200000436F6D70696C6564206F6E203D200048
:10E130004350552054797065202020203D20005FF9
:10E140005F4156525F415243485F5F3D2000415658
:10E1500052204C696243205665723D20004743437C
:10E160002056657273696F6E203D20004350552024
:10E1700049442020202020203D20004C6F7720663D
:10E18000757365202020203D20004869676820665F
:10E190007573652020203D200045787420667573D6
:10E1A00065202020203D20004C6F636B2066757336
:10E1B000652020203D20004D617220203720323024
:10E1C000313300312E362E3800342E332E350056A2
:10E1D00023202020414444522020206F7020636F70
:10E1E00064652020202020696E73747275637469E1
:10E1F0006F6E2061646472202020496E74657272B3
:10E20000757074006E6F20766563746F7200726A49
:10E210006D702020006A6D70200057686174207056
:10E220006F72743A00506F7274206E6F7420737541
:10E2300070706F72746564004D7573742062652030
:10E2400061206C6574746572002000577269747483
:10E25000696E672045450052656164696E672045B7
:10E26000450045452065727220636E743D00504F35
:10E27000525400303D5A65726F2061646472003FF1
:10E280003D43505520737461747300403D454550C3
:10E29000524F4D207465737400423D426C696E6B41
:10E2A000204C454400453D44756D70204545505215
:10E2B0004F4D00463D44756D7020464C415348001B
:10E2C000483D48656C70004C3D4C69737420492F83
:10E2D0004F20506F72747300513D51756974005234
:10E2E0003D44756D702052414D00563D73686F7707
:10E2F00020696E7465727275707420566563746FF0
:10E30000727300593D506F727420626C696E6B00BD
:10E310002A0011241FBECFEFD1E2DEBFCDBF01E046
:10E320000CBF12E0A0E0B2E0EEE1FDEF03E00BBFB6
:10E3300002C007900D92A030B107D9F712E0A0E01B
:10E34000B2E001C01D92AE30B107E1F70F9460F367
:10E350000D948DFE01E20EBF0FEF0DBF11241FBE05
:10E360000D9460F30D9400F020E030E040ED57E0B4
:10E3700005C0FA013197F1F72F5F3F4F2817390792
:10E38000C0F308959C01260F311DC901A0E0B0E043
:10E390002F5F3F4FABBFFC018791882361F08093D3
:10E3A000C6008091C00086FFFCCF8091C0008064D1
:10E3B0008093C000EACF08958DE08093C6008091DD
:10E3C000C00086FFFCCF8091C00080648093C000B5
:10E3D0008AE08093C6008091C00086FFFCCF8091C8
:10E3E000C00080648093C00008950F94C2F10F9420
:10E3F000DCF10895FC019081992359F09093C600B7
:10E400008091C00086FFFCCF8091C0008064809323
:10E41000C0003196992379F70895282F982F929567
:10E420009F70892F805D8A3308F0895F8093C600D2
:10E430008091C00086FFFCCF8091C00080648093F3
:10E44000C000822F8F70982F905D9A3308F0995FEB
:10E450009093C6008091C00086FFFCCF8091C000E1
:10E4600080648093C00008959C01FB01853691056E
:10E470001CF46330710594F0C90164E670E00F94F8
:10E480002EFE605D7F4F6093C6008091C00086FFC6
:10E49000FCCF8091C00080648093C0002B30310598
:10E4A00014F43297B4F0C90164E670E00F942EFEC4
:10E4B0006AE070E00F942EFE605D7F4F6093C600AF
:10E4C0008091C00086FFFCCF8091C0008064809363
:10E4D000C000C9016AE070E00F942EFEC0968093E0
:10E4E000C6008091C00086FFFCCF8091C000806490
:10E4F0008093C00008951F93182F8EE692EE60E07F
:10E500000F94C2F11093C6008091C00086FFFCCF2B
:10E510008091C00080648093C0000F94DCF11F9153
:10E5200008952F923F924F925F926F927F928F92B7
:10E530009F92AF92BF92CF92DF92EF92FF920F9392
:10E540001F93DF93CF93CDB7DEB762970FB6F894E2
:10E55000DEBF0FBECDBF382E622ECA01DB015C01CB
:10E560006D01772420E2222E2E010894411C511CBB
:10E570008BC081E0A81680E0B80681E0C80680E084
:10E58000D80628F0C601AA27BB270F940DF2BB2797
:10E59000AD2D9C2D8B2D0F940DF28A2D0F940DF225
:10E5A0002092C6008091C00086FFFCCF8091C00001
:10E5B00080648093C0009DE29093C6008091C0006B
:10E5C00086FFFCCF8091C00080648093C0002092C1
:10E5D000C6008091C00086FFFCCF8091C00080649F
:10E5E0008093C00019828601750188249924A1E0D6
:10E5F0003A1651F03A1620F0B2E03B1661F409C029
:10E600000BBFF701779007C0C7010F9477FE782EF4
:10E6100002C0F7017080872D0F940DF22092C60082
:10E620008091C00086FFFCCF8091C0008064809301
:10E63000C000872D8052F401EF70F0708F3520F408
:10E64000E40DF51D708204C0E40DF51D8EE280839B
:10E650000894E11CF11C011D111D0894811C911CE2
:10E6600090E18916910409F0C2CF80E190E0A0E02A
:10E67000B0E0A80EB91ECA1EDB1E198AC2010F9493
:10E68000FAF10F94DCF16A94662009F072CF629679
:10E690000FB6F894DEBF0FBECDBFCF91DF911F91B3
:10E6A0000F91FF90EF90DF90CF90BF90AF909F9031
:10E6B0008F907F906F905F904F903F902F90089534
:10E6C0002F923F924F925F926F927F928F929F9282
:10E6D000AF92BF92CF92DF92EF92FF920F931F9370
:10E6E000DF93CF93CDB7DEB7CD53D1400FB6F894BB
:10E6F000DEBF0FBECDBF01E20EBF0FEF0DBF94B75F
:10E70000F894A89514BE80916000886180936000A1
:10E7100010926000789493FF05C0E0910002F091A0
:10E7200001021995279A2F9A8091C00082608093E8
:10E73000C00080E18093C40088E18093C1000000A4
:10E74000EE24FF24870144E0A42EB12CCC24DD2448
:10E7500024C0C5010197F1F70894E11CF11C011DCB
:10E76000111D21E2E2162EE4F20620E0020720E06D
:10E77000120718F031E0C32ED12CC801B70127ECE5
:10E780003BE140E050E00F9441FE611571058105C9
:10E79000910519F485B1805885B98091C00087FD35
:10E7A00003C0C114D104A9F2A6014F5F5F4FC25E3E
:10E7B000DE4F59834883CE51D140C25EDE4F8881FF
:10E7C0009981CE51D140019711F00D9410FEC05D9A
:10E7D000DE4F19821882C053D14060E0C15DDE4F28
:10E7E0001882CF52D14088249924C35DDE4F19820C
:10E7F0001882CD52D140C05EDE4F188219821A8233
:10E800001B82C052D140CE5CDE4F188219821A8220
:10E810001B82C253D140EE24FF2487010BBFF701B6
:10E8200007911691C45CDE4F19830883CC53D14005
:10E830000D940BFEC25EDE4F28813981CE51D1404E
:10E840002130310509F52091C600C25EDE4F1982E4
:10E850001882CE51D14022C02F5F3F4F4F4F5F4FA4
:10E86000213082E138078AE7480780E0580780F0C6
:10E87000C45CDE4FE881F981CC53D140EF5FFF4F9C
:10E8800019F0EE27FF27099420E030E040E050E047
:10E890008091C00087FFE0CF2091C600C35DDE4FAE
:10E8A00048815981CD52D1404F5F5F4FC35DDE4FEC
:10E8B00059834883CD52D140213209F063C64A3092
:10E8C000510508F05FC60894811C911C53E0851621
:10E8D000910409F059C600E010E018C081E280936D
:10E8E000C6008091C00086FFFCCF8091C00080648C
:10E8F0008093C0002F5F3F4F2931310579F70F9486
:10E90000DCF10F5F1F4F0530110519F020E030E0FA
:10E91000E5CF10920A0210920B0210920C02109294
:10E920000D02109206021092070210920802109235
:10E930000902109202021092030210920402109235
:10E9400005028FEE90EE60E00F94F5F180E191EE1C
:10E9500060E00F94C2F18091C00087FFFCCF9091DE
:10E96000C600903608F09F759032B8F09093C600BC
:10E970008091C00086FFFCCF8091C00080648093AE
:10E98000C000A0E2A093C6008091C00086FFFCCF2B
:10E990008091C00080648093C000983409F4D7C18E
:10E9A0009934B8F4923409F459C1933458F490333B
:10E9B00019F1903308F4E3C59F33A1F1903409F0C5
:10E9C000DEC5BDC0953409F470C1963409F0D7C5D1
:10E9D00098C1923509F42BC2933538F49C3409F46C
:10E9E000F5C1913509F0CBC518C2963509F445C279
:10E9F000993509F0C4C567C483E792EE62E00F94CD
:10EA0000F5F110920602109207021092080210927D
:10EA1000090210920A0210920B0210920C0210923C
:10EA20000D0213C18FE792EE62E00F94F5F18FEEC5
:10EA300090EE60E00F94F5F181E291EE60E00F94CA
:10EA4000C2F187EB91EE60E00F94F5F180E391EE77
:10EA500060E00F94C2F184EE90EE60E00F94F5F167
:10EA60008FE391EE60E00F94C2F186E090E061E008
:10EA700070E00F9434F20F94DCF18DE591EE60E0DC
:10EA80000F94C2F189EC91EE60E00F94F5F18EE401
:10EA900091EE60E00F94C2F183EC91EE60E00F9490
:10EAA000F5F18CE691EE60E00F94C2F18EE10F94E7
:10EAB0000DF288E90F940DF281E00F940DF20F949E
:10EAC000DCF18BE791EE60E00F94C2F119E0E0E039
:10EAD000F0E010935700E4918E2F0F940DF20F94F5
:10EAE000DCF18AE891EE60E00F94C2F1E3E0F0E03F
:10EAF00010935700E4918E2F0F940DF20F94DCF1D8
:10EB000089E991EE60E00F94C2F1E2E0F0E0109349
:10EB10005700E4918E2F0F940DF20F94DCF188EAE8
:10EB200091EE60E00F94C2F1E1E0F0E01093570045
:10EB30001491812F0F940DF20F94DCF107CF8BE825
:10EB400092EE62E00F94F5F18BE492EE60E00F94A8
:10EB5000F5F10F94DCF100E010E019C0C8016F2D51
:10EB60000F947FFEFF2031F489E492EE60E00F9471
:10EB7000C2F10BC0F092C6008091C00086FFFCCFAE
:10EB80008091C00080648093C0000F5F1F4FC80158
:10EB900081519F41A0E0B0E0ABBFFC01F790BAE229
:10EBA000FB1621F0E2E000301E07C1F60F94DCF105
:10EBB0000F94DCF187E592EE60E00F94F5F10F948D
:10EBC000DCF1CC24DD2400E010E01EC0C8010F946D
:10EBD00077FEF82E882331F489E492EE60E00F94FA
:10EBE000C2F10BC08093C6008091C00086FFFCCFAD
:10EBF0008091C00080648093C000FE1419F00894D6
:10EC0000C11CD11C0F5F1F4FC80181519F41A0E063
:10EC1000B0E0ABBFFC01E790FAE2EF1621F022E092
:10EC20000030120799F60F94DCF10F94DCF182E6C4
:10EC300092EE60E00F94C2F1C60161E070E00F94C3
:10EC400034F20F94DCF10F94DCF110920202109276
:10EC50000302109204021092050278CE89E992EE26
:10EC600062E00F94F5F1279A2F9A16C02F9880E052
:10EC700090E0E0EDF7E03197F1F7019684369105E9
:10EC8000C1F72F9A80E090E0E0EDF7E03197F1F7DF
:10EC9000019684369105C1F78091C00087FFE6CFC9
:10ECA0008091C00087FFFCCF64C485EA92EE62E0E9
:10ECB0000F94F5F140910202509103026091040219
:10ECC0007091050281E020E10F9491F2809102029F
:10ECD00090910302A0910402B091050280509F4FD1
:10ECE000AF4FBF4F8093020290930302A0930402A0
:10ECF000B093050280509041A040B04008F426CE69
:10ED0000A4CF83EB92EE62E00F94F5F140910602FE
:10ED100050910702609108027091090280E020E1A1
:10ED20000F9491F28091060290910702A09108023F
:10ED3000B091090280509F4FAF4FBF4F80930602A2
:10ED400090930702A0930802B0930902FFCD80ECD4
:10ED500092EE62E00F94F5F183E792EE60E00F949B
:10ED6000F5F18FE792EE60E00F94F5F18BE892EE0B
:10ED700060E00F94F5F189E992EE60E00F94F5F10F
:10ED800085EA92EE60E00F94F5F183EB92EE60E09D
:10ED90000F94F5F180EC92EE60E00F94F5F187ECC2
:10EDA00092EE60E00F94F5F188ED92EE60E00F9442
:10EDB000F5F18FED92EE60E00F94F5F18AEE92EEB0
:10EDC00060E00F94F5F183E093EEBDCD87EC92EE19
:10EDD00062E00F94F5F181E40F947BF282E40F94EA
:10EDE0007BF283E40F947BF284E40F947BF285E45E
:10EDF0000F947BF286E40F947BF287E40F947BF20E
:10EE000088E40F947BF28AE40F947BF28BE40F94F6
:10EE10007BF28CE40F947BF299CD88ED92EE62E068
:10EE20000F94F5F1772473948824992409C48FED05
:10EE300092EE62E00F94F5F140910A0250910B02BC
:10EE400060910C0270910D0282E020E10F9491F22A
:10EE500080910A0290910B02A0910C02B0910D02D8
:10EE600080509F4FAF4FBF4F80930A0290930B0289
:10EE7000A0930C02B0930D0269CD8AEE92EE62E08F
:10EE80000F94F5F184EE90EE60E00F94F5F18FECC5
:10EE900091EE60E00F94F5F1662477244301CC5D98
:10EEA000DE4F19821882C452D140D401C301B695F5
:10EEB000A79597958795CA5DDE4F88839983AA8326
:10EEC000BB83C652D140CC5DDE4FA881B981C4520C
:10EED000D1401196CC5DDE4FB983A883C452D14096
:10EEE000CD0162E070E00F9434F2B0E2B093C6005E
:10EEF0008091C00086FFFCCF8091C0008064809329
:10EF0000C000EDE2E093C6008091C00086FFFCCF18
:10EF10008091C00080648093C000F0E2F093C6004E
:10EF20008091C00086FFFCCF8091C00080648093F8
:10EF3000C000CA5DDE4FE880F9800A811B81C6529D
:10EF4000D140BB27A12F902F8F2D0F940DF2CA5DBA
:10EF5000DE4F8881C652D1400F940DF2B0E2FB2EF5
:10EF6000F092C6008091C00086FFFCCF8091C00067
:10EF700080648093C0000DE30093C6008091C000C0
:10EF800086FFFCCF8091C00080648093C00010E2B7
:10EF90001093C6008091C00086FFFCCF8091C00016
:10EFA00080648093C0008BBEF3012791C65DDE4F65
:10EFB0002883CA52D140A22EBB24CC24DD2408943D
:10EFC000611C711C811C911C8BBEF3018791282E42
:10EFD0003324442455240894611C711C811C911C09
:10EFE0008BBEF3013791C55DDE4F3883CB52D140E4
:10EFF0000894611C711C811C911C8BBEF30147910C
:10F00000C45DDE4F4883CC52D140ADEFEA2EAFEF66
:10F01000FA2EAFEF0A2FAFEF1A2F6E0C7F1C801E57
:10F02000911E142D032DF22CEE24EA0CFB1C0C1D5A
:10F030001D1D0F940DF220E22093C6008091C000A8
:10F0400086FFFCCF8091C00080648093C000C65DC5
:10F05000DE4F8881CA52D1400F940DF230E23093D6
:10F06000C6008091C00086FFFCCF8091C000806404
:10F070008093C000C45DDE4F8881CC52D1400F9494
:10F080000DF240E24093C6008091C00086FFFCCFA5
:10F090008091C00080648093C000C55DDE4F888190
:10F0A000CB52D1400F940DF250E25093C6008091A4
:10F0B000C00086FFFCCF8091C00080648093C000B8
:10F0C0008FEFE8168FEFF80680E0080780E018075A
:10F0D00031F484E092EE60E00F94C2F1DFC0D80119
:10F0E000C7018070907CA070B0708050904CA040A0
:10F0F000B040D1F52FEF3FE340E050E0E222F322B1
:10F1000004231523CA5DDE4FA880B980CA80DB8046
:10F11000C652D140AE0CBF1CC01ED11EAA0CBB1CD7
:10F12000CC1CDD1C8EE092EE60E00F94C2F1BB2798
:10F13000A12F902F8F2D0F940DF28E2D0F940DF285
:10F1400030E23093C6008091C00086FFFCCF8091F2
:10F15000C00080648093C0004EE34093C60080915D
:10F16000C00086FFFCCF87C08EE09EEFA0E0B0E03D
:10F17000E822F9220A231B239CE0E91694E9F90608
:10F1800090E0090790E0190709F088C0C45DDE4FE0
:10F19000A881CC52D140EA2EFF2400E010E0102FCD
:10F1A0000F2DFE2CEE24C55DDE4FB881CB52D14031
:10F1B000EB0EF11C011D111DD601C501817090706F
:10F1C000A070B070DC0199278827E80EF91E0A1F8D
:10F1D0001B1F20EF30E040E050E0A222B322C42207
:10F1E000D52241E1AA0CBB1CCC1CDD1C4A95D1F7F1
:10F1F000EA0CFB1C0C1D1D1D81E090E0A0E0B0E0BE
:10F20000282239224A225B2235E1220C331C441C7D
:10F21000551C3A95D1F7E20CF31C041D151D57013E
:10F220006801AA0CBB1CCC1CDD1C85E192EE60E0E1
:10F230000F94C2F1C801AA27BB270F940DF2BB2778
:10F24000A12F902F8F2D0F940DF28E2D0F940DF274
:10F2500090E29093C6008091C00086FFFCCF809121
:10F26000C00080648093C000AEE3A093C60080918C
:10F27000C00086FFFCCF8091C00080648093C000F6
:10F28000C601AA27BB270F940DF2BB27AD2D9C2DDD
:10F290008B2D0F940DF28A2D0F940DF20F94DCF14B
:10F2A000CC5DDE4FE881F981C452D140F99709F471
:10F2B0004DCBF4E0EF2EF12C012D112D6E0C7F1CA7
:10F2C000801E911EF2CD83E093EE62E00F94F5F183
:10F2D0008AE192EE60E00F94C2F18091C00087FF56
:10F2E000FCCF1091C6001F751093C6008091C0001E
:10F2F00086FFFCCF8091C00080648093C0000F9493
:10F30000DCF1812F81548A3108F036C1163409F4BA
:10F3100095C0173490F4133409F44EC0143430F40B
:10F320001134F1F0123409F01DC130C0143409F465
:10F3300059C0153409F016C16BC01A3409F4C4C0A1
:10F340001B3438F4173409F48FC0183409F00AC19B
:10F35000A1C01B3409F4D2C01C3409F003C1E8C0B9
:10F360008FEF81B90DC082B1809582B980E090E0C5
:10F37000E0EDF7E03197F1F70196883C9105C1F790
:10F380008091C00087FFEFCF12B8EFC08FEF84B934
:10F390000DC085B1809585B980E090E0E0EDF7E0A3
:10F3A0003197F1F70196883C9105C1F78091C00033
:10F3B00087FFEFCF15B8D9C08FEF87B90DC088B1DF
:10F3C000809588B980E090E0E0EDF7E03197F1F7C3
:10F3D0000196883C9105C1F78091C00087FFEFCF6F
:10F3E00018B8C3C08FEF8AB90DC08BB180958BB9A7
:10F3F00080E090E0E0EDF7E03197F1F70196883C8E
:10F400009105C1F78091C00087FFEFCF1BB8ADC059
:10F410008FEF8DB90DC08EB180958EB980E090E0F0
:10F42000E0EDF7E03197F1F70196883C9105C1F7DF
:10F430008091C00087FFEFCF1EB897C08FEF80BBD1
:10F440000DC081B3809581BB80E090E0E0EDF7E0F6
:10F450003197F1F70196883C9105C1F78091C00082
:10F4600087FFEFCF11BA81C08FEF83BB0DC084B38C
:10F47000809584BB80E090E0E0EDF7E03197F1F714
:10F480000196883C9105C1F78091C00087FFEFCFBE
:10F4900014BA6BC08FEF809301010FC080910201FD
:10F4A00080958093020180E090E0E0EDF7E03197F5
:10F4B000F1F70196883C9105C1F78091C00087FF64
:10F4C000EDCF1092020151C08FEF809304010FC065
:10F4D0008091050180958093050180E090E0E0ED4A
:10F4E000F7E03197F1F70196883C9105C1F78091DB
:10F4F000C00087FFEDCF1092050137C08FEF8093DA
:10F5000007010FC08091080180958093080180E079
:10F5100090E0E0EDF7E03197F1F70196883C910536
:10F52000C1F78091C00087FFEDCF109208011DC088
:10F530008FEF80930A010FC080910B01809580931B
:10F540000B0180E090E0E0EDF7E03197F1F70196F4
:10F55000883C9105C1F78091C00087FFEDCF1092E4
:10F560000B0103C085E292EEEEC98091C00087FFD7
:10F57000FCCF8091C600EAC988E392EEE4C98CE131
:10F5800091EEE1C988249924933011F1943028F444
:10F59000913089F09230B8F408C0953061F195301F
:10F5A000F0F0963009F048C043C02B3109F042C951
:10F5B00091E06BE13FC96227C15DDE4F2883CF52E6
:10F5C000D14092E037C9B22FA0E0622793E032C960
:10F5D000822F90E0A82BB92B622794E02BC92E3004
:10F5E00009F039C3622795E0C05DDE4F19821882A9
:10F5F000C053D1401FC9E1E0F0E0EC0FFD1FC05D3A
:10F60000DE4F08811981C053D140E00FF11F2083E4
:10F610000F5F1F4FC05DDE4F19830883C053D14079
:10F6200062270A171B0709F005C9D80196E002C92D
:10F63000261709F010C303C0973009F0FBC87724E0
:10F640009981933109F412C19431C8F4963009F4C8
:10F65000D8C0973050F4923009F406C1933009F4C1
:10F660006DC0913009F059C253C0913109F477C08F
:10F67000923108F0BBC0903109F04FC2F5C098310B
:10F6800009F487C0993150F4953109F4EFC09531F0
:10F6900008F4C6C1963109F040C2C2C19A3109F4DA
:10F6A0006CC09A3108F491C09B3109F45BC09D3164
:10F6B00009F033C29D81903359F48F81882311F46E
:10F6C0009EE11CC0813011F091E018C098E916C08D
:10F6D000892F807591F0903539F4E0E0F0E089E011
:10F6E0008093570094910AC0983539F4E3E0F0E034
:10F6F00089E080935700949101C090E01A821B82A8
:10F700008D818C831D829E831F8227E030E009C299
:10F710001A8288E08B8381E48C8386E58D8382E581
:10F720008E8389E48F8383E5888780E589878FE5E9
:10F730008A8782E38B872BE030E0F3C18A818139AD
:10F7400041F0823941F0803911F48FE005C080E04A
:10F7500003C082E001C08AE01A828B8344C0772410
:10F76000739482C08D81882311F48EE12CC0813086
:10F7700011F081E028C088E926C01A82E1E0F0E0BB
:10F7800089E08093570084918B831C8224E030E0D1
:10F79000C8C18B81803589F48C81883039F4E2E0EE
:10F7A000F0E089E08093570084910DC0E0E0F0E044
:10F7B00089E080935700849106C0E3E0F0E089E09F
:10F7C0008093570084911A82DFCF8D81836C99E0FA
:10F7D000E1E0F0E0082E90935700E89507B600FCB2
:10F7E000FDCF1A821B8223E030E09BC180EC8A832C
:10F7F000CE5CDE4F188219821A821B82C253D1401E
:10F800008EC18A8190E0A0E0B0E0582F44273327D2
:10F8100022278B8190E0A0E0B0E0DC0199278827C7
:10F82000282B392B4A2B5B2B8D8190E0A0E0B0E098
:10F83000282B392B4A2B5B2B8C8190E0A0E0B0E089
:10F84000BA2FA92F982F8827282B392B4A2B5B2BCF
:10F85000220F331F441F551FC05EDE4F288339839C
:10F860004A835B83C052D1401A8259C13A81C95C34
:10F87000DE4F3883C753D140CA5CDE4F1882C6536F
:10F88000D1408B81C82EDD24CA5CDE4F488159816E
:10F89000C653D140C42AD52A933109F082C0CE5C28
:10F8A000DE4F88819981AA81BB81C253D1408050AB
:10F8B000904CA340B04030F583E0CE5CDE4FE88052
:10F8C000F9800A811B81C253D140F70100935B008C
:10F8D00080935700E89507B600FCFDCFCE5CDE4F65
:10F8E000088119812A813B81C253D14000501F4FAA
:10F8F0002F4F3F4FCE5CDE4F088319832A833B8313
:10F90000C253D140C05EDE4F488159816A817B81FC
:10F91000C052D140DE011B9631E08C9111962C91A2
:10F9200011971296C75CDE4F2883C953D140C85C3B
:10F93000DE4F1882C853D14090E0C85CDE4FE881AA
:10F94000F981C853D1408E2B9F2B0C01FA01609393
:10F950005B0030935700E89511244E5F5F4F6F4F67
:10F960007F4F0EEFE02E0FEFF02ECE0CDF1CC114F8
:10F97000D10499F685E0C05EDE4F088119812A81A5
:10F980003B81C052D140F80120935B008093570027
:10F99000E89507B600FCFDCF81E180935700E8951C
:10F9A00035C0C05EDE4F88819981AA81BB81C0527B
:10F9B000D140B695A795979587957C018601ABE0D8
:10F9C000AA2EB12CAC0EBD1E0BC0D5016D915D01F0
:10F9D000C7010F947FFE0894E11CF11C01501040F8
:10F9E0000115110591F7A60160E070E0440F551F65
:10F9F000661F771FC05EDE4FE880F9800A811B8199
:10FA0000C052D1404E0D5F1D601F711F1A82C05E33
:10FA1000DE4F488359836A837B83C052D1407FC0C5
:10FA2000FA80C55CDE4FF882CB53D140C65CDE4F16
:10FA30001882CA53D1408B81C82EDD24C65CDE4FAC
:10FA400008811981CA53D140C02AD12A1A828981DA
:10FA5000BE016D5F7F4F843121F59601C05EDE4FA0
:10FA6000E880F9800A811B81C052D1400BBFF701A9
:10FA700087919691DB018C9311969C936E5F7F4FDB
:10FA8000D801C7010296A11DB11DC05EDE4F88835B
:10FA90009983AA83BB83C052D14022503040F1F6F3
:10FAA00036C0C05EDE4F288139814A815B81C052F9
:10FAB000D1400894C108D108760100E010E0089414
:10FAC000C11CD11C0894E11CF11C011D111DE20E8A
:10FAD000F31E041F151F21BDBB27A52F942F832FB5
:10FAE00082BD2F5F3F4F4F4F5F4FF89A80B5DB01CC
:10FAF0008D93BD012E153F054007510761F7C05E8C
:10FB0000DE4F288339834A835B83C052D1409601FC
:10FB10002D5F3F4FFB01108204C080EC8A8322E0FE
:10FB200030E08BE18093C6008091C00086FFFCCF5F
:10FB30008091C00080648093C000C15DDE4FF88179
:10FB4000CF52D140F093C6008091C00086FFFCCF19
:10FB50008091C00080648093C000432F3093C60022
:10FB60008091C00086FFFCCF8091C00080648093AC
:10FB7000C000922F2093C6008091C00086FFFCCF6A
:10FB80008091C00080648093C0008EE08093C600A6
:10FB90008091C00086FFFCCF8091C000806480937C
:10FBA000C00065E1C15DDE4FE880CF52D1406E25D7
:10FBB00069276427FE01319610C090819093C6009A
:10FBC0008091C00086FFFCCF31968091C000806498
:10FBD0008093C0006927215030402115310569F715
:10FBE0006093C6008091C00086FFFCCF8091C0006A
:10FBF00080648093C00085B1805885B9772081F4F6
:10FC0000C15DDE4F0881CF52D1400F5FC15DDE4F35
:10FC10000883CF52D14090E0A0E0B0E00D941AF4F8
:10FC200027982F9880E090E020ED37E0F901319798
:10FC3000F1F7019684369105C9F700008091C00064
:10FC40008D7F8093C00081E180935700E895EE2777
:10FC5000FF270994FFCF90E00D941AF497FB092E2B
:10FC600007260AD077FD04D02ED006D000201AF443
:10FC7000709561957F4F0895F6F7909581959F4F08
:10FC80000895A1E21A2EAA1BBB1BFD010DC0AA1FDD
:10FC9000BB1FEE1FFF1FA217B307E407F50720F0F5
:10FCA000A21BB30BE40BF50B661F771F881F991F70
:10FCB0001A9469F760957095809590959B01AC01B9
:10FCC000BD01CF010895AA1BBB1B51E107C0AA1FAC
:10FCD000BB1FA617B70710F0A61BB70B881F991FED
:10FCE0005A95A9F780959095BC01CD010895F99991
:10FCF000FECF92BD81BDF89A992780B50895262F31
:10FD0000F999FECF1FBA92BD81BD20BD0FB6F89400
:0EFD1000FA9AF99A0FBE01960895F894FFCF63
:00000001FF
