:100000000C942B010C945C010C945C010C945C012D
:100010000C945C010C945C010C945C010C945C01EC
:100020000C945C010C945C010C945C010C945C01DC
:100030000C945C010C945C010C945C010C945C01CC
:100040000C945C010C9479050C945C010C945C019B
:100050000C945C010C945C010C945C010C94A50460
:100060000C945C010C946F040C9445040C945C019A
:100070000C945C010C945C010C945C010C945C018C
:100080000C944B050C945C010C945C010C945C0189
:100090000C945C010C945C010C945C010C945C016C
:1000A0000C945C010C945C010C941D050C945C0197
:1000B0000C945C010C945C010C945C010C94EF04B6
:1000C0000C945C010C945C010C945C010C945C013C
:1000D0000C945C010C945C010C945C010C945C012C
:1000E0000C945C010C9400030C94C2020C940E035B
:1000F0000C940A030C94E8020C94E5020C94EE02B2
:100100000C94A7050C9406030C948B010C94C70265
:100110000C9487080C94D9020C949A010C94F20266
:100120000C94F4010C94DD020C9414030C94E10281
:100130000C94FC020C94F8020C94BC010C9418036F
:100140000C94AE010C945E010C94410200000A0B69
:1001500002090C0D0E080703040100000000000056
:10016000000000000000000000000000000000008F
:10017000000000000000000012111000000000004C
:10018000000000000000000000000000000000006F
:10019000000000002200250028002B002E00310066
:1001A000340002010000050108010B0100002100DC
:1001B000240027002A002D00300033000101000038
:1001C000040107010A0105050505070508080808D7
:1001D000020202020A0A08080404040401010101DF
:1001E00001010101030303030303030304070707DA
:1001F0000C0C0C0C0C0C0C0C02020202060606067F
:10020000060606060B0B0B0B0B0B0B0B010210204B
:10021000200808102040102040800201020108043C
:1002200002010102040810204080804020100804D0
:100230000201800402018040201008040201080429
:10024000020101020408102040800102040810206D
:100250004080A705870811241FBECFEFD1E2DEBF83
:10026000CDBF00E00CBF12E0A0E0B2E0ECE7F6E1A9
:1002700000E00BBF02C007900D92AC32B107D9F776
:1002800023E0ACE2B2E001C01D92AC37B207E1F767
:1002900011E0CAE2D1E000E006C021970109802FF9
:1002A000FE010E940709C932D10780E00807A9F7BB
:1002B0000E9427060C942C0B0C940000AF92BF9266
:1002C000CF92DF92EF92FF920F931F93CF93DF9322
:1002D0006C017B018B01040F151FEB015E01AE1851
:1002E000BF08C017D10759F06991D601ED91FC9173
:1002F0000190F081E02DC6011995892B79F7C50190
:10030000DF91CF911F910F91FF90EF90DF90CF90F1
:10031000BF90AF900895FC01538D448D252F30E0A0
:10032000842F90E0821B930B541710F0CF96089502
:1003300001970895FC01918D828D981761F0A28D2F
:10034000AE0FBF2FB11D5D968C91928D9F5F9F73F5
:10035000928F90E008958FEF9FEF0895FC01918DAB
:10036000828D981731F0828DE80FF11D858D90E018
:1003700008958FEF9FEF0895FC01918D228D892FB5
:1003800090E0805C9F4F821B91098F73992708959D
:100390008BE392E00E94BC0121E0892B09F420E06C
:1003A000822F0895FC01A48DA80FB92FB11DA35A67
:1003B000BF4F2C91848D90E001968F739927848F85
:1003C000A689B7892C93A089B1898C9183708064A8
:1003D0008C93938D848D981306C00288F389E02D49
:1003E00080818F7D80830895EF92FF920F931F93FA
:1003F000CF93DF93EC0181E0888F9B8D8C8D9813D8
:100400001AC0E889F989808185FF15C09FB7F894E3
:10041000EE89FF896083E889F9898081837080642F
:1004200080839FBF81E090E0DF91CF911F910F917A
:10043000FF90EF900895F62E0B8D10E00F5F1F4F89
:100440000F731127E02E8C8D8E110CC00FB607FC98
:10045000FACFE889F989808185FFF5CFCE010E9426
:10046000D201F1CFEB8DEC0FFD2FF11DE35AFF4FC1
:10047000F0829FB7F8940B8FEA89FB8980818062B4
:10048000CFCFCF93DF93EC01888D8823B9F0AA8971
:10049000BB89E889F9898C9185FD03C0808186FD3F
:1004A0000DC00FB607FCF7CF8C9185FFF2CF80818E
:1004B00085FFEDCFCE010E94D201E9CFDF91CF9130
:1004C000089580E090E0892B29F00E94C8018111F5
:1004D0000E94000080E090E0892B49F080E090E0ED
:1004E000892B29F00E94000081110E94000080E009
:1004F00090E0892B49F080E090E0892B29F00E9460
:10050000000081110E94000080E090E0892B49F0FA
:1005100080E090E0892B29F00E94000081110C946A
:1005200000000895282F30E0F901E45BFE4F94911C
:10053000F901E45FFD4F44912A533E4FF9012491A4
:10054000222309F435C0992311F191509231F8F426
:10055000E92FF0E08827E055FD4F8F4F0C940709F5
:10056000E102E502C202D902DD02C702E802EE02A0
:10057000F202F802FC02000306030A03C7020E039C
:1005800014031803809180008F7780938000E22FFE
:10059000F0E0EE0FFF1FEE56FE4FA591B4918FB71E
:1005A000F894EC91611148C040954E234C938FBF55
:1005B0000895809180008F7DE8CF80918000877FB3
:1005C000E4CF84B58F7784BDE2CF84B58F7DFBCF38
:1005D0008091B0008F778093B000D9CF8091B00028
:1005E0008F7DF9CF809190008F7780939000CFCF4F
:1005F000809190008F7DF9CF80919000877FF5CF1B
:100600008091A0008F778093A000C1CF8091A0003F
:100610008F7DF9CF8091A000877FF5CF8091200159
:100620008F7780932001B3CF809120018F7DF9CF08
:1006300080912001877FF5CF4E2BB8CF3FB7F8943C
:100640008091350290913602A0913702B091380224
:1006500026B5A89B05C02F3F19F00196A11DB11D1D
:100660003FBFBA2FA92F982F8827BC01CD01620F59
:10067000711D811D911D42E0660F771F881F991F14
:100680004A95D1F70895AF92BF92CF92DF92EF9241
:10069000FF920F931F93CF93DF936B017A01EC01CD
:1006A000C45DDD4F28813CE0389F8001399F100DEB
:1006B0001124A0906803B12C27FF1FC0FB011182F9
:1006C000108288818F5F888388819801280F311D6F
:1006D00087FD3A95F6012A153B051CF488818C307C
:1006E000C4F180819181049680349C4908F473C0E0
:1006F000F60180819181049670C088819801280F4D
:10070000311D87FD3A952A153B05DCF68881A80145
:10071000480F511D87FD5A95FA01EE0FFF1FE40F98
:10072000F51FE852FD4F808186FFCBCF8881F8010D
:10073000E80FF11D87FDFA95CF01EE0FFF1FE80FBF
:10074000F91FE852FD4F808160E08F730E94920292
:10075000B8CF808191812881A801420F511D27FDCA
:100760005A959A01FA01EE0FFF1FE20FF31FE852AC
:10077000FD4F21813281820F931FF7019183808386
:1007800088819801280F311D87FD3A95F901EE0FF8
:10079000FF1FE20FF31FE852FD4F808186FF22C04A
:1007A0008881080F111D87FD1A95F801EE0FFF1FB4
:1007B000E00FF11FE852FD4F808161E08F73DF9100
:1007C000CF911F910F91FF90EF90DF90CF90BF904E
:1007D000AF900C94920280E49CE9F70191838083AE
:1007E0008FEF8883DF91CF911F910F91FF90EF9052
:1007F000DF90CF90BF90AF900895FC010190002052
:10080000E9F73197AF01481B590BBC018BE392E02C
:100810000C945E010F931F93CF93DF93EC018B0138
:1008200088819981009729F02A813B812617370713
:1008300088F4B8016F5F7F4F0E943B0A009799F0E0
:10084000998388831B830A832C813D81232B11F498
:10085000FC0110821D830C836AE272E08881998119
:100860000E94250B0CC088819981009711F00E948D
:10087000B209198218821D821C821B821A82CE0143
:10088000DF91CF911F910F9108951F920F920FB694
:100890000F9211240BB60F922F933F934F935F93B8
:1008A0006F937F938F939F93AF93BF93EF93FF9338
:1008B0008BE392E00E94D201FF91EF91BF91AF9143
:1008C0009F918F917F916F915F914F913F912F9168
:1008D0000F900BBE0F900FBE0F901F9018951F9298
:1008E0000F920FB60F9211240BB60F922F938F9386
:1008F0009F93EF93FF93E0914B02F0914C02808124
:10090000E0915102F091520282FD1DC090818091D0
:1009100054028F5F8F7320915502821741F0E0914E
:100920005402F0E0E55CFD4F958F80935402FF91F7
:10093000EF919F918F912F910F900BBE0F900FBE53
:100940000F901F9018958081F2CF1F920F920FB6D3
:100950000F9211242F933F938F939F93AF93BF9345
:100960008091310290913202A0913302B091340211
:100970003091300223E0230F2D3758F50196A11D49
:10098000B11D209330028093310290933202A093E4
:100990003302B09334028091350290913602A091D7
:1009A0003702B09138020196A11DB11D8093350226
:1009B00090933602A0933702B0933802BF91AF9163
:1009C0009F918F913F912F910F900FBE0F901F908D
:1009D000189526E8230F0296A11DB11DD2CF1F92B4
:1009E0000F920FB60F9211240BB60F922F933F93D5
:1009F0004F935F936F937F938F939F93AF93BF9327
:100A0000EF93FF9348E251E064E271E090E080E010
:100A10000E944303FF91EF91BF91AF919F918F91FE
:100A20007F916F915F914F913F912F910F900BBEEE
:100A30000F900FBE0F901F9018951F920F920FB638
:100A40000F9211240BB60F922F933F934F935F9306
:100A50006F937F938F939F93AF93BF93EF93FF9386
:100A600048EA50E064EA70E083E090E00E944303CB
:100A7000FF91EF91BF91AF919F918F917F916F9176
:100A80005F914F913F912F910F900BBE0F900FBE32
:100A90000F901F9018951F920F920FB60F9211246E
:100AA0000BB60F922F933F934F935F936F937F9368
:100AB0008F939F93AF93BF93EF93FF9348E950E0D9
:100AC00064E970E082E090E00E944303FF91EF91BF
:100AD000BF91AF919F918F917F916F915F914F9156
:100AE0003F912F910F900BBE0F900FBE0F901F9054
:100AF00018951F920F920FB60F9211240BB60F92FA
:100B00002F933F934F935F936F937F938F939F9315
:100B1000AF93BF93EF93FF9348E850E064E870E031
:100B200081E090E00E944303FF91EF91BF91AF916C
:100B30009F918F917F916F915F914F913F912F91F5
:100B40000F900BBE0F900FBE0F901F901895109234
:100B50003E0210923D0288EE93E0A0E0B0E0809368
:100B60003F0290934002A0934102B09342028AE078
:100B700092E090933C0280933B0285EC90E090934E
:100B800048028093470284EC90E090934A0280935D
:100B9000490280EC90E090934C0280934B0281ECF0
:100BA00090E090934E0280934D0282EC90E09093FF
:100BB000500280934F0286EC90E090935202809313
:100BC0005102109254021092550210925602109245
:100BD0005702809168038033B0F591E0980F9093AD
:100BE00068038093750390E0FC01EE0FFF1FE80F90
:100BF000F91FE852FD4F88EB9BE0928381831092AE
:100C0000700310926F03109272031092710310928E
:100C100074031092730370E060E08FE693E00E942B
:100C20000A0410926A031092690310926C031092E6
:100C30006B0310926E0310926D0370E060E089E622
:100C400093E00C940A048FEF80937503D8CFCF9371
:100C5000DF93CDB7DEB7A1970FB6F894DEBF0FBE16
:100C6000CDBF789484B5826084BD84B5816084BD35
:100C700085B5826085BD85B5816085BD80916E003A
:100C8000816080936E00109281008091810082606B
:100C900080938100809181008160809381008091A8
:100CA00080008160809380008091B1008460809397
:100CB000B1008091B00081608093B000809191007C
:100CC0008260809391008091910081608093910077
:100CD000809190008160809390008091A10082605B
:100CE0008093A1008091A10081608093A1008091F8
:100CF000A00081608093A000809121018260809398
:100D00002101809121018160809321018091200146
:100D100081608093200180917A00846080937A00C2
:100D200080917A00826080937A0080917A0081605D
:100D300080937A0080917A00806880937A00109284
:100D4000C10080917503803308F06BC0E5E1F2E0EB
:100D50002491EFECF1E08491882399F090E0880FE2
:100D6000991FFC01E455FE4FA591B491FC01EE568C
:100D7000FE4F859194918FB7F894EC91E22BEC9310
:100D80008FBF80917503282F30E0F901EE0FFF1F10
:100D9000E20FF31FE852FD4F9081907C99609083A1
:100DA0009EE89093760394E6909377032CE0622F6D
:100DB0000E94FB08829FB001112430E020E0AB01CB
:100DC000420F531FFA01EE0FFF1FE40FF51FE85209
:100DD000FD4F908196FD17C02F5F3F4F2C3031059E
:100DE00071F7813009F053C11092800082E0809346
:100DF00081001092850010928400B19A80916F005A
:100E0000826080936F00E09175038E2F90E0FC016B
:100E1000EE0FFF1FE80FF91FE852FD4F808180643D
:100E20008083E0914B02F0914C0282E08083E0915C
:100E30004702F09148021082E0914902F0914A0283
:100E40008FEC808310925302E0914F02F091500298
:100E500086E08083E0914D02F0914E0280818061B6
:100E60008083E0914D02F0914E0280818860808302
:100E7000E0914D02F0914E02808180688083E09184
:100E80004D02F0914E0280818F7D808370E060E0A2
:100E90008FE693E00E940A04AAE08A2E912CA12CEE
:100EA000B12CB8E82B2E312C88E192E00E94FD0392
:100EB00080917B00877F80937B0020E420937C00DF
:100EC00080917A00806480937A0080917A0086FD18
:100ED000FCCF80917800A0917900BA2FA82F24EB45
:100EE00030E00E940F092FEF33E040E050E00E9415
:100EF000980869017A0130933A0220933902F7FE8B
:100F0000F2C06DE28BE392E00E94F40122273327C6
:100F1000A9012C193D094E095F0919A28E010F5D27
:100F20001F4FCA01B901A50194010E94CA08605D62
:100F3000F80162938F01211531054105510589F7AB
:100F40000115110519F0C8010E94FD0388E292E025
:100F50000E94FD03A0913902B0913A02A032F2E062
:100F6000BF07CCF5809176036101C81AD10887FDCF
:100F7000D394CC0CDD1CCC0CDD1C0D2C000CEE082D
:100F8000FF088091770328E532E0281B310987FDAF
:100F90003395220F331F220F331F032E000C440BF7
:100FA000550B2C193D094E095F09A53BB10514F0FD
:100FB000A4EBB0E0B7FF02C0B0E0A0E00E94C2081E
:100FC00024EB30E040E050E00E949808C20ED31EAF
:100FD000E41EF51ED60120917503203380F5809123
:100FE0007603A101481B510987FD5395CA01880F5B
:100FF000991F880F991FA817B9078CF08091770364
:10100000E8E5F2E0E81BF10987FDF395CF01880FD1
:10101000991F880F991FA817B9070CF4CD010297E3
:10102000880F991F4FB7F89430E0F901EE0FFF1FBA
:10103000E20FF31FE852FD4F928381834FBF0E945E
:101040001E032B013C0188EEC82E83E0D82EE12C34
:10105000F12C0E941E036419750986099709683EE0
:10106000734081059105A8F3F1E0CF1AD108E1089A
:10107000F10828EE420E23E0521E611C711CC114BF
:10108000D104E104F10429F70E9461020DCF8230FE
:1010900061F410929000809391001092950010924C
:1010A000940088BB80937100AECE833069F41092B7
:1010B000A00082E08093A1001092A5001092A400ED
:1010C00089BB809372009FCE81119DCE109220012A
:1010D00082E08093210110922501109224018ABBA5
:1010E0008093730090CE19A28E010F5D1F4FCA012D
:1010F000B901A50194010E94CA08605DF8016293DC
:101100008F01211531054105510589F719CF8091CE
:10111000690390916A03009711F00E94B2098091CF
:101120006F0390917003009711F00C94B209089529
:10113000052E97FB1EF400940E94AF0857FD07D0C0
:101140000E94CA0807FC03D04EF40C94AF085095D7
:101150004095309521953F4F4F4F5F4F08959095A3
:101160008095709561957F4F8F4F9F4F08950E9496
:10117000EC08A59F900DB49F900DA49F800D911D2C
:1011800011240895B7FF0C94B7080E94B708821B7A
:10119000930B0895A1E21A2EAA1BBB1BFD010DC0E3
:1011A000AA1FBB1FEE1FFF1FA217B307E407F50717
:1011B00020F0A21BB30BE40BF50B661F771F881FF3
:1011C000991F1A9469F760957095809590959B0189
:1011D000AC01BD01CF010895A29FB001B39FC00132
:1011E000A39F700D811D1124911DB29F700D811D53
:1011F0001124911D0895991B79E004C0991F961739
:1012000008F0961B881F7A95C9F780950895EE0F10
:10121000FF1F881F8BBF0790F691E02D19940E9445
:10122000EC08B7FF0895821B930B08950F931F934B
:10123000CF93DF938230910510F482E090E0E0914B
:101240007A03F0917B0330E020E0B0E0A0E030973B
:1012500099F42115310509F44AC0281B390B2430B3
:101260003105D8F58A819B816115710589F1FB01F2
:1012700093838283FE0111C04081518102811381D9
:1012800048175907E0F04817590799F4109761F08B
:1012900012960C93129713961C933296CF01DF91FE
:1012A000CF911F910F91089500937A0310937B03C0
:1012B000F4CF2115310551F04217530738F0A90139
:1012C000DB019A01BD01DF01F801C1CFEF01F9CFC8
:1012D00090937B0380937A03CDCFFE01E20FF31F3F
:1012E000819391932250310939832883D7CF20915C
:1012F000780330917903232B41F42091020230913D
:1013000003023093790320937803209100023091F7
:1013100001022115310541F42DB73EB74091040279
:1013200050910502241B350BE0917803F09179036D
:10133000E217F307A0F42E1B3F0B2817390778F0AC
:10134000AC014E5F5F4F2417350748F04E0F5F1F0B
:101350005093790340937803819391939FCFF0E06A
:10136000E0E09CCFCF93DF930097E9F0FC01329748
:1013700013821282A0917A03B0917B03ED0130E0D9
:1013800020E01097A1F420813181820F931F2091DA
:101390007803309179032817390709F061C0F09379
:1013A0007903E0937803DF91CF910895EA01CE1796
:1013B000DF07E8F54A815B819E0141155105B1F7D0
:1013C000E901FB83EA8349915991C40FD51FEC17BA
:1013D000FD0761F4808191810296840F951FE901D8
:1013E00099838883828193819B838A83F0E0E0E004
:1013F00012968D919C9113970097B9F52D913C9180
:101400001197CD010296820F931F2091780330919E
:1014100079032817390739F6309751F510927B0375
:1014200010927A03B0937903A0937803BCCFD3834F
:10143000C28340815181840F951FC817D90761F479
:101440004E5F5F4F88819981480F591F51834083B8
:101450008A819B81938382832115310509F0B0CF66
:10146000F0937B03E0937A039ECFFD01DC01C0CFB4
:1014700013821282D7CF4F925F926F927F928F9298
:101480009F92AF92BF92CF92DF92EF92FF920F9313
:101490001F93CF93DF938C01009799F4CB01DF91D9
:1014A000CF911F910F91FF90EF90DF90CF90BF9061
:1014B000AF909F908F907F906F905F904F900C9423
:1014C0001609FC01E60FF71F9C0122503109E217B3
:1014D000F30708F4AEC0D901CD91DC911197C6177E
:1014E000D70720F1C530D10578F0CE0104978617D3
:1014F000970750F0C61BD70B2297C193D1936D93DA
:101500007C93CF010E94B209C801DF91CF911F9156
:101510000F91FF90EF90DF90CF90BF90AF909F9092
:101520008F907F906F905F904F9008955B01AC1A01
:10153000BD0A4C018C0E9D1EA0917A03B0917B03D5
:10154000512C412CF12CE12C109731F5809178032E
:10155000909179038815990509F05CC046165706E5
:1015600008F058C08091000290910102009741F468
:101570008DB79EB74091040250910502841B950BD4
:10158000E817F90708F055C0F0937903E093780362
:10159000F90171836083B8CF8D919C911197129658
:1015A0006C90129713967C901397A815B90559F56E
:1015B0006C0142E0C40ED11CCA14DB0420F1AC0162
:1015C0004A195B09DA011296159780F062827382DC
:1015D00051834083D9016D937C93E114F10471F040
:1015E000D7011396FC93EE9312978ECF22968C0F11
:1015F0009D1FF90191838083F301EFCFF0937B036B
:10160000E0937A0381CF4816590608F42C017D0136
:10161000D3019ACFCB010E9416097C01009749F0B3
:10162000AE01B8010E941C0BC8010E94B2098701DB
:101630006BCF10E000E068CFFB01DC0102C001903D
:101640000D9241505040D8F70895FB01DC01019004
:101650000D920020E1F7089511E0CAE2D1E000E028
:1016600006C0802FFE010E9407092196011DCB3282
:0C167000D10780E00807A9F7F894FFCF2D
:10167C0000007C03800000000000F4015E018B017F
:10168C004102BC019A01AE01506F74656E74696FB2
:0C169C006D657465723A20000D0A0000B4
:00000001FF
