:100000000C9435010C9466010C9466010C94660105
:100010000C9466010C9466010C9466010C946601C4
:100020000C9466010C9466010C9466010C946601B4
:100030000C9466010C9466010C9466010C946601A4
:100040000C9466010C9466010C9466010C94660194
:100050000C9466010C9466010C9466010C94860461
:100060000C9466010C9466010C9466010C94660174
:100070000C9466010C9466010C9466010C94660164
:100080000C9466010C9466010C9466010C94660154
:100090000C9466010C9466010C9466010C94660144
:1000A0000C9466010C9466010C9466010C94660134
:1000B0000C9466010C9466010C9466010C94660124
:1000C0000C9466010C9466010C9466010C94660114
:1000D0000C9466010C9466010C9466010C94660104
:1000E0000C9466010C94B8020C9487020C947D0267
:1000F0000C9479020C9446020C9461020C948004D6
:100100000C9454020C9450020C948B020C948102B7
:100110000C945B020C94FB010C9458020C94E902C1
:100120000C944C020C942E030C9429030C9473022F
:100130000C9465020C94DF060C946B020C948602FE
:100140000C942D030C946F02000021002400270062
:100150002A002D00300033000101000004010701D6
:100160000A0100002200250028002B002E0031008B
:10017000340002010000050108010B01000020000D
:100180002300260029002C002F003200000100006F
:10019000030106010901050505050705080808080A
:1001A000020202020A0A080804040404010101010F
:1001B000010101010303030303030303040707070A
:1001C0000C0C0C0C0C0C0C0C0202020206060606AF
:1001D000060606060B0B0B0B0B0B0B0B010210207C
:1001E000200808102040102040800201020108046D
:1001F0000201010204081020408080402010080401
:100200000201800402018040201008040201080459
:10021000020101020408102040800102040810209D
:10022000408000000A0B02090C0D0E0807030401B0
:1002300000000000000000000000000000000000BE
:10024000000000000000000000000000000012118B
:10025000100000000000000000000000000000008E
:100260000000000000000000DF0611241FBECFEFD9
:10027000D1E2DEBFCDBF00E00CBF12E0A0E0B2E0F3
:10028000E2EFFEE000E00BBF02C007900D92A63542
:10029000B107D9F722E0A6E5B2E001C01D92A63F62
:1002A000B207E1F711E0C5E3D1E000E006C0219715
:1002B0000109802FFE010E945607C433D10780E058
:1002C0000807A9F70E94D0040C9477070C9400004B
:1002D00096E0899FD0011124A159BD4F90967C933F
:1002E0006E935F9791E091969C939197E091DC02D9
:1002F000F091DD029091DB02992339F0309751F0B3
:10030000811108C080918B021994309719F05C9686
:100310008C91FACF0895CF92DF92EF92FF920F93D4
:100320001F9396E0899FF0011124E159FD4F11A21E
:10033000278D30A12130310551F178F0223031057F
:1003400009F451C02330310509F452C01F910F91B7
:10035000FF90EF90DF90CF9008956623B9F361E0AE
:1003600070E00E9468012FB7F89480916B02909121
:100370006C02A0916D02B0916E022FBF8093C702F4
:100380009093C802A093C902B093CA02DFCF9FB76F
:10039000F894C0906B02D0906C02E0906D02F090E7
:1003A0006E029FBF0091C7021091C8022091C9023E
:1003B0003091CA02C01AD10AE20AF30A0091D902A6
:1003C0001091DA0230E020E00C151D052E053F05E6
:1003D00050F462E070E01F910F91FF90EF90DF907A
:1003E000CF900C9468016111B1CF63E070E0F3CF5E
:1003F00070E060E0F0CFAF92BF92CF92DF92EF92C9
:10040000FF920F931F93CF93DF936C017B018B01BE
:10041000040F151FEB015E01AE18BF08C017D1070E
:1004200059F06991D601ED91FC910190F081E02D98
:10043000C6011995892B79F7C501DF91CF911F91DD
:100440000F91FF90EF90DF90CF90BF90AF90089505
:100450008150823108F05AC0E82FF0E08827EC5C28
:10046000FD4F8F4F0C9456075402580246024C021F
:10047000500286025B02610265026B026F02730228
:1004800079027D028602810287028B0280918000C0
:100490008F77809380000895809180008F7DF9CFC1
:1004A00080918000877FF5CF84B58F7784BD0895D4
:1004B00084B58F7DFBCF8091B0008F778093B000A3
:1004C00008958091B0008F7DF9CF809190008F7753
:1004D000809390000895809190008F7DF9CF809156
:1004E0009000877FF5CF8091A0008F778093A00048
:1004F00008958091A0008F7DF9CF8091A000877F23
:10050000F5CF809120018F7780932001089580910D
:1005100020018F7DF9CF80912001877FF5CFCF9388
:10052000DF93282F30E0F901EE5DFD4F8491F90152
:10053000E452FE4FD491F901EA56FE4FC491CC2308
:10054000A1F081110E942802EC2FF0E0EE0FFF1FB6
:10055000E458FE4FA591B491EC91ED2381E090E039
:1005600009F480E0DF91CF91089580E090E0FACF28
:10057000862F0C948F021F93CF93DF93282F30E0A8
:10058000F901EE5DFD4F8491F901E452FE4FD491E3
:10059000F901EA56FE4FC491CC23A9F0162F811120
:1005A0000E942802EC2FF0E0EE0FFF1FEE59FE4FE5
:1005B000A591B4918FB7F894EC91111108C0D09522
:1005C000DE23DC938FBFDF91CF911F910895DE2B47
:1005D000F8CF862F642F0C94BB02CF93DF9390E06B
:1005E000FC01E452FE4F24918A569E4FFC018491F7
:1005F0008823C9F090E0880F991FFC01E85BFE4F4B
:10060000A591B491FC01EE59FE4FC591D4916111B1
:100610000DC09FB7F8948C91209582238C9388818C
:10062000282328839FBFDF91CF910895623051F432
:100630009FB7F8943C91822F809583238C93E88117
:100640002E2BEFCF8FB7F894EC912E2B2C938FBFDE
:10065000EACF862F642F0C94ED02089590E080E09D
:100660000895FC0101900020E9F73197AF01481B84
:10067000590BBC018EED92E00C94FB01CF93DF93FC
:10068000EC0160E08E810E94BB0261E08E810E94DD
:10069000BB0260E08E810E94BB028BE891E0019773
:1006A000F1F7DF91CF910895CF92DF92EF92FF9211
:1006B0000F931F93CF93DF936C017C0187E0E80ECB
:1006C000F11CD0E0C0E0062F10E0B8010C2E02C0F3
:1006D000759567950A94E2F76170F70181917F0142
:1006E0000E94BB022196C430D10579F7C601DF9183
:1006F000CF911F910F91FF90EF90DF90CF900C94CE
:100700003E03CF92DF92EF92FF920F931F93CF930E
:10071000DF93EC01F62E642F8C810E94BB028D8149
:100720008F3F19F060E00E94BB020F2D10E08F8513
:1007300084FF25C06E0187E0C80ED11CF12CE12C8E
:10074000B8010E2C02C0759567950A94E2F76170A6
:10075000F60181916F010E94BB02FFEFEF1AFF0AC1
:1007600088E0E816F10461F7CE01DF91CF911F9187
:100770000F91FF90EF90DF90CF900C943E03B80163
:1007800084E0759567958A95E1F7CE010E94540340
:100790006F2DCE01DF91CF911F910F91FF90EF90C0
:1007A000DF90CF900C94540340E0682F8EED92E0E0
:1007B0000C948103CF93DF93823029F49091ED0262
:1007C00098609093ED028093F1021092F20280E41F
:1007D0008093F30280E18093F40280E58093F50238
:1007E00061E08091E2020E94ED028091E3028F3F7E
:1007F00019F061E00E94ED0261E08091E4020E9444
:10080000ED02CEEDD2E09E012E5D32408091ED02F0
:1008100084FD0BC084E090E021962817390744F44A
:1008200061E08E810E94ED02EECF88E090E0F4CF8F
:100830008BE39DE00197F1F760E08091E2020E9476
:10084000BB0260E08091E4020E94BB028091E3025F
:100850008F3F19F060E00E94BB028091ED0284FDA1
:1008600039C063E08EED92E00E945403CBE4D6E4FD
:10087000CE010197F1F763E08EED92E00E94540300
:100880002197F1F763E08EED92E00E94540383E537
:1008900092E00197F1F762E08EED92E00E9454033E
:1008A0008091ED0280620E94D40384E08093EE0286
:1008B0008CE00E94D40381E00E94D4038BE39FE18B
:1008C0000197F1F782E08093EF0286E0DF91CF910C
:1008D0000C94D40380620E94D4038BE496E40197C5
:1008E000F1F78091ED0280620E94D40383E592E0EB
:1008F0000197F1F78091ED0280620E94D403D0CF7E
:1009000041E00E94810381E090E008951F920F92E0
:100910000FB60F9211242F933F938F939F93AF9312
:10092000BF9380916B0290916C02A0916D02B09187
:100930006E0230915A0223E0230F2D3758F50196AD
:10094000A11DB11D20935A0280936B0290936C02FB
:10095000A0936D02B0936E0280915602909157025F
:10096000A0915802B09159020196A11DB11D80932A
:10097000560290935702A0935802B0935902BF9128
:10098000AF919F918F913F912F910F900FBE0F903C
:100990001F90189526E8230F0296A11DB11DD2CFF6
:1009A000CF93DF931F92CDB7DEB7789484B5826082
:1009B00084BD84B5816084BD85B5826085BD85B503
:1009C000816085BD80916E00816080936E00109281
:1009D00081008091810082608093810080918100FC
:1009E000816080938100809180008160809380008D
:1009F0008091B10084608093B1008091B0008160EB
:100A00008093B000809191008260809391008091EA
:100A1000910081608093910080919000816080932B
:100A200090008091A10082608093A1008091A1003C
:100A300081608093A1008091A00081608093A000DC
:100A40008091210182608093210180912101816048
:100A50008093210180912001816080932001809109
:100A60007A00846080937A0080917A00826080931B
:100A70007A0080917A00816080937A0080917A0078
:100A8000806880937A001092C10082E00E94DA03AD
:100A900081E00E94D4038BE39FE10197F1F7412CA1
:100AA000512C3201439440E0A42E40E0B42E51E09A
:100AB0005093DB028FB7F89440916B0250916C0217
:100AC00060916D0270916E028FBF8091CB02909108
:100AD000CC02A091CD02B091CE02481B590B6A0BFB
:100AE0007B0B8091D7029091D802B0E0A0E08417F0
:100AF0009507A607B70708F012C110E08091D5024C
:100B0000181760F4E091D102F091D202E10FF11DCB
:100B100062E080810E94ED021F5FF0CF312C809156
:100B2000D602381608F061C0E32CF12CE091D30214
:100B3000F091D402EE0DFF1D61E080810E94ED0274
:100B4000E091D302F091D402EE0DFF1D60E08081B0
:100B50000E94BB02D301C201032C04C0880F991F5D
:100B6000AA1FBB1F0A94D2F74C016C01C094D09409
:100B7000212C8091D502281608F5022D10E0E09175
:100B8000D102F091D202E00FF11F80810E948F020A
:100B90000C5F1F4F000F111FF801E159FD4F892B0A
:100BA00041F48081918188299929918380832394BC
:100BB000E0CF808191818C219D21F7CFE091D302FC
:100BC000F091D402EE0DFF1D61E080810E94BB0216
:100BD0008091D3029091D402E80EF91E60E0F701F3
:100BE00080810E94ED0233949ACF0FE612E07801E3
:100BF000F701878D90A1892B31F4148E8FEF9FEF31
:100C0000968F858F11A296E0E90EF11CEBEAF2E0D7
:100C1000EE15FF0569F7D12C8091D502D81608F0A2
:100C200053C0C12C8D2C912C880C991CC40189585F
:100C30009D4F4C012091D602C21608F043C0F4012A
:100C4000608171810C2C02C0769567950A94E2F759
:100C5000D29E900111242C0D311DEFE6F2E080E0D0
:100C6000458D568D2417350709F4A7C08F5F36963A
:100C70008A30B1F760FF24C0EFE6F2E090E080E058
:100C8000448D411118C0E091CF02F091D002E20FE3
:100C9000F31F408156E0589FF001599FF00D112439
:100CA000E159FD4F448F368F258F10A2178E61E0DA
:100CB0000E948B0105C0019636968A30910501F796
:100CC000C394B8CFD394A8CF80E0F80191A191113B
:100CD000892F0A5F1F4FE016F106B9F79FB7F89406
:100CE00040916B0250916C0260916D0270916E02A6
:100CF0009FBF4093CB025093CC026093CD02709380
:100D0000CE02882361F080919002882341F0809187
:100D10008E0290918F0210918B02019719F0109220
:100D2000DB0210E01983E1E08091F1028111E0E043
:100D3000E195F0E0E252FD4F848980680E94D4037F
:100D400070E060E08BE592E00E945E07892B49F439
:100D500010935B02A114B10409F4A9CE0E94000013
:100D6000A6CE1A3271F041E050E0BE016F5F7F4FB6
:100D70008BE592E00E9467078BE592E00E943103C9
:100D8000E9CFE091F102E23098F4E150F0E0E25274
:100D9000FD4F848980680E94D40368E172E08BE58E
:100DA00092E00E945E07892B29F486E392E0E6CF69
:100DB000E1E0ECCF87E492E0E1CF617079CF10926F
:100DC000E1021092E0028EE292E09093DF028093C3
:100DD000DE028DE08093E2028FEF8093E3028CE0ED
:100DE0008093E40288E08093E50289E08093E60244
:100DF0008AE08093E7028BE08093E8021092E90298
:100E00001092EA021092EB021092EC021092ED02A4
:100E100081E00E94DA031092710210927502109222
:100E200074021092760284E292E0909370028093B2
:100E30006F02EBE8F2E0108214821382158236967C
:100E400082E0E73CF807B9F784E092E09093D202A1
:100E50008093D10280E092E09093D4028093D302F9
:100E600084E08093D5028093D60288E092E090934C
:100E7000D0028093CF028AE090E09093D8028093D2
:100E8000D70284EF91E09093DA028093D902109216
:100E9000DD021092DC021092CB021092CC02109272
:100EA000CD021092CE021092DB020895EE0FFF1FCA
:100EB000881F8BBF0790F691E02D1994FB01DC0190
:100EC0008D91019080190110D9F3990B0895FB01C0
:100ED000DC010D900020E9F711974150504028F0B7
:100EE000019000200D92C9F708951C920895F8947E
:020EF000FFCF32
:100EF2001F21232517191B1D3738392F3435362A60
:100F02003132332D4F303D2B3938333131313100CD
:100F1200000000002903E902B8020000000080047A
:100F2200FB012E032D03636F72726563742070617F
:100F32007373776F72640077726F6E67207061737C
:060F420073776F7264007A
:00000001FF
