:020000040000FA
:100000000C9430010C9461010C9461010C94610119
:100010000C9461010C9461010C9461010C946101D8
:100020000C9461010C9461010C9461010C946101C8
:100030000C9461010C9490070C9461010C94610183
:100040000C9461010C9461010C9461010C946101A8
:100050000C9461010C9461010C9461010C94F00703
:100060000C9461010C9461010C9461010C94610188
:100070000C9461010C9461010C9461010C94610178
:100080000C9461010C9461010C9461010C94610168
:100090000C9461010C9461010C9461010C94610158
:1000A0000C9461010C9461010C9461010C94610148
:1000B0000C9461010C9461010C9461010C94610138
:1000C0000C9461010C9461010C9461010C94610128
:1000D0000C9461010C9461010C9461010C94610118
:1000E0000C9461010C944B020C943D020C94470259
:1000F0000C944F020C9439020C941E020C9433029F
:100100000C9429020C942F020C9426020C9457078D
:100110000C943C030C94B7020C9459020C942202E8
:100120000C9455020C941A020C9486020C94410211
:100130000C9414020C9454020C94F9090000210050
:10014000240027002A002D003000330001010000A8
:10015000040107010A0100002200250028002B00ED
:100160002E003100340002010000050108010B01DE
:10017000000020002300260029002C002F00320060
:100180000001000003010601090105050505070539
:1001900008080808020202020A0A08080404040403
:1001A000010101010101010103030303030303032F
:1001B000040707070C0C0C0C0C0C0C0C02020202BE
:1001C00006060606060606060B0B0B0B0B0B0B0BA7
:1001D0000102102020080810204010204080020159
:1001E000020108040201010204081020408080403E
:1001F000201008040201800402018040201008043D
:1002000002010804020101020408102040800102DA
:1002100004081020408000000A0B02090C0D0E0893
:1002200007030401000000000000000000000000BF
:1002300000000000000000000000000000000000BE
:10024000000012111000000000000000000000007B
:100250000000000000000000000000000200F9099A
:1002600011241FBECFEFD1E2DEBFCDBF00E00CBF37
:1002700018E0A0E0B2E0E0E9F8E100E00BBF02C066
:1002800007900D92AA3EB107D9F729E0AAEEB8E08F
:1002900001C01D92A238B207E1F711E0C0E3D1E03E
:1002A00000E006C021970109802FFE010E94280C62
:1002B000CF32D10780E00807A9F70E943A080C94D2
:1002C000460C0C94000096E0899FD0011124AD5E8D
:1002D000B64F90967C936E935F9791E091969C9326
:1002E0009197E0918009F091810990917F0999237C
:1002F00039F0309751F0811108C080912F0919947D
:10030000309719F05C968C91FACF0895CF92DF92D6
:10031000EF92FF920F931F9396E0899FF0011124B3
:10032000ED5EF64F11A2278D30A12130310551F13C
:1003300078F02230310509F451C02330310509F439
:1003400052C01F910F91FF90EF90DF90CF900895D2
:100350006623B9F361E070E00E9463012FB7F8945F
:1003600080910F0990911009A0911109B091120983
:100370002FBF80936B0990936C09A0936D09B09384
:100380006E09DFCF9FB7F894C0900F09D090100985
:10039000E0901109F09012099FBF00916B09109134
:1003A0006C0920916D0930916E09C01AD10AE20AD8
:1003B000F30A00917D0910917E0930E020E00C15D0
:1003C0001D052E053F0550F462E070E01F910F916E
:1003D000FF90EF90DF90CF900C9463016111B1CF4B
:1003E00063E070E0F3CF70E060E0F0CF81508231E5
:1003F00008F05AC0E82FF0E08827EE5FFD4F8F4FDE
:100400000C94280C2202260214021A021E02540224
:1004100029022F02330239023D02410247024B02F8
:1004200054024F0255025902809180008F778093C9
:1004300080000895809180008F7DF9CF80918000A9
:10044000877FF5CF84B58F7784BD089584B58F7D80
:10045000FBCF8091B0008F778093B000089580919A
:10046000B0008F7DF9CF809190008F7780939000BE
:100470000895809190008F7DF9CF80919000877FC3
:10048000F5CF8091A0008F778093A0000895809190
:10049000A0008F7DF9CF8091A000877FF5CF80915C
:1004A00020018F77809320010895809120018F7D16
:1004B000F9CF80912001877FF5CFCF93DF93282F4D
:1004C00030E0F901EA5EFD4F8491F901E053FE4FFF
:1004D000D491F901E657FE4FC491CC23A1F08111CC
:1004E0000E94F601EC2FF0E0EE0FFF1FE059FE4FE7
:1004F000A591B491EC91ED2381E090E009F480E0C6
:10050000DF91CF91089580E090E0FACF862F0C9490
:100510005D021F93CF93DF93282F30E0F901EA5E4D
:10052000FD4F8491F901E053FE4FD491F901E65754
:10053000FE4FC491CC23A9F0162F81110E94F60121
:10054000EC2FF0E0EE0FFF1FEA5AFE4FA591B49199
:100550008FB7F894EC91111108C0D095DE23DC938D
:100560008FBFDF91CF911F910895DE2BF8CF862F9B
:10057000642F0C9489029091DE0889130DC0ECE57C
:10058000F2E0E4919FEF9093DE08E230E1F038F47E
:10059000EE2381F0E13089F060E00C948902E430D0
:1005A00049F110F1E530C1F7909173009D7F909370
:1005B0007300F2CF10926E00EFCF90916F009D7F8D
:1005C00090936F00E9CF909170009D7F90937000A1
:1005D00091E09093B0009091B100987F94609093D7
:1005E000B1001092B300D8CF909171009D7F90938D
:1005F0007100D2CF909172009D7F90937200CCCF0A
:10060000CF93DF9390E0FC01E053FE4F2491865797
:100610009E4FFC0184918823C9F090E0880F991FB8
:10062000FC01E45CFE4FA591B491FC01EA5AFE4F37
:10063000C591D49161110DC09FB7F8948C9120950C
:1006400082238C938881282328839FBFDF91CF91B9
:100650000895623051F49FB7F8943C91822F8095B1
:1006600083238C93E8812E2BEFCF8FB7F894EC91F6
:100670002E2B2C938FBFEACF862F642F0C94000370
:100680003FB7F8948091040990910509A09106095B
:10069000B091070926B5A89B05C02F3F19F0019618
:1006A000A11DB11D3FBFBA2FA92F982F8827BC01CC
:1006B000CD01620F711D811D911D42E0660F771FF4
:1006C000881F991F4A95D1F708952F923F924F9214
:1006D0005F926F927F928F929F92AF92BF92CF92D2
:1006E000DF92EF92FF920F931F93CF93DF93CDB7DB
:1006F000DEB765970FB6F894DEBF0FBECDBF698336
:100700007A838C01440F551F840F951F988B8F8718
:10071000C901330FAA0BBB0B898B9A8BAB8BBC8B9C
:1007200079ED272E71E0372E8AE00E945D0220913C
:100730007B00277F20937B0020E420937C00209186
:100740007A00206420937A0020917A0026FDFCCF65
:100750002091780060917900892B09F4C5C0762F2B
:10076000622F072E000C880B990B0E94EE0A20E0E6
:1007700030E040E05BE30E947A0B6B017C01A981D1
:10078000BA818D909D90AD90BD90BA83A9836989FF
:100790007A898B899C890E94EE0AA50194010E94A6
:1007A000440A0E94B60A6B877C878D879E87EB85FB
:1007B000FC852F01FF0F66087708D8016D917D91A8
:1007C0008D01072E000C880B990B0E94EE0AA701E1
:1007D00096010E947A0B0E94B60A6B837C838D83FC
:1007E0009E838091DE08893009F085C0ECE5F2E057
:1007F000F491FD8BF7FDC2C161E089E00E94000326
:10080000FD89FF2321F02D89223009F0E8C18B8179
:100810009C814C01B12CA12C60E072E18AE790E050
:10082000A50194010E94090C2F83388749875A87B4
:1008300069017A0191E0C91AD108E108F108AFEF26
:10084000CA16D104E104F10409F00CF47AC160E4A1
:1008500072E48FE090E0A50194010E94090C690107
:100860007A01B1E0CB1AD108E108F108ED89E23054
:1008700009F01BC182E0FFEFCF16D104E104F104BF
:1008800009F00CF40DC360E970ED83E090E0A50180
:1008900094010E94090C69017A0181E0C81AD1080B
:1008A000E108F10883E09FEFC916D104E104F104E7
:1008B00009F00CF4F5C268E478EE81E090E0A5015F
:1008C00094010E94090C69017A01F1E0CF1AD10864
:1008D000E108F1082FEFC216D104E104F10411F090
:1008E0000CF007C184E0DCC2C12CD12C90E8E92EC9
:1008F0009FE3F92E44CF8F3F09F040C189E08093F8
:10090000DE08ECE5F2E0F491FD8B8F2FFF3F09F458
:1009100035C1F23009F469C060F4FF2381F1F13090
:1009200009F445C087FD2AC161E089E00E94000307
:100930006ACF2D89243009F49AC008F478C0253094
:1009400089F7109220011092210180912101886085
:100950008093210180912101816080932101E3E94D
:10096000F1E08491E82FF0E0EE0FFF1FEA5AFE4F0E
:1009700085919491F10184918093EA083DCF14BC54
:1009800015BC84B5826084BD85B5816085BDE3E911
:10099000F1E08491E82FF0E0EE0FFF1FEA5AFE4FDE
:1009A00085919491F10184918093EE0825CF109266
:1009B0008000109281008091810088608093810086
:1009C00080918100816080938100E3E9F1E084916E
:1009D000E82FF0E0EE0FFF1FEA5AFE4F8591949149
:1009E000F10184918093ED0807CF1092B00010922E
:1009F000B1008091B00082608093B0008091B1001E
:100A000081608093B100E3E9F1E08491E82FF0E0A8
:100A1000EE0FFF1FEA5AFE4F8591949190930909BA
:100A200080930809F101849180930A09E5CE109220
:100A300090001092910080919100886080939100C5
:100A400080919100816080939100E3E9F1E08491CD
:100A5000E82FF0E0EE0FFF1FEA5AFE4F85919491C8
:100A6000F10184918093EC08F3E0FD8BC5CE1092E8
:100A7000A0001092A1008091A10088608093A10045
:100A80008091A10081608093A100E3E9F1E084916D
:100A9000E82FF0E0EE0FFF1FEA5AFE4F8591949188
:100AA000F10184918093EB08A7CEAFEFCA16D10471
:100AB000E104F10409F00CF490C068E478EE81E000
:100AC00090E0A50194010E94090C69017A01B1E04E
:100AD000CB1AD108E108F108ED89EE2309F4ACC185
:100AE000AFEFCA16D104E104F10411F00CF0ADC16E
:100AF000F9CE64E274EF80E090E0A50194010E94D9
:100B0000090C69017A01F1E0CF1AD108E108F10876
:100B100085E02FEFC216D104E104F10409F008F4D6
:100B2000BFC162E17AE780E090E0A50194010E94F4
:100B3000090C69017A0181E0C81AD108E108F108BD
:100B400096C181E0AD89A111ABC195B5987F892B84
:100B500085BD2FEF3FEFA9014114510461047104D9
:100B600009F07AC08D89823009F41AC10CF0EFC007
:100B7000882309F4F4C0813009F400C1C301B20133
:100B80000E94EE0A2AE939E949E95FE30E947A0BFB
:100B90000E94BD0A6B017C010E9440034B015C0175
:100BA000C114D104E104F10409F40AC10E94400314
:100BB000681979098A099B09683E73408105910586
:100BC00078F3A1E0CA1AD108E108F108B8EE8B0E5B
:100BD000B3E09B1EA11CB11CE3CF82E0B3CFEB813D
:100BE000FC814F01B12CA12C60E072E18AE790E01A
:100BF000A5019F010E94090C69017A01F1E0CF1A59
:100C0000D108E108F10891E0C114D10421E0E20625
:100C1000F10484F068E478EE81E090E0A5019401AD
:100C20000E94090C69017A0181E0C81AD108E10823
:100C3000F10893E0AD89A130F1F480918100887FC3
:100C4000892B809381002FEF3FEFA90141145104BC
:100C50006104710409F492C02B813C81220F331F7F
:100C6000AB85BC850E94300C28EE33E040E050E0BC
:100C70000E94E70B77CFBD89B33001F580919100D9
:100C8000887F892B809391002FEF3FEFA9014114BA
:100C900051046104710401F7D0929900C092980048
:100CA0002093F7083093F8084093F9085093FA0816
:100CB0008091710082608093710060CFED89E43093
:100CC00009F58091A100887F892B8093A1002FEFE7
:100CD0003FEFA901411451046104710409F0BCCF34
:100CE000D092A900C092A8002093F3083093F40892
:100CF0004093F5085093F6088091720082608093CB
:100D000072003CCFFD89F53009F023CF809121019D
:100D1000887F892B809321012FEF3FEFA901411498
:100D200051046104710409F097CFD0922901C09257
:100D300028012093EF083093F0084093F108509376
:100D4000F2088091730082608093730017CF9D89B1
:100D5000943031F20CF4A0CF953039F30FCFC7BCEB
:100D60002093FF0830930009409301095093020932
:100D700080916E00826080936E0000CFD0928900D7
:100D8000C09288002093FB083093FC084093FD0834
:100D90005093FE0880916F00826080936F00EECECA
:100DA000C092B30020930B0930930C0940930D09B6
:100DB00050930E0980917000826080937000DECEA7
:100DC0008F8598890817190709F0AECC89E06596D8
:100DD0000FB6F894DEBF0FBECDBFDF91CF911F914C
:100DE0000F91FF90EF90DF90CF90BF90AF909F90CA
:100DF0008F907F906F905F904F903F902F900C94CA
:100E0000BB0284E0AFEFCA16D104E104F10409F09B
:100E100008F49BCECF80D884E984FA849AE0F594D4
:100E2000E794D794C7949A95D1F791E0C91AD1085D
:100E3000E108F10885E089CE83E09FEFC916D1046F
:100E4000E104F10409F00CF480CE62E17AE780E07D
:100E500090E0A50194010E94090C69017A0181E0EA
:100E6000C81AD108E108F1089D89992351F286E05A
:100E7000EFEFCE16D104E104F10491F088F0CF80B9
:100E8000D884E984FA848AE0F594E794D794C794E7
:100E90008A95D1F7B1E0CB1AD108E108F10887E0D3
:100EA0009091B100987F892B8093B10052CE81330D
:100EB00051F420E233E040E350E066EA77E086E672
:100EC00098E00C946503823349F424EF31E04AE161
:100ED00050E06AE077E082E797E0F3CF833349F4AC
:100EE00020E233E048E350E06AEB75E08AE996E0FF
:100EF000E8CF843349F428E532E04EE450E066EE72
:100F000073E08EE195E0DDCF853349F420E233E0F4
:100F100041E550E060E072E084E493E0D2CF0895D0
:100F20001F920F920FB60F9211240BB60F922F93B0
:100F30003F934F935F936F937F938F939F93AF9361
:100F4000BF93EF93FF9380910B0990910C09A091AF
:100F50000D09B0910E09892B8A2B8B2BE1F1909111
:100F60000A09E0910809F0910909808189278083A5
:100F700080910B0990910C09A0910D09B0910E0977
:100F8000181619061A061B069CF480910B099091FD
:100F90000C09A0910D09B0910E090197A109B109A1
:100FA00080930B0990930C09A0930D09B0930E093F
:100FB000FF91EF91BF91AF919F918F917F916F9131
:100FC0005F914F913F912F910F900BBE0F900FBEED
:100FD0000F901F9018958091DE080E94BB02E8CF09
:100FE0001F920F920FB60F9211242F933F938F935E
:100FF0009F93AF93BF9380910F0990911009A09197
:101000001109B09112093091030923E0230F2D3704
:1010100058F50196A11DB11D2093030980930F0976
:1010200090931009A0931109B093120980910409BB
:1010300090910509A0910609B09107090196A11D9B
:10104000B11D8093040990930509A0930609B093FC
:101050000709BF91AF919F918F913F912F910F9071
:101060000FBE0F901F90189526E8230F0296A11D22
:10107000B11DD2CF789484B5826084BD84B581607F
:1010800084BD85B5826085BD85B5816085BD809153
:101090006E00816080936E001092810080918100CB
:1010A00082608093810080918100816080938100C3
:1010B000809180008160809380008091B100846085
:1010C0008093B1008091B00081608093B0008091E6
:1010D0009100826080939100809191008160809363
:1010E0009100809190008160809390008091A10098
:1010F00082608093A1008091A10081608093A10013
:101100008091A00081608093A00080912101826085
:101110008093210180912101816080932101809140
:10112000200181608093200180917A008460809307
:101130007A0080917A00826080937A0080917A00B0
:10114000816080937A0080917A00806880937A0031
:101150001092C10087E597E0909381098093800900
:1011600060E08AE00E940003812C912C540183945A
:1011700022242A94322C50E0652E50E0752E51E046
:1011800050937F098FB7F89440910F09509110093F
:1011900060911109709112098FBF80916F09909130
:1011A0007009A0917109B0917209481B590B6A0B23
:1011B0007B0B80917B0990917C09B0E0A0E0C0E0BE
:1011C00084179507A607B70740F010927F096114AE
:1011D0007104A9F20E940000D2CF80917909C8174A
:1011E00060F4E0917509F0917609EC0FF11D62E071
:1011F00080810E940003CF5FF0CF512C80917A094B
:10120000581608F05FC0052D10E0E0917709F091C5
:101210007809E00FF11F61E080810E940003E091F6
:101220007709F0917809E00FF11F60E080810E945A
:101230008902D501C401052C04C0880F991FAA1F7B
:10124000BB1F0A94D2F76C017C01E094F094412C0E
:10125000809179094816F8F4C42DD0E0E091750921
:10126000F0917609EC0FFD1F80810E945D022496AB
:10127000CC0FDD1FCD5ED64F892B41F4888199813B
:101280008C299D29998388834394E2CF8881998111
:101290008E219F21F7CFE0917709F0917809E00F37
:1012A000F11F61E080810E9489028091770990910D
:1012B0007809080F191F60E0F80180810E9400037F
:1012C00053949CCFC3E1D9E0FE01878D90A1892B77
:1012D00021F4148E368E258E11A2369659E0EF3405
:1012E000F50799F710E080917909181708F053C0B5
:1012F00000E0E12EF12CEE0CFF1CC701855E964F3D
:101300007C0120917A09021708F043C0F70160813F
:101310007181002E02C0769567950A94E2F7129FBC
:1013200090011124200F311DE3E1F9E080E0458DAB
:10133000568D2417350709F45AC08F5F36968A30C8
:10134000B1F760FF24C0E3E1F9E090E080E0448D74
:10135000411118C0E0917309F0917409E20FF31F75
:10136000408156E0589FF001599FF00D1124ED5E29
:10137000F64F448F368F258F10A2178E61E00E94A2
:10138000860105C0019636968A30910501F70F5FF8
:10139000B8CF1F5FA8CF80E099A19111892F269621
:1013A00099E0CF34D907C1F79FB7F89440910F095E
:1013B0005091100960911109709112099FBF4093DB
:1013C0006F095093700960937109709372098823B3
:1013D00009F4FBCE80913409882309F4F6CE80917C
:1013E000320990913309019709F0EFCEF0CE617088
:1013F000C6CF10921509109219091092180910926F
:101400001A0983EE98E09093140980931309EFE290
:10141000F9E01082148213821582369689E0EB3649
:10142000F807B9F78AEC98E09093760980937509EC
:1014300086EC98E0909378098093770984E0809314
:10144000790980937A098EEC98E0909374098093DF
:1014500073098AE090E090937C0980937B0984EF84
:1014600091E090937E0980937D09109281091092FA
:10147000800910926F0910927009109271091092F0
:10148000720910927F0908950E94580A0C94400B2B
:101490000E94390B58F00E94320B40F029F45F3F54
:1014A00029F00C94290B51110C94740B0C942F0BF4
:1014B0000E94510B68F39923B1F3552391F3951BC7
:1014C000550BBB27AA2762177307840738F09F5F65
:1014D0005F4F220F331F441FAA1FA9F335D00E2ED2
:1014E0003AF0E0E832D091505040E695001CCAF73F
:1014F0002BD0FE2F29D0660F771F881FBB1F261702
:1015000037074807AB07B0E809F0BB0B802DBF01D8
:10151000FF2793585F4F3AF09E3F510578F00C94A7
:10152000290B0C94740B5F3FE4F3983ED4F386953B
:1015300077956795B795F7959F5FC9F7880F911DC8
:101540009695879597F90895E1E0660F771F881FB4
:10155000BB1F621773078407BA0720F0621B730B67
:10156000840BBA0BEE1F88F7E09508950E94BD0A20
:101570006894B1110C94740B08950E94590B88F073
:101580009F5798F0B92F9927B751B0F0E1F0660F47
:10159000771F881F991F1AF0BA95C9F714C0B13088
:1015A00091F00E94730BB1E008950C94730B672FB8
:1015B000782F8827B85F39F0B93FCCF386957795B7
:1015C0006795B395D9F73EF49095809570956195A0
:1015D0007F4F8F4F9F4F0895E89409C097FB3EF4CB
:1015E00090958095709561957F4F8F4F9F4F992370
:1015F000A9F0F92F96E9BB279395F69587957795EE
:101600006795B795F111F8CFFAF4BB0F11F460FFAD
:101610001BC06F5F7F4F8F4F9F4F16C0882311F005
:1016200096E911C0772321F09EE8872F762F05C019
:10163000662371F096E8862F70E060E02AF09A95B4
:10164000660F771F881FDAF7880F9695879597F9A9
:10165000089597F99F6780E870E060E008959FEF34
:1016600080EC089500240A94161617061806090639
:10167000089500240A941216130614060506089508
:10168000092E0394000C11F4882352F0BB0F40F490
:10169000BF2B11F460FF04C06F5F7F4F8F4F9F4FD0
:1016A000089557FD9058440F551F59F05F3F71F052
:1016B0004795880F97FB991F61F09F3F79F08795B9
:1016C0000895121613061406551FF2CF4695F1DF42
:1016D00008C0161617061806991FF1CF86957105D2
:1016E000610508940895E894BB2766277727CB0106
:1016F00097F908950E948D0B0C94400B0E94320BB9
:1017000038F00E94390B20F0952311F00C94290B2E
:101710000C942F0B11240C94740B0E94510B70F33A
:10172000959FC1F3950F50E0551F629FF001729F86
:10173000BB27F00DB11D639FAA27F00DB11DAA1F95
:10174000649F6627B00DA11D661F829F2227B00DE2
:10175000A11D621F739FB00DA11D621F839FA00D6D
:10176000611D221F749F3327A00D611D231F849FBD
:10177000600D211D822F762F6A2F11249F57504014
:101780009AF0F1F088234AF0EE0FFF1FBB1F661F8F
:10179000771F881F91505040A9F79E3F510580F058
:1017A0000C94290B0C94740B5F3FE4F3983ED4F334
:1017B000869577956795B795F795E7959F5FC1F7FC
:1017C000FE2B880F911D9695879597F90895A1E2B4
:1017D0001A2EAA1BBB1BFD010DC0AA1FBB1FEE1FAB
:1017E000FF1FA217B307E407F50720F0A21BB30BF6
:1017F000E40BF50B661F771F881F991F1A9469F772
:1018000060957095809590959B01AC01BD01CF01CD
:101810000895052E97FB1EF400940E94200C57FD9E
:1018200007D00E94E70B07FC03D04EF40C94200C69
:1018300050954095309521953F4F4F4F5F4F0895FC
:1018400090958095709561957F4F8F4F9F4F08952C
:10185000EE0FFF1F881F8BBF0790F691E02D1994A4
:101860000E94370CB7FF0895821B930B0895A29F27
:10187000B001B39FC001A39F700D811D1124911D64
:10188000B29F700D811D1124911D0895F894FFCF12
:101890000000804000000041000000410000804046
:1018A0000000804000008040000000410000004136
:1018B00000008040000080400000804000000041A7
:1018C0000000004100000040000000410000004115
:1018D0000000004100000041000000410000004104
:1018E0000000004100000041000080400000004175
:1018F00000000041000000400000004100000041E5
:1019000000000041000000410000004100000041D3
:1019100000000041000000410000004100000041C3
:1019200000000041000000410000004100000041B3
:101930000000004100000041000080400000004124
:101940000000004100008040000080400000804016
:101950000000004100000041000080400000804085
:101960000000804000000041000000410000804075
:101970000000804000008040000000410000004165
:101980000000004000000041000000410000004154
:101990000000004100000041000000410000004143
:1019A0000000004100000041000000410000004133
:1019B0000000004100000041000000410000004123
:1019C0000000004100008040000000410000004194
:1019D000000000402601B801B801B8012601260127
:1019E000B801B801B8012601B801D2010B02B80153
:1019F0004B020B020B02D201D201B801B8018801DF
:101A00005D0188010B02B8012601060126014A0189
:101A10005D014A015D018801B8010B02D201B801E4
:101A200088015D014A0126010601880188018801BB
:101A3000B801D201B80188015D018801B8018801AF
:101A40005D014A015D0188015D014A012601D20163
:101A5000B801B801880188015D015D014A01B80142
:101A6000880188015D015D014A014A0126015D018D
:101A70005D018801B80100004041000040410000C4
:101A80004041000040410000404100004041000052
:101A90004041000040410000404100004041000042
:101AA0004041000040410000404100004041000032
:101AB0004041000040410000404100004041000022
:101AC0004041000040410000404100004041000012
:101AD0004041000040410000404100004041000002
:101AE00040410000404100004041000040410000F2
:101AF0004041000040410000104100001041000042
:101B00001041000040410000404100004041000001
:101B100040410000404100004041000040410000C1
:101B200040410000404100004041000040410000B1
:101B300040410000404100004041000040410000A1
:101B40004041000040410000404100004041000091
:101B50004041000040410000404100004041000081
:101B60004041000040410000404100004041000071
:101B700040410000104100001041000010410000F1
:101B80004041000040410000404100004041000051
:101B90004041000040410000404100004041000041
:101BA00040410000404100004041000040414D0ADA
:101BB0004D0A00004D0A00002D084D0A0000400C9F
:101BC00000000000000020060000000000002D08BA
:101BD00000000000200600000000270500000000B3
:101BE000E0060000B80700004907E00600002006F4
:101BF0004D0A400CC00D0000EA0A400C00004D0ADE
:101C000000002D082D09B807000000002D08000075
:101C10000000200600000000270500000000E0068C
:101C20000000B80700004907E006000020064D0A42
:101C3000400CC00D0000EA0A400C00004D0A0000F4
:101C40002D082D09B80700000000000040410000E9
:101C50004041000040410000404100004041000080
:101C600040410000C04000004040000040410000F2
:101C70004041000040410000404100004041000060
:101C800040410000C04000004040000040410000D2
:101C90004041000040410000404100004041000040
:101CA00040410000C04000004040000040410000B2
:101CB0004041000040410000404100004041000020
:101CC00040410000C0400000C040000090410000C2
:101CD0009041000090410000C0400000C040000062
:101CE000C0400000C0400000C0400000C0400000F4
:101CF00090410000904100009041000090410000A0
:101D0000904100009041000020410000204100006F
:101D1000204100002041000020410000204100003F
:101D20004040000040400000404006010B02DC0043
:101D3000B801E900D2010000000006010B02DC003E
:101D4000B801E900D20100000000AF005D0193007E
:101D500026019C00370100000000AF005D019300E8
:101D600026019C0037010000000037011501260103
:101D7000150137013701D000C400150106017201B9
:101D80005D01A500D201B8019F013701F700E9000C
:101D9000DC00D000000000000000000080400000D7
:101DA00080400000004000008040000080400000B3
:101DB00000400000804000008040000040400000E3
:101DC00000410000803F0000804000008040000093
:101DD0008040000080400000804000008040000003
:101DE00080400000004100000041000080400000F1
:101DF0008040000080400000804000000040000063
:101E0000004093029302930293029302930293027F
:101E100010030B024B029302BA02BA02BA02BA02D0
:101E20009302930293029302930293024B024B029A
:101E300093024B021003000000400000004000002D
:101E40000040000000400000004000000040000092
:101E50000040000000400000004000000040000082
:101E6000004000000040713DAA3F0000804000009B
:101E7000803F0000004000000040000000400000E3
:101E80000040000000400000004000000040000052
:101E90000040000000400000004000000040000042
:101EA0000040713DAA3F000080400000803F0000DC
:101EB0000040000000400000004000000040000022
:101EC0000040000080400000804000000040000012
:101ED0000040000000400000804000008040000002
:101EE00000400000004000000040000000400000F2
:101EF0000040000000404A014A015D01880188015C
:101F00005D014A0126010601060126014A014A0136
:101F1000260126014A014A015D01880188015D010F
:101F20004A0126010601060126014A012601060191
:101F30000601260126014A01060126014A015D012A
:101F40004A01060126014A015D014A0126010601F6
:101F50002601000000001F21232517191B1D3738FB
:101F6000392F3435362A3132332D6F303D2BFF0077
:0A1F70000000003C03B702860200E7
:020000040003F7
:10E000000D9489F10D94B2F10D94B2F10D94B2F129
:10E010000D94B2F10D94B2F10D94B2F10D94B2F1F0
:10E020000D94B2F10D94B2F10D94B2F10D94B2F1E0
:10E030000D94B2F10D94B2F10D94B2F10D94B2F1D0
:10E040000D94B2F10D94B2F10D94B2F10D94B2F1C0
:10E050000D94B2F10D94B2F10D94B2F10D94B2F1B0
:10E060000D94B2F10D94B2F10D94B2F10D94B2F1A0
:10E070000D94B2F10D94B2F10D94B2F10D94B2F190
:10E080000D94B2F10D94B2F10D94B2F10D94B2F180
:10E090000D94B2F10D94B2F10D94B2F10D94B2F170
:10E0A0000D94B2F10D94B2F10D94B2F10D94B2F160
:10E0B0000D94B2F10D94B2F10D94B2F10D94B2F150
:10E0C0000D94B2F10D94B2F10D94B2F10D94B2F140
:10E0D0000D94B2F10D94B2F10D94B2F10D94B2F130
:10E0E0000D94B2F141546D656761323536300041AF
:10E0F000726475696E6F206578706C6F72657220DE
:10E1000073746B3530305632206279204D4C530099
:10E11000426F6F746C6F616465723E004875683F52
:10E1200000436F6D70696C6564206F6E203D200048
:10E130004350552054797065202020203D20005FF9
:10E140005F4156525F415243485F5F3D2000415658
:10E1500052204C696243205665723D20004743437C
:10E160002056657273696F6E203D20004350552024
:10E1700049442020202020203D20004C6F7720663D
:10E18000757365202020203D20004869676820665F
:10E190007573652020203D200045787420667573D6
:10E1A00065202020203D20004C6F636B2066757336
:10E1B000652020203D20004D617220203720323024
:10E1C000313300312E362E3800342E332E350056A2
:10E1D00023202020414444522020206F7020636F70
:10E1E00064652020202020696E73747275637469E1
:10E1F0006F6E2061646472202020496E74657272B3
:10E20000757074006E6F20766563746F7200726A49
:10E210006D702020006A6D70200057686174207056
:10E220006F72743A00506F7274206E6F7420737541
:10E2300070706F72746564004D7573742062652030
:10E2400061206C6574746572002000577269747483
:10E25000696E672045450052656164696E672045B7
:10E26000450045452065727220636E743D00504F35
:10E27000525400303D5A65726F2061646472003FF1
:10E280003D43505520737461747300403D454550C3
:10E29000524F4D207465737400423D426C696E6B41
:10E2A000204C454400453D44756D70204545505215
:10E2B0004F4D00463D44756D7020464C415348001B
:10E2C000483D48656C70004C3D4C69737420492F83
:10E2D0004F20506F72747300513D51756974005234
:10E2E0003D44756D702052414D00563D73686F7707
:10E2F00020696E7465727275707420566563746FF0
:10E30000727300593D506F727420626C696E6B00BD
:10E310002A0011241FBECFEFD1E2DEBFCDBF01E046
:10E320000CBF12E0A0E0B2E0EEE1FDEF03E00BBFB6
:10E3300002C007900D92A030B107D9F712E0A0E01B
:10E34000B2E001C01D92AE30B107E1F70F9460F367
:10E350000D948DFE01E20EBF0FEF0DBF11241FBE05
:10E360000D9460F30D9400F020E030E040ED57E0B4
:10E3700005C0FA013197F1F72F5F3F4F2817390792
:10E38000C0F308959C01260F311DC901A0E0B0E043
:10E390002F5F3F4FABBFFC018791882361F08093D3
:10E3A000C6008091C00086FFFCCF8091C0008064D1
:10E3B0008093C000EACF08958DE08093C6008091DD
:10E3C000C00086FFFCCF8091C00080648093C000B5
:10E3D0008AE08093C6008091C00086FFFCCF8091C8
:10E3E000C00080648093C00008950F94C2F10F9420
:10E3F000DCF10895FC019081992359F09093C600B7
:10E400008091C00086FFFCCF8091C0008064809323
:10E41000C0003196992379F70895282F982F929567
:10E420009F70892F805D8A3308F0895F8093C600D2
:10E430008091C00086FFFCCF8091C00080648093F3
:10E44000C000822F8F70982F905D9A3308F0995FEB
:10E450009093C6008091C00086FFFCCF8091C000E1
:10E4600080648093C00008959C01FB01853691056E
:10E470001CF46330710594F0C90164E670E00F94F8
:10E480002EFE605D7F4F6093C6008091C00086FFC6
:10E49000FCCF8091C00080648093C0002B30310598
:10E4A00014F43297B4F0C90164E670E00F942EFEC4
:10E4B0006AE070E00F942EFE605D7F4F6093C600AF
:10E4C0008091C00086FFFCCF8091C0008064809363
:10E4D000C000C9016AE070E00F942EFEC0968093E0
:10E4E000C6008091C00086FFFCCF8091C000806490
:10E4F0008093C00008951F93182F8EE692EE60E07F
:10E500000F94C2F11093C6008091C00086FFFCCF2B
:10E510008091C00080648093C0000F94DCF11F9153
:10E5200008952F923F924F925F926F927F928F92B7
:10E530009F92AF92BF92CF92DF92EF92FF920F9392
:10E540001F93DF93CF93CDB7DEB762970FB6F894E2
:10E55000DEBF0FBECDBF382E622ECA01DB015C01CB
:10E560006D01772420E2222E2E010894411C511CBB
:10E570008BC081E0A81680E0B80681E0C80680E084
:10E58000D80628F0C601AA27BB270F940DF2BB2797
:10E59000AD2D9C2D8B2D0F940DF28A2D0F940DF225
:10E5A0002092C6008091C00086FFFCCF8091C00001
:10E5B00080648093C0009DE29093C6008091C0006B
:10E5C00086FFFCCF8091C00080648093C0002092C1
:10E5D000C6008091C00086FFFCCF8091C00080649F
:10E5E0008093C00019828601750188249924A1E0D6
:10E5F0003A1651F03A1620F0B2E03B1661F409C029
:10E600000BBFF701779007C0C7010F9477FE782EF4
:10E6100002C0F7017080872D0F940DF22092C60082
:10E620008091C00086FFFCCF8091C0008064809301
:10E63000C000872D8052F401EF70F0708F3520F408
:10E64000E40DF51D708204C0E40DF51D8EE280839B
:10E650000894E11CF11C011D111D0894811C911CE2
:10E6600090E18916910409F0C2CF80E190E0A0E02A
:10E67000B0E0A80EB91ECA1EDB1E198AC2010F9493
:10E68000FAF10F94DCF16A94662009F072CF629679
:10E690000FB6F894DEBF0FBECDBFCF91DF911F91B3
:10E6A0000F91FF90EF90DF90CF90BF90AF909F9031
:10E6B0008F907F906F905F904F903F902F90089534
:10E6C0002F923F924F925F926F927F928F929F9282
:10E6D000AF92BF92CF92DF92EF92FF920F931F9370
:10E6E000DF93CF93CDB7DEB7CD53D1400FB6F894BB
:10E6F000DEBF0FBECDBF01E20EBF0FEF0DBF94B75F
:10E70000F894A89514BE80916000886180936000A1
:10E7100010926000789493FF05C0E0910002F091A0
:10E7200001021995279A2F9A8091C00082608093E8
:10E73000C00080E18093C40088E18093C1000000A4
:10E74000EE24FF24870144E0A42EB12CCC24DD2448
:10E7500024C0C5010197F1F70894E11CF11C011DCB
:10E76000111D21E2E2162EE4F20620E0020720E06D
:10E77000120718F031E0C32ED12CC801B70127ECE5
:10E780003BE140E050E00F9441FE611571058105C9
:10E79000910519F485B1805885B98091C00087FD35
:10E7A00003C0C114D104A9F2A6014F5F5F4FC25E3E
:10E7B000DE4F59834883CE51D140C25EDE4F8881FF
:10E7C0009981CE51D140019711F00D9410FEC05D9A
:10E7D000DE4F19821882C053D14060E0C15DDE4F28
:10E7E0001882CF52D14088249924C35DDE4F19820C
:10E7F0001882CD52D140C05EDE4F188219821A8233
:10E800001B82C052D140CE5CDE4F188219821A8220
:10E810001B82C253D140EE24FF2487010BBFF701B6
:10E8200007911691C45CDE4F19830883CC53D14005
:10E830000D940BFEC25EDE4F28813981CE51D1404E
:10E840002130310509F52091C600C25EDE4F1982E4
:10E850001882CE51D14022C02F5F3F4F4F4F5F4FA4
:10E86000213082E138078AE7480780E0580780F0C6
:10E87000C45CDE4FE881F981CC53D140EF5FFF4F9C
:10E8800019F0EE27FF27099420E030E040E050E047
:10E890008091C00087FFE0CF2091C600C35DDE4FAE
:10E8A00048815981CD52D1404F5F5F4FC35DDE4FEC
:10E8B00059834883CD52D140213209F063C64A3092
:10E8C000510508F05FC60894811C911C53E0851621
:10E8D000910409F059C600E010E018C081E280936D
:10E8E000C6008091C00086FFFCCF8091C00080648C
:10E8F0008093C0002F5F3F4F2931310579F70F9486
:10E90000DCF10F5F1F4F0530110519F020E030E0FA
:10E91000E5CF10920A0210920B0210920C02109294
:10E920000D02109206021092070210920802109235
:10E930000902109202021092030210920402109235
:10E9400005028FEE90EE60E00F94F5F180E191EE1C
:10E9500060E00F94C2F18091C00087FFFCCF9091DE
:10E96000C600903608F09F759032B8F09093C600BC
:10E970008091C00086FFFCCF8091C00080648093AE
:10E98000C000A0E2A093C6008091C00086FFFCCF2B
:10E990008091C00080648093C000983409F4D7C18E
:10E9A0009934B8F4923409F459C1933458F490333B
:10E9B00019F1903308F4E3C59F33A1F1903409F0C5
:10E9C000DEC5BDC0953409F470C1963409F0D7C5D1
:10E9D00098C1923509F42BC2933538F49C3409F46C
:10E9E000F5C1913509F0CBC518C2963509F445C279
:10E9F000993509F0C4C567C483E792EE62E00F94CD
:10EA0000F5F110920602109207021092080210927D
:10EA1000090210920A0210920B0210920C0210923C
:10EA20000D0213C18FE792EE62E00F94F5F18FEEC5
:10EA300090EE60E00F94F5F181E291EE60E00F94CA
:10EA4000C2F187EB91EE60E00F94F5F180E391EE77
:10EA500060E00F94C2F184EE90EE60E00F94F5F167
:10EA60008FE391EE60E00F94C2F186E090E061E008
:10EA700070E00F9434F20F94DCF18DE591EE60E0DC
:10EA80000F94C2F189EC91EE60E00F94F5F18EE401
:10EA900091EE60E00F94C2F183EC91EE60E00F9490
:10EAA000F5F18CE691EE60E00F94C2F18EE10F94E7
:10EAB0000DF288E90F940DF281E00F940DF20F949E
:10EAC000DCF18BE791EE60E00F94C2F119E0E0E039
:10EAD000F0E010935700E4918E2F0F940DF20F94F5
:10EAE000DCF18AE891EE60E00F94C2F1E3E0F0E03F
:10EAF00010935700E4918E2F0F940DF20F94DCF1D8
:10EB000089E991EE60E00F94C2F1E2E0F0E0109349
:10EB10005700E4918E2F0F940DF20F94DCF188EAE8
:10EB200091EE60E00F94C2F1E1E0F0E01093570045
:10EB30001491812F0F940DF20F94DCF107CF8BE825
:10EB400092EE62E00F94F5F18BE492EE60E00F94A8
:10EB5000F5F10F94DCF100E010E019C0C8016F2D51
:10EB60000F947FFEFF2031F489E492EE60E00F9471
:10EB7000C2F10BC0F092C6008091C00086FFFCCFAE
:10EB80008091C00080648093C0000F5F1F4FC80158
:10EB900081519F41A0E0B0E0ABBFFC01F790BAE229
:10EBA000FB1621F0E2E000301E07C1F60F94DCF105
:10EBB0000F94DCF187E592EE60E00F94F5F10F948D
:10EBC000DCF1CC24DD2400E010E01EC0C8010F946D
:10EBD00077FEF82E882331F489E492EE60E00F94FA
:10EBE000C2F10BC08093C6008091C00086FFFCCFAD
:10EBF0008091C00080648093C000FE1419F00894D6
:10EC0000C11CD11C0F5F1F4FC80181519F41A0E063
:10EC1000B0E0ABBFFC01E790FAE2EF1621F022E092
:10EC20000030120799F60F94DCF10F94DCF182E6C4
:10EC300092EE60E00F94C2F1C60161E070E00F94C3
:10EC400034F20F94DCF10F94DCF110920202109276
:10EC50000302109204021092050278CE89E992EE26
:10EC600062E00F94F5F1279A2F9A16C02F9880E052
:10EC700090E0E0EDF7E03197F1F7019684369105E9
:10EC8000C1F72F9A80E090E0E0EDF7E03197F1F7DF
:10EC9000019684369105C1F78091C00087FFE6CFC9
:10ECA0008091C00087FFFCCF64C485EA92EE62E0E9
:10ECB0000F94F5F140910202509103026091040219
:10ECC0007091050281E020E10F9491F2809102029F
:10ECD00090910302A0910402B091050280509F4FD1
:10ECE000AF4FBF4F8093020290930302A0930402A0
:10ECF000B093050280509041A040B04008F426CE69
:10ED0000A4CF83EB92EE62E00F94F5F140910602FE
:10ED100050910702609108027091090280E020E1A1
:10ED20000F9491F28091060290910702A09108023F
:10ED3000B091090280509F4FAF4FBF4F80930602A2
:10ED400090930702A0930802B0930902FFCD80ECD4
:10ED500092EE62E00F94F5F183E792EE60E00F949B
:10ED6000F5F18FE792EE60E00F94F5F18BE892EE0B
:10ED700060E00F94F5F189E992EE60E00F94F5F10F
:10ED800085EA92EE60E00F94F5F183EB92EE60E09D
:10ED90000F94F5F180EC92EE60E00F94F5F187ECC2
:10EDA00092EE60E00F94F5F188ED92EE60E00F9442
:10EDB000F5F18FED92EE60E00F94F5F18AEE92EEB0
:10EDC00060E00F94F5F183E093EEBDCD87EC92EE19
:10EDD00062E00F94F5F181E40F947BF282E40F94EA
:10EDE0007BF283E40F947BF284E40F947BF285E45E
:10EDF0000F947BF286E40F947BF287E40F947BF20E
:10EE000088E40F947BF28AE40F947BF28BE40F94F6
:10EE10007BF28CE40F947BF299CD88ED92EE62E068
:10EE20000F94F5F1772473948824992409C48FED05
:10EE300092EE62E00F94F5F140910A0250910B02BC
:10EE400060910C0270910D0282E020E10F9491F22A
:10EE500080910A0290910B02A0910C02B0910D02D8
:10EE600080509F4FAF4FBF4F80930A0290930B0289
:10EE7000A0930C02B0930D0269CD8AEE92EE62E08F
:10EE80000F94F5F184EE90EE60E00F94F5F18FECC5
:10EE900091EE60E00F94F5F1662477244301CC5D98
:10EEA000DE4F19821882C452D140D401C301B695F5
:10EEB000A79597958795CA5DDE4F88839983AA8326
:10EEC000BB83C652D140CC5DDE4FA881B981C4520C
:10EED000D1401196CC5DDE4FB983A883C452D14096
:10EEE000CD0162E070E00F9434F2B0E2B093C6005E
:10EEF0008091C00086FFFCCF8091C0008064809329
:10EF0000C000EDE2E093C6008091C00086FFFCCF18
:10EF10008091C00080648093C000F0E2F093C6004E
:10EF20008091C00086FFFCCF8091C00080648093F8
:10EF3000C000CA5DDE4FE880F9800A811B81C6529D
:10EF4000D140BB27A12F902F8F2D0F940DF2CA5DBA
:10EF5000DE4F8881C652D1400F940DF2B0E2FB2EF5
:10EF6000F092C6008091C00086FFFCCF8091C00067
:10EF700080648093C0000DE30093C6008091C000C0
:10EF800086FFFCCF8091C00080648093C00010E2B7
:10EF90001093C6008091C00086FFFCCF8091C00016
:10EFA00080648093C0008BBEF3012791C65DDE4F65
:10EFB0002883CA52D140A22EBB24CC24DD2408943D
:10EFC000611C711C811C911C8BBEF3018791282E42
:10EFD0003324442455240894611C711C811C911C09
:10EFE0008BBEF3013791C55DDE4F3883CB52D140E4
:10EFF0000894611C711C811C911C8BBEF30147910C
:10F00000C45DDE4F4883CC52D140ADEFEA2EAFEF66
:10F01000FA2EAFEF0A2FAFEF1A2F6E0C7F1C801E57
:10F02000911E142D032DF22CEE24EA0CFB1C0C1D5A
:10F030001D1D0F940DF220E22093C6008091C000A8
:10F0400086FFFCCF8091C00080648093C000C65DC5
:10F05000DE4F8881CA52D1400F940DF230E23093D6
:10F06000C6008091C00086FFFCCF8091C000806404
:10F070008093C000C45DDE4F8881CC52D1400F9494
:10F080000DF240E24093C6008091C00086FFFCCFA5
:10F090008091C00080648093C000C55DDE4F888190
:10F0A000CB52D1400F940DF250E25093C6008091A4
:10F0B000C00086FFFCCF8091C00080648093C000B8
:10F0C0008FEFE8168FEFF80680E0080780E018075A
:10F0D00031F484E092EE60E00F94C2F1DFC0D80119
:10F0E000C7018070907CA070B0708050904CA040A0
:10F0F000B040D1F52FEF3FE340E050E0E222F322B1
:10F1000004231523CA5DDE4FA880B980CA80DB8046
:10F11000C652D140AE0CBF1CC01ED11EAA0CBB1CD7
:10F12000CC1CDD1C8EE092EE60E00F94C2F1BB2798
:10F13000A12F902F8F2D0F940DF28E2D0F940DF285
:10F1400030E23093C6008091C00086FFFCCF8091F2
:10F15000C00080648093C0004EE34093C60080915D
:10F16000C00086FFFCCF87C08EE09EEFA0E0B0E03D
:10F17000E822F9220A231B239CE0E91694E9F90608
:10F1800090E0090790E0190709F088C0C45DDE4FE0
:10F19000A881CC52D140EA2EFF2400E010E0102FCD
:10F1A0000F2DFE2CEE24C55DDE4FB881CB52D14031
:10F1B000EB0EF11C011D111DD601C501817090706F
:10F1C000A070B070DC0199278827E80EF91E0A1F8D
:10F1D0001B1F20EF30E040E050E0A222B322C42207
:10F1E000D52241E1AA0CBB1CCC1CDD1C4A95D1F7F1
:10F1F000EA0CFB1C0C1D1D1D81E090E0A0E0B0E0BE
:10F20000282239224A225B2235E1220C331C441C7D
:10F21000551C3A95D1F7E20CF31C041D151D57013E
:10F220006801AA0CBB1CCC1CDD1C85E192EE60E0E1
:10F230000F94C2F1C801AA27BB270F940DF2BB2778
:10F24000A12F902F8F2D0F940DF28E2D0F940DF274
:10F2500090E29093C6008091C00086FFFCCF809121
:10F26000C00080648093C000AEE3A093C60080918C
:10F27000C00086FFFCCF8091C00080648093C000F6
:10F28000C601AA27BB270F940DF2BB27AD2D9C2DDD
:10F290008B2D0F940DF28A2D0F940DF20F94DCF14B
:10F2A000CC5DDE4FE881F981C452D140F99709F471
:10F2B0004DCBF4E0EF2EF12C012D112D6E0C7F1CA7
:10F2C000801E911EF2CD83E093EE62E00F94F5F183
:10F2D0008AE192EE60E00F94C2F18091C00087FF56
:10F2E000FCCF1091C6001F751093C6008091C0001E
:10F2F00086FFFCCF8091C00080648093C0000F9493
:10F30000DCF1812F81548A3108F036C1163409F4BA
:10F3100095C0173490F4133409F44EC0143430F40B
:10F320001134F1F0123409F01DC130C0143409F465
:10F3300059C0153409F016C16BC01A3409F4C4C0A1
:10F340001B3438F4173409F48FC0183409F00AC19B
:10F35000A1C01B3409F4D2C01C3409F003C1E8C0B9
:10F360008FEF81B90DC082B1809582B980E090E0C5
:10F37000E0EDF7E03197F1F70196883C9105C1F790
:10F380008091C00087FFEFCF12B8EFC08FEF84B934
:10F390000DC085B1809585B980E090E0E0EDF7E0A3
:10F3A0003197F1F70196883C9105C1F78091C00033
:10F3B00087FFEFCF15B8D9C08FEF87B90DC088B1DF
:10F3C000809588B980E090E0E0EDF7E03197F1F7C3
:10F3D0000196883C9105C1F78091C00087FFEFCF6F
:10F3E00018B8C3C08FEF8AB90DC08BB180958BB9A7
:10F3F00080E090E0E0EDF7E03197F1F70196883C8E
:10F400009105C1F78091C00087FFEFCF1BB8ADC059
:10F410008FEF8DB90DC08EB180958EB980E090E0F0
:10F42000E0EDF7E03197F1F70196883C9105C1F7DF
:10F430008091C00087FFEFCF1EB897C08FEF80BBD1
:10F440000DC081B3809581BB80E090E0E0EDF7E0F6
:10F450003197F1F70196883C9105C1F78091C00082
:10F4600087FFEFCF11BA81C08FEF83BB0DC084B38C
:10F47000809584BB80E090E0E0EDF7E03197F1F714
:10F480000196883C9105C1F78091C00087FFEFCFBE
:10F4900014BA6BC08FEF809301010FC080910201FD
:10F4A00080958093020180E090E0E0EDF7E03197F5
:10F4B000F1F70196883C9105C1F78091C00087FF64
:10F4C000EDCF1092020151C08FEF809304010FC065
:10F4D0008091050180958093050180E090E0E0ED4A
:10F4E000F7E03197F1F70196883C9105C1F78091DB
:10F4F000C00087FFEDCF1092050137C08FEF8093DA
:10F5000007010FC08091080180958093080180E079
:10F5100090E0E0EDF7E03197F1F70196883C910536
:10F52000C1F78091C00087FFEDCF109208011DC088
:10F530008FEF80930A010FC080910B01809580931B
:10F540000B0180E090E0E0EDF7E03197F1F70196F4
:10F55000883C9105C1F78091C00087FFEDCF1092E4
:10F560000B0103C085E292EEEEC98091C00087FFD7
:10F57000FCCF8091C600EAC988E392EEE4C98CE131
:10F5800091EEE1C988249924933011F1943028F444
:10F59000913089F09230B8F408C0953061F195301F
:10F5A000F0F0963009F048C043C02B3109F042C951
:10F5B00091E06BE13FC96227C15DDE4F2883CF52E6
:10F5C000D14092E037C9B22FA0E0622793E032C960
:10F5D000822F90E0A82BB92B622794E02BC92E3004
:10F5E00009F039C3622795E0C05DDE4F19821882A9
:10F5F000C053D1401FC9E1E0F0E0EC0FFD1FC05D3A
:10F60000DE4F08811981C053D140E00FF11F2083E4
:10F610000F5F1F4FC05DDE4F19830883C053D14079
:10F6200062270A171B0709F005C9D80196E002C92D
:10F63000261709F010C303C0973009F0FBC87724E0
:10F640009981933109F412C19431C8F4963009F4C8
:10F65000D8C0973050F4923009F406C1933009F4C1
:10F660006DC0913009F059C253C0913109F477C08F
:10F67000923108F0BBC0903109F04FC2F5C098310B
:10F6800009F487C0993150F4953109F4EFC09531F0
:10F6900008F4C6C1963109F040C2C2C19A3109F4DA
:10F6A0006CC09A3108F491C09B3109F45BC09D3164
:10F6B00009F033C29D81903359F48F81882311F46E
:10F6C0009EE11CC0813011F091E018C098E916C08D
:10F6D000892F807591F0903539F4E0E0F0E089E011
:10F6E0008093570094910AC0983539F4E3E0F0E034
:10F6F00089E080935700949101C090E01A821B82A8
:10F700008D818C831D829E831F8227E030E009C299
:10F710001A8288E08B8381E48C8386E58D8382E581
:10F720008E8389E48F8383E5888780E589878FE5E9
:10F730008A8782E38B872BE030E0F3C18A818139AD
:10F7400041F0823941F0803911F48FE005C080E04A
:10F7500003C082E001C08AE01A828B8344C0772410
:10F76000739482C08D81882311F48EE12CC0813086
:10F7700011F081E028C088E926C01A82E1E0F0E0BB
:10F7800089E08093570084918B831C8224E030E0D1
:10F79000C8C18B81803589F48C81883039F4E2E0EE
:10F7A000F0E089E08093570084910DC0E0E0F0E044
:10F7B00089E080935700849106C0E3E0F0E089E09F
:10F7C0008093570084911A82DFCF8D81836C99E0FA
:10F7D000E1E0F0E0082E90935700E89507B600FCB2
:10F7E000FDCF1A821B8223E030E09BC180EC8A832C
:10F7F000CE5CDE4F188219821A821B82C253D1401E
:10F800008EC18A8190E0A0E0B0E0582F44273327D2
:10F8100022278B8190E0A0E0B0E0DC0199278827C7
:10F82000282B392B4A2B5B2B8D8190E0A0E0B0E098
:10F83000282B392B4A2B5B2B8C8190E0A0E0B0E089
:10F84000BA2FA92F982F8827282B392B4A2B5B2BCF
:10F85000220F331F441F551FC05EDE4F288339839C
:10F860004A835B83C052D1401A8259C13A81C95C34
:10F87000DE4F3883C753D140CA5CDE4F1882C6536F
:10F88000D1408B81C82EDD24CA5CDE4F488159816E
:10F89000C653D140C42AD52A933109F082C0CE5C28
:10F8A000DE4F88819981AA81BB81C253D1408050AB
:10F8B000904CA340B04030F583E0CE5CDE4FE88052
:10F8C000F9800A811B81C253D140F70100935B008C
:10F8D00080935700E89507B600FCFDCFCE5CDE4F65
:10F8E000088119812A813B81C253D14000501F4FAA
:10F8F0002F4F3F4FCE5CDE4F088319832A833B8313
:10F90000C253D140C05EDE4F488159816A817B81FC
:10F91000C052D140DE011B9631E08C9111962C91A2
:10F9200011971296C75CDE4F2883C953D140C85C3B
:10F93000DE4F1882C853D14090E0C85CDE4FE881AA
:10F94000F981C853D1408E2B9F2B0C01FA01609393
:10F950005B0030935700E89511244E5F5F4F6F4F67
:10F960007F4F0EEFE02E0FEFF02ECE0CDF1CC114F8
:10F97000D10499F685E0C05EDE4F088119812A81A5
:10F980003B81C052D140F80120935B008093570027
:10F99000E89507B600FCFDCF81E180935700E8951C
:10F9A00035C0C05EDE4F88819981AA81BB81C0527B
:10F9B000D140B695A795979587957C018601ABE0D8
:10F9C000AA2EB12CAC0EBD1E0BC0D5016D915D01F0
:10F9D000C7010F947FFE0894E11CF11C01501040F8
:10F9E0000115110591F7A60160E070E0440F551F65
:10F9F000661F771FC05EDE4FE880F9800A811B8199
:10FA0000C052D1404E0D5F1D601F711F1A82C05E33
:10FA1000DE4F488359836A837B83C052D1407FC0C5
:10FA2000FA80C55CDE4FF882CB53D140C65CDE4F16
:10FA30001882CA53D1408B81C82EDD24C65CDE4FAC
:10FA400008811981CA53D140C02AD12A1A828981DA
:10FA5000BE016D5F7F4F843121F59601C05EDE4FA0
:10FA6000E880F9800A811B81C052D1400BBFF701A9
:10FA700087919691DB018C9311969C936E5F7F4FDB
:10FA8000D801C7010296A11DB11DC05EDE4F88835B
:10FA90009983AA83BB83C052D14022503040F1F6F3
:10FAA00036C0C05EDE4F288139814A815B81C052F9
:10FAB000D1400894C108D108760100E010E0089414
:10FAC000C11CD11C0894E11CF11C011D111DE20E8A
:10FAD000F31E041F151F21BDBB27A52F942F832FB5
:10FAE00082BD2F5F3F4F4F4F5F4FF89A80B5DB01CC
:10FAF0008D93BD012E153F054007510761F7C05E8C
:10FB0000DE4F288339834A835B83C052D1409601FC
:10FB10002D5F3F4FFB01108204C080EC8A8322E0FE
:10FB200030E08BE18093C6008091C00086FFFCCF5F
:10FB30008091C00080648093C000C15DDE4FF88179
:10FB4000CF52D140F093C6008091C00086FFFCCF19
:10FB50008091C00080648093C000432F3093C60022
:10FB60008091C00086FFFCCF8091C00080648093AC
:10FB7000C000922F2093C6008091C00086FFFCCF6A
:10FB80008091C00080648093C0008EE08093C600A6
:10FB90008091C00086FFFCCF8091C000806480937C
:10FBA000C00065E1C15DDE4FE880CF52D1406E25D7
:10FBB00069276427FE01319610C090819093C6009A
:10FBC0008091C00086FFFCCF31968091C000806498
:10FBD0008093C0006927215030402115310569F715
:10FBE0006093C6008091C00086FFFCCF8091C0006A
:10FBF00080648093C00085B1805885B9772081F4F6
:10FC0000C15DDE4F0881CF52D1400F5FC15DDE4F35
:10FC10000883CF52D14090E0A0E0B0E00D941AF4F8
:10FC200027982F9880E090E020ED37E0F901319798
:10FC3000F1F7019684369105C9F700008091C00064
:10FC40008D7F8093C00081E180935700E895EE2777
:10FC5000FF270994FFCF90E00D941AF497FB092E2B
:10FC600007260AD077FD04D02ED006D000201AF443
:10FC7000709561957F4F0895F6F7909581959F4F08
:10FC80000895A1E21A2EAA1BBB1BFD010DC0AA1FDD
:10FC9000BB1FEE1FFF1FA217B307E407F50720F0F5
:10FCA000A21BB30BE40BF50B661F771F881F991F70
:10FCB0001A9469F760957095809590959B01AC01B9
:10FCC000BD01CF010895AA1BBB1B51E107C0AA1FAC
:10FCD000BB1FA617B70710F0A61BB70B881F991FED
:10FCE0005A95A9F780959095BC01CD010895F99991
:10FCF000FECF92BD81BDF89A992780B50895262F31
:10FD0000F999FECF1FBA92BD81BD20BD0FB6F89400
:0EFD1000FA9AF99A0FBE01960895F894FFCF63
:00000001FF
